{
  "_format": "hh-sol-artifact-1",
  "contractName": "CommodityPriceOracle",
  "sourceName": "contracts/oracles/CommodityPriceOracle.sol",
  "abi": [
    {
      "inputs": [],
      "stateMutability": "nonpayable",
      "type": "constructor"
    },
    {
      "inputs": [],
      "name": "AccessControlBadConfirmation",
      "type": "error"
    },
    {
      "inputs": [
        {
          "internalType": "address",
          "name": "account",
          "type": "address"
        },
        {
          "internalType": "bytes32",
          "name": "neededRole",
          "type": "bytes32"
        }
      ],
      "name": "AccessControlUnauthorizedAccount",
      "type": "error"
    },
    {
      "inputs": [
        {
          "internalType": "address",
          "name": "target",
          "type": "address"
        }
      ],
      "name": "AddressEmptyCode",
      "type": "error"
    },
    {
      "inputs": [
        {
          "internalType": "address",
          "name": "implementation",
          "type": "address"
        }
      ],
      "name": "ERC1967InvalidImplementation",
      "type": "error"
    },
    {
      "inputs": [],
      "name": "ERC1967NonPayable",
      "type": "error"
    },
    {
      "inputs": [],
      "name": "EnforcedPause",
      "type": "error"
    },
    {
      "inputs": [],
      "name": "ExpectedPause",
      "type": "error"
    },
    {
      "inputs": [],
      "name": "FailedCall",
      "type": "error"
    },
    {
      "inputs": [],
      "name": "InvalidInitialization",
      "type": "error"
    },
    {
      "inputs": [],
      "name": "NotInitializing",
      "type": "error"
    },
    {
      "inputs": [],
      "name": "ReentrancyGuardReentrantCall",
      "type": "error"
    },
    {
      "inputs": [],
      "name": "UUPSUnauthorizedCallContext",
      "type": "error"
    },
    {
      "inputs": [
        {
          "internalType": "bytes32",
          "name": "slot",
          "type": "bytes32"
        }
      ],
      "name": "UUPSUnsupportedProxiableUUID",
      "type": "error"
    },
    {
      "anonymous": false,
      "inputs": [
        {
          "indexed": true,
          "internalType": "bytes32",
          "name": "symbol",
          "type": "bytes32"
        },
        {
          "indexed": false,
          "internalType": "int64",
          "name": "price",
          "type": "int64"
        },
        {
          "indexed": true,
          "internalType": "address",
          "name": "setter",
          "type": "address"
        }
      ],
      "name": "EmergencyPriceSet",
      "type": "event"
    },
    {
      "anonymous": false,
      "inputs": [
        {
          "indexed": true,
          "internalType": "bytes32",
          "name": "symbol",
          "type": "bytes32"
        },
        {
          "indexed": false,
          "internalType": "uint256",
          "name": "newExpiry",
          "type": "uint256"
        }
      ],
      "name": "FuturesExpiryUpdated",
      "type": "event"
    },
    {
      "anonymous": false,
      "inputs": [
        {
          "indexed": true,
          "internalType": "bytes32",
          "name": "symbol",
          "type": "bytes32"
        },
        {
          "indexed": false,
          "internalType": "uint256",
          "name": "timestamp",
          "type": "uint256"
        }
      ],
      "name": "HeartbeatReceived",
      "type": "event"
    },
    {
      "anonymous": false,
      "inputs": [
        {
          "indexed": false,
          "internalType": "uint64",
          "name": "version",
          "type": "uint64"
        }
      ],
      "name": "Initialized",
      "type": "event"
    },
    {
      "anonymous": false,
      "inputs": [
        {
          "indexed": false,
          "internalType": "uint256",
          "name": "oldDeviation",
          "type": "uint256"
        },
        {
          "indexed": false,
          "internalType": "uint256",
          "name": "newDeviation",
          "type": "uint256"
        }
      ],
      "name": "MaxDeviationUpdated",
      "type": "event"
    },
    {
      "anonymous": false,
      "inputs": [
        {
          "indexed": false,
          "internalType": "address",
          "name": "account",
          "type": "address"
        }
      ],
      "name": "Paused",
      "type": "event"
    },
    {
      "anonymous": false,
      "inputs": [
        {
          "indexed": true,
          "internalType": "bytes32",
          "name": "symbol",
          "type": "bytes32"
        },
        {
          "indexed": false,
          "internalType": "int64",
          "name": "price",
          "type": "int64"
        },
        {
          "indexed": false,
          "internalType": "uint32",
          "name": "confidence",
          "type": "uint32"
        },
        {
          "indexed": false,
          "internalType": "uint64",
          "name": "timestamp",
          "type": "uint64"
        },
        {
          "indexed": true,
          "internalType": "address",
          "name": "source",
          "type": "address"
        }
      ],
      "name": "PriceUpdated",
      "type": "event"
    },
    {
      "anonymous": false,
      "inputs": [
        {
          "indexed": true,
          "internalType": "bytes32",
          "name": "role",
          "type": "bytes32"
        },
        {
          "indexed": true,
          "internalType": "bytes32",
          "name": "previousAdminRole",
          "type": "bytes32"
        },
        {
          "indexed": true,
          "internalType": "bytes32",
          "name": "newAdminRole",
          "type": "bytes32"
        }
      ],
      "name": "RoleAdminChanged",
      "type": "event"
    },
    {
      "anonymous": false,
      "inputs": [
        {
          "indexed": true,
          "internalType": "bytes32",
          "name": "role",
          "type": "bytes32"
        },
        {
          "indexed": true,
          "internalType": "address",
          "name": "account",
          "type": "address"
        },
        {
          "indexed": true,
          "internalType": "address",
          "name": "sender",
          "type": "address"
        }
      ],
      "name": "RoleGranted",
      "type": "event"
    },
    {
      "anonymous": false,
      "inputs": [
        {
          "indexed": true,
          "internalType": "bytes32",
          "name": "role",
          "type": "bytes32"
        },
        {
          "indexed": true,
          "internalType": "address",
          "name": "account",
          "type": "address"
        },
        {
          "indexed": true,
          "internalType": "address",
          "name": "sender",
          "type": "address"
        }
      ],
      "name": "RoleRevoked",
      "type": "event"
    },
    {
      "anonymous": false,
      "inputs": [
        {
          "indexed": true,
          "internalType": "bytes32",
          "name": "symbol",
          "type": "bytes32"
        },
        {
          "indexed": false,
          "internalType": "int64",
          "name": "settlementPrice",
          "type": "int64"
        },
        {
          "indexed": false,
          "internalType": "uint256",
          "name": "timestamp",
          "type": "uint256"
        }
      ],
      "name": "SettlementRecorded",
      "type": "event"
    },
    {
      "anonymous": false,
      "inputs": [
        {
          "indexed": false,
          "internalType": "uint256",
          "name": "oldThreshold",
          "type": "uint256"
        },
        {
          "indexed": false,
          "internalType": "uint256",
          "name": "newThreshold",
          "type": "uint256"
        }
      ],
      "name": "StalenessThresholdUpdated",
      "type": "event"
    },
    {
      "anonymous": false,
      "inputs": [
        {
          "indexed": true,
          "internalType": "bytes32",
          "name": "symbol",
          "type": "bytes32"
        },
        {
          "indexed": false,
          "internalType": "uint32",
          "name": "storageCost",
          "type": "uint32"
        }
      ],
      "name": "StorageCostUpdated",
      "type": "event"
    },
    {
      "anonymous": false,
      "inputs": [
        {
          "indexed": true,
          "internalType": "bytes32",
          "name": "symbol",
          "type": "bytes32"
        },
        {
          "indexed": false,
          "internalType": "string",
          "name": "name",
          "type": "string"
        }
      ],
      "name": "SymbolAdded",
      "type": "event"
    },
    {
      "anonymous": false,
      "inputs": [
        {
          "indexed": true,
          "internalType": "bytes32",
          "name": "symbol",
          "type": "bytes32"
        }
      ],
      "name": "SymbolRemoved",
      "type": "event"
    },
    {
      "anonymous": false,
      "inputs": [
        {
          "indexed": false,
          "internalType": "address",
          "name": "account",
          "type": "address"
        }
      ],
      "name": "Unpaused",
      "type": "event"
    },
    {
      "anonymous": false,
      "inputs": [
        {
          "indexed": true,
          "internalType": "address",
          "name": "implementation",
          "type": "address"
        }
      ],
      "name": "Upgraded",
      "type": "event"
    },
    {
      "inputs": [],
      "name": "ADMIN_ROLE",
      "outputs": [
        {
          "internalType": "bytes32",
          "name": "",
          "type": "bytes32"
        }
      ],
      "stateMutability": "view",
      "type": "function"
    },
    {
      "inputs": [],
      "name": "CONFIDENCE_DECIMALS",
      "outputs": [
        {
          "internalType": "uint8",
          "name": "",
          "type": "uint8"
        }
      ],
      "stateMutability": "view",
      "type": "function"
    },
    {
      "inputs": [],
      "name": "DEFAULT_ADMIN_ROLE",
      "outputs": [
        {
          "internalType": "bytes32",
          "name": "",
          "type": "bytes32"
        }
      ],
      "stateMutability": "view",
      "type": "function"
    },
    {
      "inputs": [],
      "name": "EMERGENCY_ROLE",
      "outputs": [
        {
          "internalType": "bytes32",
          "name": "",
          "type": "bytes32"
        }
      ],
      "stateMutability": "view",
      "type": "function"
    },
    {
      "inputs": [],
      "name": "FEEDER_ROLE",
      "outputs": [
        {
          "internalType": "bytes32",
          "name": "",
          "type": "bytes32"
        }
      ],
      "stateMutability": "view",
      "type": "function"
    },
    {
      "inputs": [],
      "name": "PRICE_DECIMALS",
      "outputs": [
        {
          "internalType": "uint8",
          "name": "",
          "type": "uint8"
        }
      ],
      "stateMutability": "view",
      "type": "function"
    },
    {
      "inputs": [],
      "name": "UPGRADE_INTERFACE_VERSION",
      "outputs": [
        {
          "internalType": "string",
          "name": "",
          "type": "string"
        }
      ],
      "stateMutability": "view",
      "type": "function"
    },
    {
      "inputs": [
        {
          "internalType": "bytes32",
          "name": "symbol",
          "type": "bytes32"
        },
        {
          "internalType": "string",
          "name": "name",
          "type": "string"
        }
      ],
      "name": "addSymbol",
      "outputs": [],
      "stateMutability": "nonpayable",
      "type": "function"
    },
    {
      "inputs": [
        {
          "internalType": "bytes32",
          "name": "",
          "type": "bytes32"
        }
      ],
      "name": "commodityData",
      "outputs": [
        {
          "internalType": "enum CommodityPriceOracle.CommodityType",
          "name": "commodityType",
          "type": "uint8"
        },
        {
          "internalType": "int64",
          "name": "spotPrice",
          "type": "int64"
        },
        {
          "internalType": "int64",
          "name": "futuresPrice",
          "type": "int64"
        },
        {
          "internalType": "uint256",
          "name": "contractExpiry",
          "type": "uint256"
        },
        {
          "internalType": "uint32",
          "name": "storageCost",
          "type": "uint32"
        },
        {
          "internalType": "uint256",
          "name": "openInterest",
          "type": "uint256"
        },
        {
          "internalType": "bool",
          "name": "isPhysicalDelivery",
          "type": "bool"
        },
        {
          "internalType": "uint256",
          "name": "lastSettlement",
          "type": "uint256"
        }
      ],
      "stateMutability": "view",
      "type": "function"
    },
    {
      "inputs": [
        {
          "internalType": "bytes32",
          "name": "symbol",
          "type": "bytes32"
        }
      ],
      "name": "getCommodityPrice",
      "outputs": [
        {
          "internalType": "int64",
          "name": "spotPrice",
          "type": "int64"
        },
        {
          "internalType": "int64",
          "name": "futuresPrice",
          "type": "int64"
        },
        {
          "internalType": "uint32",
          "name": "confidence",
          "type": "uint32"
        },
        {
          "internalType": "enum CommodityPriceOracle.CommodityType",
          "name": "commodityType",
          "type": "uint8"
        },
        {
          "internalType": "uint256",
          "name": "contractExpiry",
          "type": "uint256"
        },
        {
          "internalType": "uint256",
          "name": "openInterest",
          "type": "uint256"
        },
        {
          "internalType": "uint32",
          "name": "storageCost",
          "type": "uint32"
        },
        {
          "internalType": "uint256",
          "name": "timestamp",
          "type": "uint256"
        }
      ],
      "stateMutability": "view",
      "type": "function"
    },
    {
      "inputs": [
        {
          "internalType": "bytes32",
          "name": "symbol",
          "type": "bytes32"
        }
      ],
      "name": "getContango",
      "outputs": [
        {
          "internalType": "int256",
          "name": "percentage",
          "type": "int256"
        }
      ],
      "stateMutability": "view",
      "type": "function"
    },
    {
      "inputs": [
        {
          "internalType": "bytes32",
          "name": "symbol",
          "type": "bytes32"
        },
        {
          "internalType": "uint256",
          "name": "count",
          "type": "uint256"
        }
      ],
      "name": "getHistoricalPrices",
      "outputs": [
        {
          "components": [
            {
              "internalType": "int64",
              "name": "price",
              "type": "int64"
            },
            {
              "internalType": "uint64",
              "name": "timestamp",
              "type": "uint64"
            },
            {
              "internalType": "uint32",
              "name": "confidence",
              "type": "uint32"
            }
          ],
          "internalType": "struct OracleBase.HistoricalPrice[]",
          "name": "",
          "type": "tuple[]"
        }
      ],
      "stateMutability": "view",
      "type": "function"
    },
    {
      "inputs": [
        {
          "internalType": "bytes32",
          "name": "symbol",
          "type": "bytes32"
        }
      ],
      "name": "getPrice",
      "outputs": [
        {
          "internalType": "int64",
          "name": "price",
          "type": "int64"
        },
        {
          "internalType": "uint256",
          "name": "timestamp",
          "type": "uint256"
        }
      ],
      "stateMutability": "view",
      "type": "function"
    },
    {
      "inputs": [
        {
          "internalType": "bytes32[]",
          "name": "_symbols",
          "type": "bytes32[]"
        }
      ],
      "name": "getPriceBatch",
      "outputs": [
        {
          "internalType": "int64[]",
          "name": "_prices",
          "type": "int64[]"
        },
        {
          "internalType": "uint256[]",
          "name": "timestamps",
          "type": "uint256[]"
        }
      ],
      "stateMutability": "view",
      "type": "function"
    },
    {
      "inputs": [
        {
          "internalType": "bytes32",
          "name": "symbol",
          "type": "bytes32"
        }
      ],
      "name": "getPriceUnsafe",
      "outputs": [
        {
          "internalType": "int64",
          "name": "price",
          "type": "int64"
        },
        {
          "internalType": "uint256",
          "name": "timestamp",
          "type": "uint256"
        }
      ],
      "stateMutability": "view",
      "type": "function"
    },
    {
      "inputs": [
        {
          "internalType": "bytes32",
          "name": "symbol",
          "type": "bytes32"
        }
      ],
      "name": "getPriceWithConfidence",
      "outputs": [
        {
          "internalType": "int64",
          "name": "price",
          "type": "int64"
        },
        {
          "internalType": "uint32",
          "name": "confidence",
          "type": "uint32"
        },
        {
          "internalType": "uint256",
          "name": "timestamp",
          "type": "uint256"
        }
      ],
      "stateMutability": "view",
      "type": "function"
    },
    {
      "inputs": [
        {
          "internalType": "bytes32",
          "name": "role",
          "type": "bytes32"
        }
      ],
      "name": "getRoleAdmin",
      "outputs": [
        {
          "internalType": "bytes32",
          "name": "",
          "type": "bytes32"
        }
      ],
      "stateMutability": "view",
      "type": "function"
    },
    {
      "inputs": [],
      "name": "getSupportedSymbols",
      "outputs": [
        {
          "internalType": "bytes32[]",
          "name": "",
          "type": "bytes32[]"
        }
      ],
      "stateMutability": "view",
      "type": "function"
    },
    {
      "inputs": [
        {
          "internalType": "bytes32",
          "name": "role",
          "type": "bytes32"
        },
        {
          "internalType": "address",
          "name": "account",
          "type": "address"
        }
      ],
      "name": "grantRole",
      "outputs": [],
      "stateMutability": "nonpayable",
      "type": "function"
    },
    {
      "inputs": [
        {
          "internalType": "bytes32",
          "name": "role",
          "type": "bytes32"
        },
        {
          "internalType": "address",
          "name": "account",
          "type": "address"
        }
      ],
      "name": "hasRole",
      "outputs": [
        {
          "internalType": "bool",
          "name": "",
          "type": "bool"
        }
      ],
      "stateMutability": "view",
      "type": "function"
    },
    {
      "inputs": [],
      "name": "heartbeatInterval",
      "outputs": [
        {
          "internalType": "uint256",
          "name": "",
          "type": "uint256"
        }
      ],
      "stateMutability": "view",
      "type": "function"
    },
    {
      "inputs": [
        {
          "internalType": "address",
          "name": "_admin",
          "type": "address"
        },
        {
          "internalType": "address[]",
          "name": "_feeders",
          "type": "address[]"
        }
      ],
      "name": "initialize",
      "outputs": [],
      "stateMutability": "nonpayable",
      "type": "function"
    },
    {
      "inputs": [
        {
          "internalType": "bytes32",
          "name": "symbol",
          "type": "bytes32"
        }
      ],
      "name": "isNearExpiry",
      "outputs": [
        {
          "internalType": "bool",
          "name": "",
          "type": "bool"
        }
      ],
      "stateMutability": "view",
      "type": "function"
    },
    {
      "inputs": [
        {
          "internalType": "bytes32",
          "name": "symbol",
          "type": "bytes32"
        }
      ],
      "name": "isStale",
      "outputs": [
        {
          "internalType": "bool",
          "name": "",
          "type": "bool"
        }
      ],
      "stateMutability": "view",
      "type": "function"
    },
    {
      "inputs": [
        {
          "internalType": "bytes32",
          "name": "",
          "type": "bytes32"
        }
      ],
      "name": "isSupported",
      "outputs": [
        {
          "internalType": "bool",
          "name": "",
          "type": "bool"
        }
      ],
      "stateMutability": "view",
      "type": "function"
    },
    {
      "inputs": [
        {
          "internalType": "bytes32",
          "name": "",
          "type": "bytes32"
        }
      ],
      "name": "lastHeartbeat",
      "outputs": [
        {
          "internalType": "uint256",
          "name": "",
          "type": "uint256"
        }
      ],
      "stateMutability": "view",
      "type": "function"
    },
    {
      "inputs": [],
      "name": "maxPriceDeviationBps",
      "outputs": [
        {
          "internalType": "uint256",
          "name": "",
          "type": "uint256"
        }
      ],
      "stateMutability": "view",
      "type": "function"
    },
    {
      "inputs": [],
      "name": "oracleName",
      "outputs": [
        {
          "internalType": "string",
          "name": "",
          "type": "string"
        }
      ],
      "stateMutability": "view",
      "type": "function"
    },
    {
      "inputs": [],
      "name": "oracleVersion",
      "outputs": [
        {
          "internalType": "string",
          "name": "",
          "type": "string"
        }
      ],
      "stateMutability": "view",
      "type": "function"
    },
    {
      "inputs": [],
      "name": "pause",
      "outputs": [],
      "stateMutability": "nonpayable",
      "type": "function"
    },
    {
      "inputs": [],
      "name": "paused",
      "outputs": [
        {
          "internalType": "bool",
          "name": "",
          "type": "bool"
        }
      ],
      "stateMutability": "view",
      "type": "function"
    },
    {
      "inputs": [
        {
          "internalType": "bytes32",
          "name": "",
          "type": "bytes32"
        },
        {
          "internalType": "uint256",
          "name": "",
          "type": "uint256"
        }
      ],
      "name": "priceHistory",
      "outputs": [
        {
          "internalType": "int64",
          "name": "price",
          "type": "int64"
        },
        {
          "internalType": "uint64",
          "name": "timestamp",
          "type": "uint64"
        },
        {
          "internalType": "uint32",
          "name": "confidence",
          "type": "uint32"
        }
      ],
      "stateMutability": "view",
      "type": "function"
    },
    {
      "inputs": [
        {
          "internalType": "bytes32",
          "name": "",
          "type": "bytes32"
        }
      ],
      "name": "prices",
      "outputs": [
        {
          "internalType": "int64",
          "name": "price",
          "type": "int64"
        },
        {
          "internalType": "uint32",
          "name": "confidence",
          "type": "uint32"
        },
        {
          "internalType": "uint64",
          "name": "timestamp",
          "type": "uint64"
        },
        {
          "internalType": "address",
          "name": "source",
          "type": "address"
        }
      ],
      "stateMutability": "view",
      "type": "function"
    },
    {
      "inputs": [],
      "name": "proxiableUUID",
      "outputs": [
        {
          "internalType": "bytes32",
          "name": "",
          "type": "bytes32"
        }
      ],
      "stateMutability": "view",
      "type": "function"
    },
    {
      "inputs": [
        {
          "internalType": "bytes32",
          "name": "symbol",
          "type": "bytes32"
        },
        {
          "internalType": "int64",
          "name": "settlementPrice",
          "type": "int64"
        }
      ],
      "name": "recordSettlement",
      "outputs": [],
      "stateMutability": "nonpayable",
      "type": "function"
    },
    {
      "inputs": [
        {
          "internalType": "bytes32",
          "name": "symbol",
          "type": "bytes32"
        }
      ],
      "name": "removeSymbol",
      "outputs": [],
      "stateMutability": "nonpayable",
      "type": "function"
    },
    {
      "inputs": [
        {
          "internalType": "bytes32",
          "name": "role",
          "type": "bytes32"
        },
        {
          "internalType": "address",
          "name": "callerConfirmation",
          "type": "address"
        }
      ],
      "name": "renounceRole",
      "outputs": [],
      "stateMutability": "nonpayable",
      "type": "function"
    },
    {
      "inputs": [
        {
          "internalType": "bytes32",
          "name": "role",
          "type": "bytes32"
        },
        {
          "internalType": "address",
          "name": "account",
          "type": "address"
        }
      ],
      "name": "revokeRole",
      "outputs": [],
      "stateMutability": "nonpayable",
      "type": "function"
    },
    {
      "inputs": [
        {
          "internalType": "bytes32",
          "name": "symbol",
          "type": "bytes32"
        },
        {
          "internalType": "enum CommodityPriceOracle.CommodityType",
          "name": "_type",
          "type": "uint8"
        }
      ],
      "name": "setCommodityType",
      "outputs": [],
      "stateMutability": "nonpayable",
      "type": "function"
    },
    {
      "inputs": [
        {
          "internalType": "bytes32",
          "name": "symbol",
          "type": "bytes32"
        },
        {
          "internalType": "int64",
          "name": "price",
          "type": "int64"
        },
        {
          "internalType": "uint32",
          "name": "confidence",
          "type": "uint32"
        }
      ],
      "name": "setEmergencyPrice",
      "outputs": [],
      "stateMutability": "nonpayable",
      "type": "function"
    },
    {
      "inputs": [],
      "name": "stalenessThreshold",
      "outputs": [
        {
          "internalType": "uint256",
          "name": "",
          "type": "uint256"
        }
      ],
      "stateMutability": "view",
      "type": "function"
    },
    {
      "inputs": [
        {
          "internalType": "bytes4",
          "name": "interfaceId",
          "type": "bytes4"
        }
      ],
      "name": "supportsInterface",
      "outputs": [
        {
          "internalType": "bool",
          "name": "",
          "type": "bool"
        }
      ],
      "stateMutability": "view",
      "type": "function"
    },
    {
      "inputs": [
        {
          "internalType": "uint256",
          "name": "",
          "type": "uint256"
        }
      ],
      "name": "symbols",
      "outputs": [
        {
          "internalType": "bytes32",
          "name": "",
          "type": "bytes32"
        }
      ],
      "stateMutability": "view",
      "type": "function"
    },
    {
      "inputs": [],
      "name": "unpause",
      "outputs": [],
      "stateMutability": "nonpayable",
      "type": "function"
    },
    {
      "inputs": [
        {
          "internalType": "bytes32",
          "name": "symbol",
          "type": "bytes32"
        },
        {
          "internalType": "int64",
          "name": "spotPrice",
          "type": "int64"
        },
        {
          "internalType": "int64",
          "name": "futuresPrice",
          "type": "int64"
        },
        {
          "internalType": "uint32",
          "name": "confidence",
          "type": "uint32"
        },
        {
          "internalType": "uint256",
          "name": "openInterest",
          "type": "uint256"
        },
        {
          "internalType": "uint256",
          "name": "contractExpiry",
          "type": "uint256"
        }
      ],
      "name": "updateCommodityPrice",
      "outputs": [],
      "stateMutability": "nonpayable",
      "type": "function"
    },
    {
      "inputs": [
        {
          "internalType": "enum CommodityPriceOracle.CommodityType",
          "name": "",
          "type": "uint8"
        }
      ],
      "name": "updateFrequency",
      "outputs": [
        {
          "internalType": "uint256",
          "name": "",
          "type": "uint256"
        }
      ],
      "stateMutability": "view",
      "type": "function"
    },
    {
      "inputs": [
        {
          "internalType": "uint256",
          "name": "newDeviation",
          "type": "uint256"
        }
      ],
      "name": "updateMaxDeviation",
      "outputs": [],
      "stateMutability": "nonpayable",
      "type": "function"
    },
    {
      "inputs": [
        {
          "internalType": "bytes32",
          "name": "symbol",
          "type": "bytes32"
        },
        {
          "internalType": "int64",
          "name": "price",
          "type": "int64"
        },
        {
          "internalType": "uint32",
          "name": "confidence",
          "type": "uint32"
        }
      ],
      "name": "updatePrice",
      "outputs": [],
      "stateMutability": "nonpayable",
      "type": "function"
    },
    {
      "inputs": [
        {
          "internalType": "bytes32[]",
          "name": "_symbols",
          "type": "bytes32[]"
        },
        {
          "internalType": "int64[]",
          "name": "_prices",
          "type": "int64[]"
        },
        {
          "internalType": "uint32[]",
          "name": "_confidences",
          "type": "uint32[]"
        }
      ],
      "name": "updatePriceBatch",
      "outputs": [],
      "stateMutability": "nonpayable",
      "type": "function"
    },
    {
      "inputs": [
        {
          "internalType": "uint256",
          "name": "newThreshold",
          "type": "uint256"
        }
      ],
      "name": "updateStalenessThreshold",
      "outputs": [],
      "stateMutability": "nonpayable",
      "type": "function"
    },
    {
      "inputs": [
        {
          "internalType": "bytes32",
          "name": "symbol",
          "type": "bytes32"
        },
        {
          "internalType": "uint32",
          "name": "storageCostBps",
          "type": "uint32"
        }
      ],
      "name": "updateStorageCost",
      "outputs": [],
      "stateMutability": "nonpayable",
      "type": "function"
    },
    {
      "inputs": [
        {
          "internalType": "address",
          "name": "newImplementation",
          "type": "address"
        },
        {
          "internalType": "bytes",
          "name": "data",
          "type": "bytes"
        }
      ],
      "name": "upgradeToAndCall",
      "outputs": [],
      "stateMutability": "payable",
      "type": "function"
    }
  ],
  "bytecode": "0x60a080604052346100ea57306080527ff0c57e16840df040f15088dc2f81fe391c3923bec73e23a9662efc9c229c6a005460ff8160401c166100d9576002600160401b03196001600160401b03821601610073575b6040516137d990816100f08239608051818181611bd40152611ca70152f35b6001600160401b0319166001600160401b039081177ff0c57e16840df040f15088dc2f81fe391c3923bec73e23a9662efc9c229c6a005581527fc7f505b2f371ae2175ee4913f4499e1f2633a7b5936321eed1cdaeb6115181d290602090a13880610054565b63f92ee8a960e01b60005260046000fd5b600080fdfe608080604052600436101561001357600080fd5b60003560e01c90816301cc9eec146125e55750806301ffc9a71461258f57806302651a29146124f757806308f4c74e146124b05780630c5bf8f7146123895780631b71a9db1461231657806320df4359146122db578063248a9ca3146122bd5780632c0dc14f1461225e5780632f2ff15d1461222d57806331d98b3f146121975780633465062e14611ff357806336568abe14611fad578063378143b114611f2e5780633f4ba83a14611eab5780634f1ef28614611c2b57806352d1902d14611bc1578063561a4fac14611ba35780635c975abb14611b7357806360846bc614611b10578063670d5ff214611aea578063676ea19214611ab957806375b238fc14611a7e57806379baa1a214611a605780637b2ed35514611a425780637d11f020146119ac5780638456cb591461193857806387458a68146118e457806387ccb8e21461186d5780638820a8c41461183957806391d14854146117df578063946d920414610e0857806395a7d04a14610c7057806396834ad314610be7578063a217fddf14610bcb578063a84f6ebb14610bad578063ad3cb1cc14610b6e578063ae0899e114610b42578063af5df89614610a9b578063afebefee14610a6a578063b3c94b5f1461095d578063c06dad8d1461083f578063c28f1cc314610771578063c2984f13146105e7578063c87421701461043f578063ccce413b146103ed578063ce1c0e4d14610333578063ceb20971146102f8578063d547741f146102c0578063de3f2afd146102a4578063e35804f21461027c5763f1a640f81461025b57600080fd5b3461027757600036600319011261027757602060405160088152f35b600080fd5b3461027757602036600319011261027757602061029a600435612fa2565b6040519015158152f35b3461027757600036600319011261027757602060405160048152f35b34610277576040366003190112610277576102f66004356102df6126ad565b906102f16102ec82612907565b612caf565b6130bc565b005b346102775760003660031901126102775760206040517f80a586cc4ecf40a390b370be075aa38ab3cc512c5c1a7bc1007974dbdf2663c78152f35b34610277576000366003190112610277576040518060206003549283815201809260036000527fc2575a0e9e593c00f959f8c92f12db2869c3395a3b0502d05e2516446f71f85b9060005b8181106103d7575050508161039491038261276c565b6040519182916020830190602084525180915260408301919060005b8181106103be575050500390f35b82518452859450602093840193909201916001016103b0565b825484526020909301926001928301920161037e565b34610277576020366003190112610277576004356003548110156102775760009060035481101561042b576020826003829452200154604051908152f35b634e487b7160e01b82526032600452602482fd5b34610277576020366003190112610277576004356001600160401b0381116102775761046f90369060040161285b565b6104788161282b565b90610486604051928361276c565b8082526104928161282b565b6020830190601f19013682376104a78261282b565b936104b5604051958661276c565b8285526104c18361282b565b602086019390601f190136853760005b818110610559575050506040519384936040850190604086525180915260608501929060005b81811061053d5750505060209084830382860152519182815201919060005b818110610524575050500390f35b8251845285945060209384019390920191600101610516565b825160070b8552879650602094850194909201916001016104f7565b8061056c60019284869a9798999a612b9c565b3560005260006020526001600160401b0360406000206040519061058f8261271a565b80549160608360070b9283835263ffffffff8560401c166020840152856040840195831c16855287808060a01b03910154169101526105ce848c612b3d565b5251166105db8287612b3d565b520195949392956104d1565b34610277576020366003190112610277576004358060005260006020526040600020604051916106168361271a565b8154928360070b81526060602082019363ffffffff8660401c1685526001600160401b036040840196831c1686526001808060a01b0391015416910152600052603c6020526040600020906040519261066e84612750565b82549260ff8416600581101561075b57855260208501908460081c60070b8252604086019460481c60070b855260018101546060870190815263ffffffff806002840154169360808901948552600560038501549460a08b0195865260ff600482015416151560c08c0152015460e08a01526106f56001600160401b038751161515612928565b5160070b965160070b9551169651600581101561075b57610100976001600160401b0363ffffffff6107459451955196511696511696604051988952602089015260408801526060870190612672565b608085015260a084015260c083015260e0820152f35b634e487b7160e01b600052602160045260246000fd5b346102775760003660031901126102775760405160095460009081610795826127a8565b808552916001811690811561081857506001146107cd575b6107c9846107bd8186038261276c565b604051918291826127e2565b0390f35b60098152600080516020613724833981519152939250905b8082106107fe575090915081016020016107bd826107ad565b9192600181602092548385880101520191019092916107e5565b60ff191660208087019190915292151560051b850190920192506107bd91508390506107ad565b34610277576060366003190112610277576004356001600160401b0381116102775761086f90369060040161285b565b906024356001600160401b0381116102775761088f90369060040161285b565b91906044356001600160401b038111610277576108b090369060040161285b565b6108bb929192612c3d565b6108c361315c565b6108ce858714612b5e565b6108d9818714612b5e565b60005b8681106108e557005b806109236108f66001938a89612b9c565b3561090a610905848b89612b9c565b612bac565b61091d61091885888b612b9c565b612bba565b91613186565b610957610931828a89612b9c565b35610940610905848b89612b9c565b90339161095161091886898c612b9c565b9161322d565b016108dc565b346102775760c0366003190112610277576004356109796126d9565b6044358060070b8103610277576064359163ffffffff83168303610277576109c260a435936109a6612c3d565b6109ae61315c565b6109b9818488613186565b3390838761322d565b83600052603c60205260406000209168ffffffffffffffff0083549160481b70ffffffffffffffff000000000000000000169260081b169070ffffffffffffffffffffffffffffffff00191617178155608435600382015581151580610a5c575b610a2957005b817f9133fc1796adcf3033e87fc1b44748c9b03ed5d82bd7ca1e7ec22553b7244f099260016020930155604051908152a2005b506001810154821415610a23565b3461027757602036600319011261027757600435600581101561027757610a92602091612842565b54604051908152f35b3461027757602036600319011261027757606060043580600052600060205260406000206001600160401b0363ffffffff604051610ad88161271a565b610b25610b1f8554968760070b8452610b1a866020860199878160401c168b528b1c166040860198818a526001808060a01b03910154168b8701521515612928565b612fa2565b1561296a565b5160070b9351169151169060405192835260208301526040820152f35b346102775760203660031901126102775760043560005260026020526020604060002054604051908152f35b34610277576000366003190112610277576107c96040805190610b91818361276c565b60058252640352e302e360dc1b602083015251918291826127e2565b34610277576000366003190112610277576020600554604051908152f35b3461027757600036600319011261027757602060405160008152f35b346102775760203660031901126102775760043560005260006020526040600020604051610c148161271a565b81549060606001600160401b038360070b9384845263ffffffff8160401c166020850152821c16938460408401526001808060a01b03910154169101526107c96040519283928360209093929193604081019460070b81520152565b3461027757610c7e3661267f565b9060005260016020526040600020805491828111600014610e02575081905b610ca68261282b565b92610cb4604051948561276c565b82845282601f19610cc48261282b565b0160005b818110610dd1575050610cda91612b51565b60005b838110610d53578460405180916020820160208352815180915260206040840192019060005b818110610d11575050500390f35b919350916020606060019263ffffffff60408851805160070b84526001600160401b038682015116868501520151166040820152019401910191849392610d03565b80820190818311610dbb57610d6a60019285612695565b5063ffffffff60405191610d7d83612735565b548060070b83526001600160401b038160401c16602084015260801c166040820152610da98288612b3d565b52610db48187612b3d565b5001610cdd565b634e487b7160e01b600052601160045260246000fd5b6020919250604051610de281612735565b600081526000838201526000604082015282828901015201908491610cc8565b90610c9d565b3461027757604036600319011261027757610e216126c3565b602435906001600160401b0382116102775736602383011215610277578160040135610e4c8161282b565b92610e5a604051948561276c565b8184526024602085019260051b8201019036821161027757602401915b8183106117bf57505050600080516020613784833981519152549060ff8260401c1615916001600160401b038116801590816117b7575b60011490816117ad575b1590816117a4575b506117935767ffffffffffffffff1981166001176000805160206137848339815191525582611766575b506040908151610efa838261276c565b6014815273436f6d6d6f6469747950726963654f7261636c6560601b6020820152825190610f28848361276c565b60058252640312e302e360dc1b6020830152610f42613634565b610f4a613634565b610f52613634565b610f5a613634565b610f62613634565b60017f9b779b17422d0df92223018b32b4d1fa46e071723d6817e2486d003becc55f0055610f8e613634565b8051906001600160401b03821161165a578190610fac6008546127a8565b601f81116116ef575b50602090601f831160011461167b57600092611670575b50508160011b916000199060031b1c1916176008555b8051906001600160401b03821161165a57610ffe6009546127a8565b601f81116115ed575b50602090601f83116001146115755761105c9392916000918361156a575b50508160011b916000199060031b1c1916176009555b610e1060055561012c6007556103e860065561105681612cf9565b50612d93565b5060005b835181101561108f576001906110886001600160a01b036110818388612b3d565b5116612e4f565b5001611060565b506000808052603d602052818120603c9081905560018252828220556002815281812061012c90819055600382528282205560048152819020610258905580519091906101606110df818361276c565b600a82526020820190601f1901368237815115611554577fa92cf0172c07516c68de578cb9ba9b13e900187ce05f46c6652f80afc58114539052805160011015611554577f0ded870012d3ee978f376323f7fde58cafb65d91778f74b04ec7caf9099f4e1a83820152805160021015611554577f12b401060c894625149d77193ef913508d1ea8646ff2dd1056646da974633d0e6060820152805160031015611554577f85de9facb9f703cb8b77bca3163eb0ad1780f77bf724319b6e5c67b12837e0866080820152805160041015611554577ff1275e63c78b721bf364e528cec15adef80f30966703fa6975a972b372bceaed60a0820152805160051015611554577fc88cc73c99870bba0314f459398b92ca9bdc5dd660540e03b81a53bf7a8ea3fc60c0820152805160061015611554577f0154d8fee1137ffd0c58a04a2e21d4dc9fcf4da2097bc7e639937fc4881615eb60e0820152805160071015611554577fccf2e0598fd10ca0ddc6ec9134abc8ba10fee625640d1fc4f7f7ae010950faae610100820152805160081015611554577f73b5e3715c266b2b94cec2714e7270a1fdaa6fc0a209aed8687ae0cf9c06b008610120820152805160091015611554577f42ad75b25a3bfff85df31e4c1655743d9ac2cadfecd57a9ec85cae8f9a76c5a961014082015260005b815181101561131457806112e460019284612b3d565b516000526004602052846000208260ff1982541617905561130e6113088285612b3d565b5161288b565b016112ce565b50507fa92cf0172c07516c68de578cb9ba9b13e900187ce05f46c6652f80afc58114536000908152603c602052828120805460ff199081169091557f0ded870012d3ee978f376323f7fde58cafb65d91778f74b04ec7caf9099f4e1a82528382208054821690557f12b401060c894625149d77193ef913508d1ea8646ff2dd1056646da974633d0e82528382208054821690557f85de9facb9f703cb8b77bca3163eb0ad1780f77bf724319b6e5c67b12837e08682528382208054821660019081179091557ff1275e63c78b721bf364e528cec15adef80f30966703fa6975a972b372bceaed835284832080548316821790557fc88cc73c99870bba0314f459398b92ca9bdc5dd660540e03b81a53bf7a8ea3fc83528483208054831690911790557f0154d8fee1137ffd0c58a04a2e21d4dc9fcf4da2097bc7e639937fc4881615eb82528382208054821660021790557fccf2e0598fd10ca0ddc6ec9134abc8ba10fee625640d1fc4f7f7ae010950faae82528382208054821660039081179091557f73b5e3715c266b2b94cec2714e7270a1fdaa6fc0a209aed8687ae0cf9c06b008835284832080548316821790557f42ad75b25a3bfff85df31e4c1655743d9ac2cadfecd57a9ec85cae8f9a76c5a9835291849020805490911690911790556114fc57005b60207fc7f505b2f371ae2175ee4913f4499e1f2633a7b5936321eed1cdaeb6115181d29168ff0000000000000000196000805160206137848339815191525416600080516020613784833981519152555160018152a1005b634e487b7160e01b600052603260045260246000fd5b015190508780611025565b90601f1983169160096000526000805160206137248339815191529260005b8181106115d5575091600193918561105c979694106115bc575b505050811b0160095561103b565b015160001960f88460031b161c191690558780806115ae565b92936020600181928786015181550195019301611594565b6009600052601f830160051c600080516020613724833981519152019060208410611644575b601f0160051c60008051602061372483398151915201905b8181106116385750611007565b6000815560010161162b565b6000805160206137248339815191529150611613565b634e487b7160e01b600052604160045260246000fd5b015190508780610fcc565b600860009081526000805160206137048339815191529350601f198516905b8181106116d757509084600195949392106116be575b505050811b01600855610fe2565b015160001960f88460031b161c191690558780806116b0565b9293602060018192878601518155019501930161169a565b9091506008600052601f830160051c600080516020613704833981519152019060208410611750575b90601f8493920160051c60008051602061370483398151915201905b8181106117415750610fb5565b60008155849350600101611734565b6000805160206137048339815191529150611718565b68ffffffffffffffffff191668010000000000000001176000805160206137848339815191525583610eea565b63f92ee8a960e01b60005260046000fd5b90501585610ec0565b303b159150610eb8565b849150610eae565b82356001600160a01b038116810361027757815260209283019201610e77565b34610277576040366003190112610277576117f86126ad565b60043560005260008051602061374483398151915260205260406000209060018060a01b0316600052602052602060ff604060002054166040519015158152f35b34610277576102f661184a366126e9565b90611853612c3d565b61185b61315c565b611866828285613186565b339261322d565b346102775760403660031901126102775760043560243563ffffffff81168091036102775760207f65c5a2e94cbd5c407f09ada74d429e1b034a4ac346c0726a3c8287e9ef2abc3e916118be612bcb565b83600052603c825260026040600020018163ffffffff19825416179055604051908152a2005b34610277576020366003190112610277577f2cfed7ac4be4a0009ef1af32ea2de149e0122938cb9aa4b3f7df3be6da1055e96040600435611923612bcb565b600554908060055582519182526020820152a1005b3461027757600036600319011261027757611951612bcb565b61195961315c565b600160ff19600080516020613764833981519152541617600080516020613764833981519152557f62e78cea01bee320cd4e420270b5ea74000d11b0c9f74754ebdbfc544b05a2586020604051338152a1005b3461027757600036600319011261027757604051600854600090816119d0826127a8565b808552916001811690811561081857506001146119f7576107c9846107bd8186038261276c565b60088152600080516020613704833981519152939250905b808210611a28575090915081016020016107bd826107ad565b919260018160209254838588010152019101909291611a0f565b3461027757602036600319011261027757602061029a600435612a9d565b34610277576000366003190112610277576020600654604051908152f35b346102775760003660031901126102775760206040517fa49807205ce4d355092ef5a8a18f56e8913cf4a201fbe287825b095693c217758152f35b34610277576020366003190112610277576004356000526004602052602060ff604060002054166040519015158152f35b34610277576020366003190112610277576020611b086004356129a7565b604051908152f35b34610277576020366003190112610277576004356000526000602052608060406000208054906001808060a01b03910154166001600160401b03604051928060070b845263ffffffff8160401c16602085015260601c1660408301526060820152f35b3461027757600036600319011261027757602060ff60008051602061376483398151915254166040519015158152f35b34610277576000366003190112610277576020600754604051908152f35b34610277576000366003190112610277577f00000000000000000000000000000000000000000000000000000000000000006001600160a01b03163003611c1a5760206040516000805160206136e48339815191528152f35b63703e46dd60e11b60005260046000fd5b604036600319011261027757611c3f6126c3565b602435906001600160401b038211610277573660238301121561027757816004013590611c6b8261278d565b91611c79604051938461276c565b8083526020830193366024838301011161027757816000926024602093018737840101526001600160a01b037f000000000000000000000000000000000000000000000000000000000000000016308114908115611e88575b50611c1a57611cdf612bcb565b6001600160a01b038116928315611e4d576040516352d1902d60e01b8152602081600481885afa60009181611e19575b50611d295784634c9c8ce360e01b60005260045260246000fd5b806000805160206136e4833981519152869203611e055750823b15611df1576000805160206136e483398151915280546001600160a01b031916821790557fbc7cd75a20ee27fd9adebab32041f755214dbc6bffa90cc0225b39da2e5c2d3b600080a2825115611dd657600080916102f6945190845af43d15611dce573d91611db18361278d565b92611dbf604051948561276c565b83523d6000602085013e613662565b606091613662565b50505034611de057005b63b398979f60e01b60005260046000fd5b634c9c8ce360e01b60005260045260246000fd5b632a87526960e21b60005260045260246000fd5b9091506020813d602011611e45575b81611e356020938361276c565b8101031261027757519086611d0f565b3d9150611e28565b60405162461bcd60e51b81526020600482015260136024820152722d32b9379034b6b83632b6b2b73a30ba34b7b760691b6044820152606490fd5b6000805160206136e4833981519152546001600160a01b03161415905084611cd2565b3461027757600036600319011261027757611ec4612bcb565b6000805160206137648339815191525460ff811615611f1d5760ff1916600080516020613764833981519152557f5db9ee0a495bf2e6ff9c91a7834c1ba4fdd244a5e8aa4e537bd38aeae4b073aa6020604051338152a1005b638dfc202b60e01b60005260046000fd5b34610277576040366003190112610277576004357f9687dfa839aa19785259030a19ac988c9dc9512c5fdf9f83ae45c78322aef912611fa8611f6e6126d9565b611f76612c3d565b83600052603c602052604060002060054291015560405191829142908360209093929193604081019460070b81520152565b0390a2005b3461027757604036600319011261027757611fc66126ad565b336001600160a01b03821603611fe2576102f6906004356130bc565b63334bd91960e11b60005260046000fd5b3461027757612001366126e9565b3360009081527f762c7c328dd70a077c65c77b60e4c38eed3d2f6aa056d4d0fa114aeff8234b5660205260409020549092919060ff161561215e5781600052600460205261205660ff604060002054166128c4565b6001604051916120658361271a565b60070b9384835263ffffffff60208401911681526121066001600160401b036040850181421681526120de63ffffffff60608801953387528960005260006020526040600020985160070b85198a54169086161789555116879063ffffffff60401b82549160401b169063ffffffff60401b1916179055565b51855467ffffffffffffffff60601b1916911660601b67ffffffffffffffff60601b16178455565b818060a01b0390511691019060018060a01b03166bffffffffffffffffffffffff60a01b8254161790556040519182527f270e298a31915f1dca9a1b17b58e0369ff80602ef539ae5a43032bb29ad459fd60203393a3005b63e2517d3f60e01b600052336004527fbf233dd2aafeb4d50879c4aa5c81e96d92f6e6945c906a58f9f2d1c1631b4b2660245260446000fd5b34610277576020366003190112610277576004358060005260006020526001600160401b03604060002091612214610b1f604051926121d58461271a565b610b1a8587548060070b875263ffffffff8160401c16602088015260601c1660408601978189526001808060a01b039101541660608701521515612928565b5191516040805160079490940b84529116602083015290f35b34610277576040366003190112610277576102f660043561224c6126ad565b906122596102ec82612907565b612f0b565b346102775761226c3661267f565b906000526001602052604060002080548210156102775760609161228f91612695565b505463ffffffff604051918060070b83526001600160401b038160401c16602084015260801c166040820152f35b34610277576020366003190112610277576020611b08600435612907565b346102775760003660031901126102775760206040517fbf233dd2aafeb4d50879c4aa5c81e96d92f6e6945c906a58f9f2d1c1631b4b268152f35b3461027757602036600319011261027757600435612332612bcb565b80600052600460205261234c60ff604060002054166128c4565b806000526004602052604060002060ff1981541690557f88d7a2d72d05315fff92a3e2fcda7475e6d992d2f19f14f1149836e6aedc9704600080a2005b34610277576040366003190112610277576004356024356001600160401b0381116102775736602382011215610277578060040135906001600160401b038211610277573660248383010111610277576123e1612bcb565b82600052600460205260ff6040600020541661246b5760406024917f4db75b1dc79e1b1202ddc36b54a495b20dd3071e97b862d554ed43559bcdc5d49385600052600460205282600020600160ff1982541617905561243f8661288b565b8083519485936020855282602086015201848401376000828201840152601f01601f19168101030190a2005b60405162461bcd60e51b815260206004820152601860248201527f53796d626f6c20616c726561647920737570706f7274656400000000000000006044820152606490fd5b34610277576040366003190112610277576024356005811015610277576124d5612bcb565b600435600052603c60205260406000209060ff80198354169116179055600080f35b3461027757602036600319011261027757600435612513612bcb565b61138881116125555760407fea7b0359048504e79474eaaa05294b49265fc4e7b0a0c3737aaa22412e90f16e91600654908060065582519182526020820152a1005b60405162461bcd60e51b8152602060048201526012602482015271088caecd2c2e8d2dedc40e8dede40d0d2ced60731b6044820152606490fd5b346102775760203660031901126102775760043563ffffffff60e01b811680910361027757602090637965db0b60e01b81149081156125d4575b506040519015158152f35b6301ffc9a760e01b149050826125c9565b346102775760203660031901126102775761010090600435600052603c6020526040600020805490600181015463ffffffff600283015416600383015491600560ff6004860154169401549461263e8760ff8316612672565b8060081c60070b602088015260481c60070b60408701526060860152608085015260a0840152151560c083015260e0820152f35b90600582101561075b5752565b6040906003190112610277576004359060243590565b80548210156115545760005260206000200190600090565b602435906001600160a01b038216820361027757565b600435906001600160a01b038216820361027757565b602435908160070b820361027757565b606090600319011261027757600435906024358060070b8103610277579060443563ffffffff811681036102775790565b608081019081106001600160401b0382111761165a57604052565b606081019081106001600160401b0382111761165a57604052565b61010081019081106001600160401b0382111761165a57604052565b90601f801991011681019081106001600160401b0382111761165a57604052565b6001600160401b03811161165a57601f01601f191660200190565b90600182811c921680156127d8575b60208310146127c257565b634e487b7160e01b600052602260045260246000fd5b91607f16916127b7565b91909160208152825180602083015260005b818110612815575060409293506000838284010152601f8019910116010190565b80602080928701015160408286010152016127f4565b6001600160401b03811161165a5760051b60200190565b600581101561075b57600052603d602052604060002090565b9181601f84011215610277578235916001600160401b038311610277576020808501948460051b01011161027757565b600354600160401b81101561165a578060016128ac92016003556003612695565b819291549060031b91821b91600019901b1916179055565b156128cb57565b60405162461bcd60e51b815260206004820152601460248201527314de5b589bdb081b9bdd081cdd5c1c1bdc9d195960621b6044820152606490fd5b60005260008051602061374483398151915260205260016040600020015490565b1561292f57565b60405162461bcd60e51b81526020600482015260136024820152725072696365206e6f7420617661696c61626c6560681b6044820152606490fd5b1561297157565b60405162461bcd60e51b815260206004820152600e60248201526d5072696365206973207374616c6560901b6044820152606490fd5b600052603c6020526040600020604051906129c182612750565b80549060ff8216600581101561075b5783528160081c60070b9260e06005602083019486865260481c60070b938460408501526001810154606085015263ffffffff6002820154166080850152600381015460a085015260ff600482015416151560c085015201549101528215612a9557828103926000811282851281169083861390151617610dbb5761271084029384056127101491141715610dbb575160070b908115612a7f57600160ff1b8114600019831416610dbb570590565b634e487b7160e01b600052601260045260246000fd5b505050600090565b600052603c6020526040600020604051612ab681612750565b815460ff8116600581101561075b5782528060081c60070b602083015260481c60070b604082015260018201549060e06005606083019484865263ffffffff6002820154166080850152600381015460a085015260ff600482015416151560c0850152015491015215612b375762093a80420190814211610dbb5751111590565b50600090565b80518210156115545760209160051b010190565b91908203918211610dbb57565b15612b6557565b60405162461bcd60e51b815260206004820152600f60248201526e098cadccee8d040dad2e6dac2e8c6d608b1b6044820152606490fd5b91908110156115545760051b0190565b358060070b81036102775790565b3563ffffffff811681036102775790565b3360009081527fb16e88c42fd4e48df2dd6a2eabd6bc9aec654ec170056b470819f8892cc6431c602052604090205460ff1615612c0457565b63e2517d3f60e01b600052336004527fa49807205ce4d355092ef5a8a18f56e8913cf4a201fbe287825b095693c2177560245260446000fd5b3360009081527fa215ee09b727d164a869306c18db94514cc57296ef3c2cb8caf0606a1c60543d602052604090205460ff1615612c7657565b63e2517d3f60e01b600052336004527f80a586cc4ecf40a390b370be075aa38ab3cc512c5c1a7bc1007974dbdf2663c760245260446000fd5b60008181526000805160206137448339815191526020908152604080832033845290915290205460ff1615612ce15750565b63e2517d3f60e01b6000523360045260245260446000fd5b6001600160a01b03811660009081527fb7db2dd08fcb62d0c9e08c51941cae53c267786a0b75803fb7960902fc8ef97d602052604090205460ff16612b37576001600160a01b031660008181527fb7db2dd08fcb62d0c9e08c51941cae53c267786a0b75803fb7960902fc8ef97d60205260408120805460ff191660011790553391906000805160206136c48339815191528180a4600190565b6001600160a01b03811660009081527fb16e88c42fd4e48df2dd6a2eabd6bc9aec654ec170056b470819f8892cc6431c602052604090205460ff16612b37576001600160a01b031660008181527fb16e88c42fd4e48df2dd6a2eabd6bc9aec654ec170056b470819f8892cc6431c60205260408120805460ff191660011790553391907fa49807205ce4d355092ef5a8a18f56e8913cf4a201fbe287825b095693c21775906000805160206136c48339815191529080a4600190565b6001600160a01b03811660009081527fa215ee09b727d164a869306c18db94514cc57296ef3c2cb8caf0606a1c60543d602052604090205460ff16612b37576001600160a01b031660008181527fa215ee09b727d164a869306c18db94514cc57296ef3c2cb8caf0606a1c60543d60205260408120805460ff191660011790553391907f80a586cc4ecf40a390b370be075aa38ab3cc512c5c1a7bc1007974dbdf2663c7906000805160206136c48339815191529080a4600190565b6000818152600080516020613744833981519152602090815260408083206001600160a01b038616845290915290205460ff16612f9b576000818152600080516020613744833981519152602090815260408083206001600160a01b0395909516808452949091528120805460ff19166001179055339291906000805160206136c48339815191529080a4600190565b5050600090565b806000526000602052604060002090604051612fbd8161271a565b6001600160401b0383548060070b835263ffffffff8160401c16602084015260601c1690606060408201948386526001808060a01b0391015416910152156130b557600052603c60205260406000206040519061301982612750565b80549160ff831691600583101561075b57600560e09161308a958585528060081c60070b602086015260481c60070b60408501526001810154606085015263ffffffff6002820154166080850152600381015460a085015260ff600482015416151560c08501520154910152612842565b549081156130ab575b6001600160401b036130a791511642612b51565b1190565b610e109150613093565b5050600190565b6000818152600080516020613744833981519152602090815260408083206001600160a01b038616845290915290205460ff1615612f9b576000818152600080516020613744833981519152602090815260408083206001600160a01b0395909516808452949091528120805460ff19169055339291907ff6391f5c32d9c69d2a47ea670b442974b53935d1edc7fd64eb21e047a839171b9080a4600190565b60ff600080516020613764833981519152541661317557565b63d93c066560e01b60005260046000fd5b919060009060070b13156131f85763ffffffff6127109116116131be5760005260046020526131bc60ff604060002054166128c4565b565b60405162461bcd60e51b8152602060048201526012602482015271496e76616c696420636f6e666964656e636560701b6044820152606490fd5b60405162461bcd60e51b815260206004820152600d60248201526c496e76616c696420707269636560981b6044820152606490fd5b929083600052600460205261324960ff604060002054166128c4565b83600052600060205260406000209283546001600160401b038160601c16613545575b5083546bffffffffffffffffffffffff19166001600160401b03831617604082901b63ffffffff60401b16178455835467ffffffffffffffff60601b191642606081901b67ffffffffffffffff60601b169190911785556001600160401b03169360010180546001600160a01b0319166001600160a01b0385161790556000858152600160205260409020805490939060641115613437575b6040519261331284612735565b60070b94858452602084019481865263ffffffff604086019416908185528054600160401b81101561165a5761334d91600182018155612695565b96909661342157945186549551945163ffffffff60801b60809190911b166001600160a01b03199096166001600160401b039091161767ffffffffffffffff60401b60409590951b94909416939093179390931790935584927f140025e5991cada5fd98b64ba208388bbad47fa3b54b6520964052c554fe433892606092856000526002602052426040600020556040519687526020870152604086015260018060a01b031693a37f3cf0bf7708060bf073b6ddb921eef0485b3eb9da828e0ed751fa6582ef337f576020604051428152a2565b634e487b7160e01b600052600060045260246000fd5b94929593919060005b87546000198101908111610dbb578110156135035760018101808211610dbb5761346a9089612695565b5090613476818a612695565b92909261342157828160019403613490575b505001613440565b8154815467ffffffffffffffff1981166001600160401b039092169182178355835467ffffffffffffffff60401b166fffffffffffffffffffffffffffffffff198216831781178455935463ffffffff60801b166001600160a01b03199091169091179092179190911790553880613488565b509091939592948354801561352f57600019016135208186612695565b61342157600090558455613305565b634e487b7160e01b600052603160045260246000fd5b6135529060070b8361357f565b3861326c565b600791820b910b0390677fffffffffffffff198212677fffffffffffffff831317610dbb57565b8160070b90811561362f57826001600160401b03928260070b13600014613620576135a991613558565b16906127108202918083046127101490151715610dbb576001600160401b03168015612a7f576006549104116135db57565b60405162461bcd60e51b815260206004820152601860248201527f507269636520646576696174696f6e20746f6f206869676800000000000000006044820152606490fd5b9061362a91613558565b6135a9565b505050565b60ff6000805160206137848339815191525460401c161561365157565b631afcd79f60e31b60005260046000fd5b90613688575080511561367757602081519101fd5b63d6bda27560e01b60005260046000fd5b815115806136ba575b613699575090565b639996b31560e01b60009081526001600160a01b0391909116600452602490fd5b50803b1561369156fe2f8788117e7eff1d82e926ec794901d17c78024a50270940304540a733656f0d360894a13ba1a3210667c828492db98dca3e2076cc3735a920a3ca505d382bbcf3f7a9fe364faab93b216da50a3214154f22a0a2b415b23a84c8169e8b636ee36e1540171b6c0c960b71a7020d9f60077f6af931a8bbf590da0223dacf75c7af02dd7bc7dec4dceedda775e58dd541e08a116c6c53815c0bd028192f7b626800cd5ed15c6e187e77e9aee88184c21f4f2182ab5827cb3b7e07fbedcd63f03300f0c57e16840df040f15088dc2f81fe391c3923bec73e23a9662efc9c229c6a00a2646970667358221220fa9600f3975979a5b5824ff053a2c6fd26a2436ee1fc5d46380167ece9d2be5b64736f6c634300081b0033",
  "linkReferences": {},
  "deployedLinkReferences": {}
}