{
  "_format": "hh-sol-artifact-1",
  "contractName": "OracleRegistry",
  "sourceName": "contracts/oracles/OracleRegistry.sol",
  "abi": [
    {
      "inputs": [],
      "stateMutability": "nonpayable",
      "type": "constructor"
    },
    {
      "inputs": [],
      "name": "AccessControlBadConfirmation",
      "type": "error"
    },
    {
      "inputs": [
        {
          "internalType": "address",
          "name": "account",
          "type": "address"
        },
        {
          "internalType": "bytes32",
          "name": "neededRole",
          "type": "bytes32"
        }
      ],
      "name": "AccessControlUnauthorizedAccount",
      "type": "error"
    },
    {
      "inputs": [
        {
          "internalType": "address",
          "name": "target",
          "type": "address"
        }
      ],
      "name": "AddressEmptyCode",
      "type": "error"
    },
    {
      "inputs": [
        {
          "internalType": "address",
          "name": "implementation",
          "type": "address"
        }
      ],
      "name": "ERC1967InvalidImplementation",
      "type": "error"
    },
    {
      "inputs": [],
      "name": "ERC1967NonPayable",
      "type": "error"
    },
    {
      "inputs": [],
      "name": "FailedCall",
      "type": "error"
    },
    {
      "inputs": [],
      "name": "InvalidInitialization",
      "type": "error"
    },
    {
      "inputs": [],
      "name": "NotInitializing",
      "type": "error"
    },
    {
      "inputs": [],
      "name": "UUPSUnauthorizedCallContext",
      "type": "error"
    },
    {
      "inputs": [
        {
          "internalType": "bytes32",
          "name": "slot",
          "type": "bytes32"
        }
      ],
      "name": "UUPSUnsupportedProxiableUUID",
      "type": "error"
    },
    {
      "anonymous": false,
      "inputs": [
        {
          "indexed": false,
          "internalType": "uint256",
          "name": "timestamp",
          "type": "uint256"
        },
        {
          "indexed": false,
          "internalType": "uint256",
          "name": "healthyOracles",
          "type": "uint256"
        },
        {
          "indexed": false,
          "internalType": "uint256",
          "name": "totalOracles",
          "type": "uint256"
        }
      ],
      "name": "HealthCheckPerformed",
      "type": "event"
    },
    {
      "anonymous": false,
      "inputs": [
        {
          "indexed": false,
          "internalType": "uint64",
          "name": "version",
          "type": "uint64"
        }
      ],
      "name": "Initialized",
      "type": "event"
    },
    {
      "anonymous": false,
      "inputs": [
        {
          "indexed": true,
          "internalType": "enum OracleRegistry.AssetClass",
          "name": "assetClass",
          "type": "uint8"
        },
        {
          "indexed": false,
          "internalType": "address",
          "name": "oldOracle",
          "type": "address"
        },
        {
          "indexed": false,
          "internalType": "address",
          "name": "newOracle",
          "type": "address"
        }
      ],
      "name": "OracleUpdated",
      "type": "event"
    },
    {
      "anonymous": false,
      "inputs": [
        {
          "indexed": true,
          "internalType": "bytes32",
          "name": "role",
          "type": "bytes32"
        },
        {
          "indexed": true,
          "internalType": "bytes32",
          "name": "previousAdminRole",
          "type": "bytes32"
        },
        {
          "indexed": true,
          "internalType": "bytes32",
          "name": "newAdminRole",
          "type": "bytes32"
        }
      ],
      "name": "RoleAdminChanged",
      "type": "event"
    },
    {
      "anonymous": false,
      "inputs": [
        {
          "indexed": true,
          "internalType": "bytes32",
          "name": "role",
          "type": "bytes32"
        },
        {
          "indexed": true,
          "internalType": "address",
          "name": "account",
          "type": "address"
        },
        {
          "indexed": true,
          "internalType": "address",
          "name": "sender",
          "type": "address"
        }
      ],
      "name": "RoleGranted",
      "type": "event"
    },
    {
      "anonymous": false,
      "inputs": [
        {
          "indexed": true,
          "internalType": "bytes32",
          "name": "role",
          "type": "bytes32"
        },
        {
          "indexed": true,
          "internalType": "address",
          "name": "account",
          "type": "address"
        },
        {
          "indexed": true,
          "internalType": "address",
          "name": "sender",
          "type": "address"
        }
      ],
      "name": "RoleRevoked",
      "type": "event"
    },
    {
      "anonymous": false,
      "inputs": [
        {
          "indexed": true,
          "internalType": "bytes32",
          "name": "symbol",
          "type": "bytes32"
        },
        {
          "indexed": false,
          "internalType": "enum OracleRegistry.AssetClass",
          "name": "assetClass",
          "type": "uint8"
        }
      ],
      "name": "SymbolMapped",
      "type": "event"
    },
    {
      "anonymous": false,
      "inputs": [
        {
          "indexed": true,
          "internalType": "address",
          "name": "implementation",
          "type": "address"
        }
      ],
      "name": "Upgraded",
      "type": "event"
    },
    {
      "inputs": [],
      "name": "ADMIN_ROLE",
      "outputs": [
        {
          "internalType": "bytes32",
          "name": "",
          "type": "bytes32"
        }
      ],
      "stateMutability": "view",
      "type": "function"
    },
    {
      "inputs": [],
      "name": "DEFAULT_ADMIN_ROLE",
      "outputs": [
        {
          "internalType": "bytes32",
          "name": "",
          "type": "bytes32"
        }
      ],
      "stateMutability": "view",
      "type": "function"
    },
    {
      "inputs": [],
      "name": "UPGRADE_INTERFACE_VERSION",
      "outputs": [
        {
          "internalType": "string",
          "name": "",
          "type": "string"
        }
      ],
      "stateMutability": "view",
      "type": "function"
    },
    {
      "inputs": [
        {
          "internalType": "uint256",
          "name": "",
          "type": "uint256"
        }
      ],
      "name": "allSymbols",
      "outputs": [
        {
          "internalType": "bytes32",
          "name": "",
          "type": "bytes32"
        }
      ],
      "stateMutability": "view",
      "type": "function"
    },
    {
      "inputs": [],
      "name": "getAllSymbols",
      "outputs": [
        {
          "internalType": "bytes32[]",
          "name": "",
          "type": "bytes32[]"
        }
      ],
      "stateMutability": "view",
      "type": "function"
    },
    {
      "inputs": [
        {
          "internalType": "bytes32",
          "name": "symbol",
          "type": "bytes32"
        }
      ],
      "name": "getCryptoPrice",
      "outputs": [
        {
          "internalType": "int64",
          "name": "price",
          "type": "int64"
        },
        {
          "internalType": "uint32",
          "name": "confidence",
          "type": "uint32"
        },
        {
          "internalType": "uint256",
          "name": "timestamp",
          "type": "uint256"
        },
        {
          "internalType": "uint256",
          "name": "volatility",
          "type": "uint256"
        },
        {
          "internalType": "int64",
          "name": "high",
          "type": "int64"
        },
        {
          "internalType": "int64",
          "name": "low",
          "type": "int64"
        },
        {
          "internalType": "uint256",
          "name": "volume",
          "type": "uint256"
        }
      ],
      "stateMutability": "view",
      "type": "function"
    },
    {
      "inputs": [
        {
          "internalType": "bytes32",
          "name": "symbol",
          "type": "bytes32"
        }
      ],
      "name": "getForexPrice",
      "outputs": [
        {
          "internalType": "int64",
          "name": "bidPrice",
          "type": "int64"
        },
        {
          "internalType": "int64",
          "name": "askPrice",
          "type": "int64"
        },
        {
          "internalType": "int64",
          "name": "midPrice",
          "type": "int64"
        },
        {
          "internalType": "uint32",
          "name": "spread",
          "type": "uint32"
        },
        {
          "internalType": "uint256",
          "name": "liquidity",
          "type": "uint256"
        },
        {
          "internalType": "enum ForexPriceOracle.TradingSession",
          "name": "session",
          "type": "uint8"
        },
        {
          "internalType": "uint256",
          "name": "timestamp",
          "type": "uint256"
        }
      ],
      "stateMutability": "view",
      "type": "function"
    },
    {
      "inputs": [],
      "name": "getOracleAddresses",
      "outputs": [
        {
          "components": [
            {
              "internalType": "address",
              "name": "cryptoOracle",
              "type": "address"
            },
            {
              "internalType": "address",
              "name": "stockOracle",
              "type": "address"
            },
            {
              "internalType": "address",
              "name": "forexOracle",
              "type": "address"
            },
            {
              "internalType": "address",
              "name": "commodityOracle",
              "type": "address"
            },
            {
              "internalType": "address",
              "name": "indexOracle",
              "type": "address"
            }
          ],
          "internalType": "struct OracleRegistry.OracleAddresses",
          "name": "",
          "type": "tuple"
        }
      ],
      "stateMutability": "view",
      "type": "function"
    },
    {
      "inputs": [],
      "name": "getOracleHealth",
      "outputs": [
        {
          "components": [
            {
              "internalType": "enum OracleRegistry.AssetClass",
              "name": "assetClass",
              "type": "uint8"
            },
            {
              "internalType": "address",
              "name": "oracleAddress",
              "type": "address"
            },
            {
              "internalType": "bool",
              "name": "isActive",
              "type": "bool"
            },
            {
              "internalType": "uint256",
              "name": "lastUpdate",
              "type": "uint256"
            },
            {
              "internalType": "uint256",
              "name": "symbolCount",
              "type": "uint256"
            }
          ],
          "internalType": "struct OracleRegistry.OracleHealth[]",
          "name": "healthReports",
          "type": "tuple[]"
        }
      ],
      "stateMutability": "view",
      "type": "function"
    },
    {
      "inputs": [
        {
          "internalType": "bytes32",
          "name": "symbol",
          "type": "bytes32"
        }
      ],
      "name": "getPrice",
      "outputs": [
        {
          "internalType": "int64",
          "name": "price",
          "type": "int64"
        },
        {
          "internalType": "uint256",
          "name": "timestamp",
          "type": "uint256"
        }
      ],
      "stateMutability": "view",
      "type": "function"
    },
    {
      "inputs": [
        {
          "internalType": "bytes32[]",
          "name": "symbols",
          "type": "bytes32[]"
        }
      ],
      "name": "getPriceBatch",
      "outputs": [
        {
          "components": [
            {
              "internalType": "bytes32",
              "name": "symbol",
              "type": "bytes32"
            },
            {
              "internalType": "int64",
              "name": "price",
              "type": "int64"
            },
            {
              "internalType": "uint256",
              "name": "timestamp",
              "type": "uint256"
            },
            {
              "internalType": "uint32",
              "name": "confidence",
              "type": "uint32"
            },
            {
              "internalType": "enum OracleRegistry.AssetClass",
              "name": "assetClass",
              "type": "uint8"
            },
            {
              "internalType": "bool",
              "name": "isValid",
              "type": "bool"
            }
          ],
          "internalType": "struct OracleRegistry.PriceQuote[]",
          "name": "quotes",
          "type": "tuple[]"
        }
      ],
      "stateMutability": "view",
      "type": "function"
    },
    {
      "inputs": [
        {
          "internalType": "bytes32",
          "name": "symbol",
          "type": "bytes32"
        }
      ],
      "name": "getPriceQuote",
      "outputs": [
        {
          "components": [
            {
              "internalType": "bytes32",
              "name": "symbol",
              "type": "bytes32"
            },
            {
              "internalType": "int64",
              "name": "price",
              "type": "int64"
            },
            {
              "internalType": "uint256",
              "name": "timestamp",
              "type": "uint256"
            },
            {
              "internalType": "uint32",
              "name": "confidence",
              "type": "uint32"
            },
            {
              "internalType": "enum OracleRegistry.AssetClass",
              "name": "assetClass",
              "type": "uint8"
            },
            {
              "internalType": "bool",
              "name": "isValid",
              "type": "bool"
            }
          ],
          "internalType": "struct OracleRegistry.PriceQuote",
          "name": "quote",
          "type": "tuple"
        }
      ],
      "stateMutability": "view",
      "type": "function"
    },
    {
      "inputs": [
        {
          "internalType": "bytes32",
          "name": "symbol",
          "type": "bytes32"
        }
      ],
      "name": "getPriceWithConfidence",
      "outputs": [
        {
          "internalType": "int64",
          "name": "price",
          "type": "int64"
        },
        {
          "internalType": "uint32",
          "name": "confidence",
          "type": "uint32"
        },
        {
          "internalType": "uint256",
          "name": "timestamp",
          "type": "uint256"
        }
      ],
      "stateMutability": "view",
      "type": "function"
    },
    {
      "inputs": [
        {
          "internalType": "enum OracleRegistry.AssetClass",
          "name": "assetClass",
          "type": "uint8"
        }
      ],
      "name": "getPricesByAssetClass",
      "outputs": [
        {
          "components": [
            {
              "internalType": "bytes32",
              "name": "symbol",
              "type": "bytes32"
            },
            {
              "internalType": "int64",
              "name": "price",
              "type": "int64"
            },
            {
              "internalType": "uint256",
              "name": "timestamp",
              "type": "uint256"
            },
            {
              "internalType": "uint32",
              "name": "confidence",
              "type": "uint32"
            },
            {
              "internalType": "enum OracleRegistry.AssetClass",
              "name": "assetClass",
              "type": "uint8"
            },
            {
              "internalType": "bool",
              "name": "isValid",
              "type": "bool"
            }
          ],
          "internalType": "struct OracleRegistry.PriceQuote[]",
          "name": "quotes",
          "type": "tuple[]"
        }
      ],
      "stateMutability": "view",
      "type": "function"
    },
    {
      "inputs": [
        {
          "internalType": "bytes32",
          "name": "role",
          "type": "bytes32"
        }
      ],
      "name": "getRoleAdmin",
      "outputs": [
        {
          "internalType": "bytes32",
          "name": "",
          "type": "bytes32"
        }
      ],
      "stateMutability": "view",
      "type": "function"
    },
    {
      "inputs": [
        {
          "internalType": "bytes32",
          "name": "symbol",
          "type": "bytes32"
        }
      ],
      "name": "getStockPrice",
      "outputs": [
        {
          "internalType": "int64",
          "name": "currentPrice",
          "type": "int64"
        },
        {
          "internalType": "int64",
          "name": "openPrice",
          "type": "int64"
        },
        {
          "internalType": "int64",
          "name": "closePrice",
          "type": "int64"
        },
        {
          "internalType": "int64",
          "name": "dayHigh",
          "type": "int64"
        },
        {
          "internalType": "int64",
          "name": "dayLow",
          "type": "int64"
        },
        {
          "internalType": "uint256",
          "name": "volume",
          "type": "uint256"
        },
        {
          "internalType": "bool",
          "name": "isHalted",
          "type": "bool"
        },
        {
          "internalType": "uint256",
          "name": "timestamp",
          "type": "uint256"
        }
      ],
      "stateMutability": "view",
      "type": "function"
    },
    {
      "inputs": [
        {
          "internalType": "bytes32",
          "name": "role",
          "type": "bytes32"
        },
        {
          "internalType": "address",
          "name": "account",
          "type": "address"
        }
      ],
      "name": "grantRole",
      "outputs": [],
      "stateMutability": "nonpayable",
      "type": "function"
    },
    {
      "inputs": [
        {
          "internalType": "bytes32",
          "name": "role",
          "type": "bytes32"
        },
        {
          "internalType": "address",
          "name": "account",
          "type": "address"
        }
      ],
      "name": "hasRole",
      "outputs": [
        {
          "internalType": "bool",
          "name": "",
          "type": "bool"
        }
      ],
      "stateMutability": "view",
      "type": "function"
    },
    {
      "inputs": [
        {
          "internalType": "address",
          "name": "_admin",
          "type": "address"
        },
        {
          "internalType": "address",
          "name": "_cryptoOracle",
          "type": "address"
        },
        {
          "internalType": "address",
          "name": "_stockOracle",
          "type": "address"
        },
        {
          "internalType": "address",
          "name": "_forexOracle",
          "type": "address"
        },
        {
          "internalType": "address",
          "name": "_commodityOracle",
          "type": "address"
        },
        {
          "internalType": "address",
          "name": "_indexOracle",
          "type": "address"
        }
      ],
      "name": "initialize",
      "outputs": [],
      "stateMutability": "nonpayable",
      "type": "function"
    },
    {
      "inputs": [
        {
          "internalType": "bytes32",
          "name": "symbol",
          "type": "bytes32"
        }
      ],
      "name": "isStale",
      "outputs": [
        {
          "internalType": "bool",
          "name": "",
          "type": "bool"
        }
      ],
      "stateMutability": "view",
      "type": "function"
    },
    {
      "inputs": [
        {
          "internalType": "bytes32",
          "name": "symbol",
          "type": "bytes32"
        },
        {
          "internalType": "enum OracleRegistry.AssetClass",
          "name": "assetClass",
          "type": "uint8"
        }
      ],
      "name": "mapSymbol",
      "outputs": [],
      "stateMutability": "nonpayable",
      "type": "function"
    },
    {
      "inputs": [],
      "name": "oracles",
      "outputs": [
        {
          "internalType": "address",
          "name": "cryptoOracle",
          "type": "address"
        },
        {
          "internalType": "address",
          "name": "stockOracle",
          "type": "address"
        },
        {
          "internalType": "address",
          "name": "forexOracle",
          "type": "address"
        },
        {
          "internalType": "address",
          "name": "commodityOracle",
          "type": "address"
        },
        {
          "internalType": "address",
          "name": "indexOracle",
          "type": "address"
        }
      ],
      "stateMutability": "view",
      "type": "function"
    },
    {
      "inputs": [],
      "name": "proxiableUUID",
      "outputs": [
        {
          "internalType": "bytes32",
          "name": "",
          "type": "bytes32"
        }
      ],
      "stateMutability": "view",
      "type": "function"
    },
    {
      "inputs": [
        {
          "internalType": "bytes32",
          "name": "role",
          "type": "bytes32"
        },
        {
          "internalType": "address",
          "name": "callerConfirmation",
          "type": "address"
        }
      ],
      "name": "renounceRole",
      "outputs": [],
      "stateMutability": "nonpayable",
      "type": "function"
    },
    {
      "inputs": [
        {
          "internalType": "bytes32",
          "name": "role",
          "type": "bytes32"
        },
        {
          "internalType": "address",
          "name": "account",
          "type": "address"
        }
      ],
      "name": "revokeRole",
      "outputs": [],
      "stateMutability": "nonpayable",
      "type": "function"
    },
    {
      "inputs": [
        {
          "internalType": "bytes4",
          "name": "interfaceId",
          "type": "bytes4"
        }
      ],
      "name": "supportsInterface",
      "outputs": [
        {
          "internalType": "bool",
          "name": "",
          "type": "bool"
        }
      ],
      "stateMutability": "view",
      "type": "function"
    },
    {
      "inputs": [
        {
          "internalType": "bytes32",
          "name": "",
          "type": "bytes32"
        }
      ],
      "name": "symbolToAssetClass",
      "outputs": [
        {
          "internalType": "enum OracleRegistry.AssetClass",
          "name": "",
          "type": "uint8"
        }
      ],
      "stateMutability": "view",
      "type": "function"
    },
    {
      "inputs": [
        {
          "internalType": "enum OracleRegistry.AssetClass",
          "name": "assetClass",
          "type": "uint8"
        },
        {
          "internalType": "address",
          "name": "newOracle",
          "type": "address"
        }
      ],
      "name": "updateOracle",
      "outputs": [],
      "stateMutability": "nonpayable",
      "type": "function"
    },
    {
      "inputs": [
        {
          "internalType": "address",
          "name": "newImplementation",
          "type": "address"
        },
        {
          "internalType": "bytes",
          "name": "data",
          "type": "bytes"
        }
      ],
      "name": "upgradeToAndCall",
      "outputs": [],
      "stateMutability": "payable",
      "type": "function"
    }
  ],
  "bytecode": "0x60a080604052346100ea57306080527ff0c57e16840df040f15088dc2f81fe391c3923bec73e23a9662efc9c229c6a005460ff8160401c166100d9576002600160401b03196001600160401b03821601610073575b60405161314990816100f082396080518181816118fc0152611af70152f35b6001600160401b0319166001600160401b039081177ff0c57e16840df040f15088dc2f81fe391c3923bec73e23a9662efc9c229c6a005581527fc7f505b2f371ae2175ee4913f4499e1f2633a7b5936321eed1cdaeb6115181d290602090a13880610054565b63f92ee8a960e01b60005260046000fd5b600080fdfe608080604052600436101561001357600080fd5b60003560e01c90816301ffc9a7146127aa57508063248a9ca3146127845780632857373a1461272d5780632f2ff15d146126fc57806331d98b3f1461266757806336568abe146126215780633b24d5841461256f57806344f428fa14611e8957806345e2a7b314611cfb5780634f1ef28614611a7a5780634f936dc91461195357806352d1902d146118e95780637330aba21461185057806375b238fc146118155780637aa6aea41461175b57806391d1485414611701578063948fee4c1461158a578063a217fddf1461156e578063ad3cb1cc146114f2578063af5df89614611433578063b5ad917e146112bc578063b851f0ae14611284578063c874217014611174578063cc2a9a5b1461057d578063d547741f14610545578063dc087645146103ec578063e35804f214610344578063ec80a6261461030e5763f6734c4a1461015e57600080fd5b346103095760203660031901126103095760043580600052600560205260ff60406000205416600581101561021e576002036102d157600254604051637b39a62560e11b8152600481019290925260e090829060249082906001600160a01b03165afa80156102c55760009081828390849285968695610234575b509063ffffffff92916040519660070b875260070b602087015260070b60408601521660608401526080830152600483101561021e5760e09260a083015260c0820152f35b634e487b7160e01b600052602160045260246000fd5b9650505050505060e0823d60e0116102bd575b8161025460e0938361286e565b810103126102ba576102658261298c565b916102726020820161298c565b9161027f6040830161298c565b9161028c60608201612a99565b60808201519160a08101519360048510156102ba575060c001519295949293919290919063ffffffff6101d9565b80fd5b3d9150610247565b6040513d6000823e3d90fd5b60405162461bcd60e51b815260206004820152601060248201526f139bdd08199bdc995e081cde5b589bdb60821b6044820152606490fd5b600080fd5b34610309576020366003190112610309576004356000526005602052602060ff604060002054166103426040518092612829565bf35b3461030957602036600319011261030957600435806000526005602052602060018060a01b0361037b60ff60406000205416612ea2565b16916024604051809481936371ac027960e11b835260048301525afa80156102c5576000906103b2575b6020906040519015158152f35b506020813d6020116103e4575b816103cc6020938361286e565b81010312610309576103df602091612a5b565b6103a5565b3d91506103bf565b34610309576040366003190112610309576004356005811015610309576104116127fd565b610419612bbd565b6001600160a01b031680156105115761043182612ea2565b9060008361048e57600080546001600160a01b031916831790555b61021e57604080516001600160a01b03909316835260208301919091527f52039453c658466dc893802e120914b065e9545ac03ec34896287b1e4f31232c91a2005b600184036104ae57600180546001600160a01b031916831790555b61044c565b506000600284036104d057600280546001600160a01b0319168317905561044c565b600384036104ef57600380546001600160a01b0319168317905561044c565b506000600484036104a957600480546001600160a01b0319168317905561044c565b60405162461bcd60e51b815260206004820152600c60248201526b5a65726f206164647265737360a01b6044820152606490fd5b346103095760403660031901126103095761057b6004356105646127fd565b906105766105718261296b565b612c2f565b612f64565b005b346103095760c036600319011261030957610596612813565b61059e6127fd565b6044356001600160a01b03811690819003610309576064356001600160a01b03811690819003610309576084356001600160a01b03811692908390036103095760a4356001600160a01b0381169490859003610309576000805160206130d48339815191525460ff8160401c16159667ffffffffffffffff82168015908161116c575b6001149081611162575b159081611159575b506111485767ffffffffffffffff1982166001176000805160206130d483398151915255610681918861111b575b5061066a613004565b610672613004565b61067b81612c79565b50612d2b565b5060018060a01b03166001600160601b0360a01b60005416176000556001600160601b0360a01b60015416176001556001600160601b0360a01b60025416176002556001600160601b0360a01b60035416176003556001600160601b0360a01b60045416176004557fee62665949c883f9e0f6f002eac32e00bd59dfe6c34e92a91c37d6a8322d64896000526005602052604060002060ff198154169055600654600160401b8110156111055780600161073e920160065561293a565b815460001960039290921b91821b19167fee62665949c883f9e0f6f002eac32e00bd59dfe6c34e92a91c37d6a8322d648990911b1790556040516000805160206130f483398151915260208260007fee62665949c883f9e0f6f002eac32e00bd59dfe6c34e92a91c37d6a8322d64899452a27f0b43555ace6b39aae1b894097d0a9fc17f504c62fea598fa206cc6f5088e6e4560005260056020527f8f20d6d6658d31431149d73ccee372aebd1f079c6935c189a9fd94012eb8a73b805460ff19169055600654600160401b81101561110557806001610821920160065561293a565b815460001960039290921b91821b19167f0b43555ace6b39aae1b894097d0a9fc17f504c62fea598fa206cc6f5088e6e4590911b1790556040516000805160206130f483398151915260208260007f0b43555ace6b39aae1b894097d0a9fc17f504c62fea598fa206cc6f5088e6e459452a27f2b1b43ec7f6691d6bf679978bab5c093fa45ee74c0baac6cc75649dc59cc21d360005260056020527fb783b9fefde0d4f1f6b858abf64e79812399ae088b4177adde1394e8eb0ff497805460ff19169055600654600160401b81101561110557806001610904920160065561293a565b815460001960039290921b91821b19167f2b1b43ec7f6691d6bf679978bab5c093fa45ee74c0baac6cc75649dc59cc21d390911b1790556040516000805160206130f483398151915260208260007f2b1b43ec7f6691d6bf679978bab5c093fa45ee74c0baac6cc75649dc59cc21d39452a27f057702f36a95d62dffc7f6a121ad53458ce83b25464c9846baa841808fee4f2f60005260056020527f3e57cdb3e9c125156651e0baf2ed302acffafefdc3167d60b653f4142694801e805460ff19166001179055600654600160401b811015611105578060016109ea920160065561293a565b815460001960039290921b91821b19167f057702f36a95d62dffc7f6a121ad53458ce83b25464c9846baa841808fee4f2f90911b1790556040516000805160206130f483398151915260208260017f057702f36a95d62dffc7f6a121ad53458ce83b25464c9846baa841808fee4f2f9452a27f13ec3ae6d9a65df1ae5953598775a86c251d530770729433b0e40d1f2141afd660005260056020527f6d68a4b5dd629047706669fe25fed354265dd379aa234079a3fa4e45ad4d939a805460ff19166001179055600654600160401b81101561110557806001610ad0920160065561293a565b815460001960039290921b91821b19167f13ec3ae6d9a65df1ae5953598775a86c251d530770729433b0e40d1f2141afd690911b1790556040516000805160206130f483398151915260208260017f13ec3ae6d9a65df1ae5953598775a86c251d530770729433b0e40d1f2141afd69452a27fa9226449042e36bf6865099eec57482aa55e3ad026c315a0e4a692b776c318ca60005260056020527fdbdc8c6ceb0e53bad9f4b8c519566fea851496596a65f33952a7f85175d45bec805460ff19166002179055600654600160401b81101561110557806001610bb6920160065561293a565b815460001960039290921b91821b19167fa9226449042e36bf6865099eec57482aa55e3ad026c315a0e4a692b776c318ca90911b1790556040516000805160206130f483398151915260208260027fa9226449042e36bf6865099eec57482aa55e3ad026c315a0e4a692b776c318ca9452a27ffd121bde813a3463e16ad2a4ea4103a6a122fbe2cdb07a80d4d293be07bb29fa60005260056020527f870a9a6e0ae72a7d07497771abbc61f745ca3d12b8a6697c49c61f757ad6638c805460ff19166002179055600654600160401b81101561110557806001610c9c920160065561293a565b815460001960039290921b91821b19167ffd121bde813a3463e16ad2a4ea4103a6a122fbe2cdb07a80d4d293be07bb29fa90911b1790556040516000805160206130f483398151915260208260027ffd121bde813a3463e16ad2a4ea4103a6a122fbe2cdb07a80d4d293be07bb29fa9452a27f85de9facb9f703cb8b77bca3163eb0ad1780f77bf724319b6e5c67b12837e08660005260056020527f14bb368b7b0511a664139199c996ca81b4583e645c40549e2bd4fb662dc4ecf1805460ff19166003179055600654600160401b81101561110557806001610d82920160065561293a565b815460001960039290921b91821b19167f85de9facb9f703cb8b77bca3163eb0ad1780f77bf724319b6e5c67b12837e08690911b1790556040516000805160206130f483398151915260208260037f85de9facb9f703cb8b77bca3163eb0ad1780f77bf724319b6e5c67b12837e0869452a27fa92cf0172c07516c68de578cb9ba9b13e900187ce05f46c6652f80afc581145360005260056020527f6e82a83ac84f985ec87c2c42d3bf31a092d8f1dc552eb5087f7d608cac6ec20c805460ff19166003179055600654600160401b81101561110557806001610e68920160065561293a565b815460001960039290921b91821b19167fa92cf0172c07516c68de578cb9ba9b13e900187ce05f46c6652f80afc581145390911b1790556040516000805160206130f483398151915260208260037fa92cf0172c07516c68de578cb9ba9b13e900187ce05f46c6652f80afc58114539452a27f8025449cd1fee8038b141b7d3b4e33a30b4ca26af38c946fae3058537f03821c60005260056020527f316a39642ce8cc1f584e81d3a58c0f1ed0011ac89c0ca4bff7354fe73c3b2221805460ff19166004179055600654600160401b81101561110557806001610f4e920160065561293a565b815460001960039290921b91821b19167f8025449cd1fee8038b141b7d3b4e33a30b4ca26af38c946fae3058537f03821c90911b1790556040516000805160206130f483398151915260208260047f8025449cd1fee8038b141b7d3b4e33a30b4ca26af38c946fae3058537f03821c9452a27f96606b3d0a6e7d2a9f29ea95f4c6f569e64ca84fa39df60acb2d5a463383226760005260056020527f949d65c174238d812de1fd10a6adc7835339c6c2c474698bd0ee7879609cde71805460ff19166004179055600654600160401b81101561110557806001611034920160065561293a565b815460001960039290921b91821b19167f96606b3d0a6e7d2a9f29ea95f4c6f569e64ca84fa39df60acb2d5a463383226790911b1790556040516000805160206130f483398151915260208260047f96606b3d0a6e7d2a9f29ea95f4c6f569e64ca84fa39df60acb2d5a46338322679452a26110ac57005b68ff0000000000000000196000805160206130d483398151915254166000805160206130d4833981519152557fc7f505b2f371ae2175ee4913f4499e1f2633a7b5936321eed1cdaeb6115181d2602060405160018152a1005b634e487b7160e01b600052604160045260246000fd5b68ffffffffffffffffff191668010000000000000001176000805160206130d48339815191525588610661565b63f92ee8a960e01b60005260046000fd5b90501589610633565b303b15915061062b565b899150610621565b346103095760203660031901126103095760043567ffffffffffffffff8111610309573660238201121561030957806004013567ffffffffffffffff8111610309573660248260051b8401011161030957906111cf82612afe565b916000925b8184101561127057600093604051634f936dc960e01b815260248260051b86010135600482015260c081602481305afa9081156112655760019394959691611237575b506112228285612a47565b5261122d8184612a47565b50019291906111d4565b611258915060c03d811161125e575b611250818361286e565b810190612b4e565b86611217565b503d611246565b6040513d88823e3d90fd5b61128090604051918291826128f6565b0390f35b3461030957602036600319011261030957600435600654811015610309576112ad60209161293a565b90549060031b1c604051908152f35b346103095760203660031901126103095760043580600052600560205260ff60406000205416600581101561021e576113fa57600054604051635ad6c8bf60e11b8152600481019290925260e090829060249082906001600160a01b03165afa80156102c5576000908192828384918593869561136d575b5063ffffffff60e0976040519760070b88521660208701526040860152606085015260070b608084015260070b60a083015260c0820152f35b959650505050505060e0813d60e0116113f2575b8161138e60e0938361286e565b810103126113ee5760e091506113a38161298c565b906113b060208201612a99565b9160408201519160608101516113c86080830161298c565b9063ffffffff60c06113dc60a0860161298c565b94015194969591929394959750611334565b5080fd5b3d9150611381565b60405162461bcd60e51b8152602060048201526011602482015270139bdd0818dc9e5c1d1bc81cde5b589bdb607a1b6044820152606490fd5b3461030957602036600319011261030957600435806000526005602052606060018060a01b0361146a60ff60406000205416612ea2565b16916024604051809481936357aefc4b60e11b835260048301525afa9081156102c5576060916000916000906000926114bb575b5063ffffffff906040519360070b84521660208301526040820152f35b905063ffffffff92506114e49150833d85116114eb575b6114dc818361286e565b810190612aaa565b919261149e565b503d6114d2565b34610309576000366003190112610309576040805190611512818361286e565b60058252640352e302e360dc1b6020830152805180926020825280519081602084015260005b8281106115575750506000828201840152601f01601f19168101030190f35b602082820181015187830187015286945001611538565b3461030957600036600319011261030957602060405160008152f35b346103095760203660031901126103095760043560058110158061030957600654906000805b8381106116ae57506115c190612afe565b9260009160005b8481106115dd576040518061128088826128f6565b6115e68161293a565b90549060031b1c60005260056020528160ff604060002054169061021e57600581101561021e57831461161c575b6001016115c8565b6116258161293a565b9054604051634f936dc960e01b815260039290921b1c60048201529360c085602481305afa9485156102c557600095611685575b509061167d8261166b60019491612ad9565b96611676828b612a47565b5288612a47565b509050611614565b6001929195506116a561167d9160c03d811161125e57611250818361286e565b95919250611659565b6116b78161293a565b90549060031b1c60005260056020528260ff604060002054169061021e57600581101561021e5785146116ed575b6001016115b0565b906116f9600191612ad9565b9190506116e5565b346103095760403660031901126103095761171a6127fd565b6004356000526000805160206130b483398151915260205260406000209060018060a01b0316600052602052602060ff604060002054166040519015158152f35b34610309576000366003190112610309576040518060206006549283815201809260066000527ff652222313e28459528d920b65115c16c04f3efc82aaedc97be59f3f377c0d3f9060005b8181106117ff57505050816117bc91038261286e565b6040519182916020830190602084525180915260408301919060005b8181106117e6575050500390f35b82518452859450602093840193909201916001016117d8565b82548452602090930192600192830192016117a6565b346103095760003660031901126103095760206040517fa49807205ce4d355092ef5a8a18f56e8913cf4a201fbe287825b095693c217758152f35b34610309576000366003190112610309576118696129cf565b5060a060405161187881612852565b600054600180841b60001901918216808452905482166020808501918252600254841660408087019182526003548616606080890191825260045488166080998a01908152835197885295518816948701949094529151861690850152518416908301525190911691810191909152f35b34610309576000366003190112610309577f00000000000000000000000000000000000000000000000000000000000000006001600160a01b031630036119425760206040516000805160206130948339815191528152f35b63703e46dd60e11b60005260046000fd5b346103095760203660031901126103095760c0600435611971612a68565b5060008181526005602052604090205460249060ff1660606001600160a01b0361199a83612ea2565b16604051938480926357aefc4b60e11b82528760048301525afa600081600094600093611a52575b50611a105750506119fb9150604051926119db84612836565b835260006020840152600060408401526000606084015260808301612acd565b600060a08201525b61034260405180926128ac565b9263ffffffff91611a469460405196611a2888612836565b875260070b6020870152604086015216606084015260808301612acd565b600160a0820152611a03565b91509350611a6f915060603d6060116114eb576114dc818361286e565b9391909391876119c2565b604036600319011261030957611a8e612813565b6024359067ffffffffffffffff8211610309573660238301121561030957816004013590611abb82612890565b91611ac9604051938461286e565b8083526020830193366024838301011161030957816000926024602093018737840101526001600160a01b037f000000000000000000000000000000000000000000000000000000000000000016308114908115611cd8575b5061194257611b2f612bbd565b6001600160a01b038116928315611c9d576040516352d1902d60e01b8152602081600481885afa60009181611c69575b50611b795784634c9c8ce360e01b60005260045260246000fd5b80600080516020613094833981519152869203611c555750823b15611c415760008051602061309483398151915280546001600160a01b031916821790557fbc7cd75a20ee27fd9adebab32041f755214dbc6bffa90cc0225b39da2e5c2d3b600080a2825115611c26576000809161057b945190845af43d15611c1e573d91611c0183612890565b92611c0f604051948561286e565b83523d6000602085013e613032565b606091613032565b50505034611c3057005b63b398979f60e01b60005260046000fd5b634c9c8ce360e01b60005260045260246000fd5b632a87526960e21b60005260045260246000fd5b9091506020813d602011611c95575b81611c856020938361286e565b8101031261030957519086611b5f565b3d9150611c78565b60405162461bcd60e51b81526020600482015260136024820152722d32b9379034b6b83632b6b2b73a30ba34b7b760691b6044820152606490fd5b600080516020613094833981519152546001600160a01b03161415905084611b22565b346103095760203660031901126103095760043580600052600560205260ff60406000205416600581101561021e57600103611e51576001546040516345e2a7b360e01b8152600481019290925261010090829060249082906001600160a01b03165afa80156102c5576000908182838490859286948796611db9575b61010098506040519760070b885260070b602088015260070b604087015260070b606086015260070b608085015260a0840152151560c083015260e0820152f35b5050505050505090610100813d8211611e49575b81611ddb610100938361286e565b810103126113ee576101009150611df18161298c565b90611dfe6020820161298c565b91611e0b6040830161298c565b91611e186060820161298c565b611e246080830161298c565b60a08301519160e0611e3860c08601612a5b565b940151949695909192939495611d78565b3d9150611dcd565b60405162461bcd60e51b815260206004820152601060248201526f139bdd081cdd1bd8dac81cde5b589bdb60821b6044820152606490fd5b3461030957600036600319011261030957604051611ea860c08261286e565b6005815260005b60a0811061255857506000611ec26129cf565b50611ecc81612ea2565b60065482918291825b81811061249857505060018060a01b031660405193611ef385612852565b60058110156121585784528060208501521515604084015260608301526080820152611f1e826129fa565b52611f28816129fa565b506000611f336129cf565b50611f3e6001612ea2565b60065482918291825b8181106123d657505060018060a01b031660405193611f6585612852565b50600184528060208501521515604084015260608301526080820152611f8a82612a07565b52611f9481612a07565b506000611f9f6129cf565b50611faa6002612ea2565b60065482918291825b81811061231457505060018060a01b031660405193611fd185612852565b50600284528060208501521515604084015260608301526080820152611ff682612a17565b5261200081612a17565b50600061200b6129cf565b506120166003612ea2565b60065482918291825b81811061225257505060018060a01b03166040519361203d85612852565b5060038452806020850152151560408401526060830152608082015261206282612a27565b5261206c81612a27565b5060006120776129cf565b506120826004612ea2565b60065482918291825b81811061216c57505060018060a01b0316604051936120a985612852565b506004845280602085015215156040840152606083015260808201526120ce82612a37565b526120d881612a37565b5060405180916020820160208352815180915260206040840192019060005b818110612105575050500390f35b91935091602060a06001926080875161211f838251612829565b8580851b0385820151168584015260408101511515604084015260608101516060840152015160808201520194019101918493926120f7565b634e487b7160e01b81526021600452602490fd5b6121758161293a565b90549060031b1c8652600560205260ff604087205416600581101561223e576004146121a4575b60010161208b565b936121ae90612ad9565b936121b88161293a565b9054604080516331d98b3f60e01b815260039390931b9190911c6004830152816024816001600160a01b0388165afa87918161220c575b506121fb575b5061219c565b848111156121f557935060016121f5565b61222e91925060403d8111612237575b612226818361286e565b81019061299a565b905090896121ef565b503d61221c565b634e487b7160e01b87526021600452602487fd5b61225b8161293a565b90549060031b1c8652600560205260ff604087205416600581101561223e5760031461228a575b60010161201f565b9361229490612ad9565b9361229e8161293a565b9054604080516331d98b3f60e01b815260039390931b9190911c6004830152816024816001600160a01b0388165afa8791816122f2575b506122e1575b50612282565b848111156122db57935060016122db565b61230b91925060403d811161223757612226818361286e565b905090896122d5565b61231d8161293a565b90549060031b1c8652600560205260ff604087205416600581101561223e5760021461234c575b600101611fb3565b9361235690612ad9565b936123608161293a565b9054604080516331d98b3f60e01b815260039390931b9190911c6004830152816024816001600160a01b0388165afa8791816123b4575b506123a3575b50612344565b8481111561239d579350600161239d565b6123cd91925060403d811161223757612226818361286e565b90509089612397565b6123df8161293a565b90549060031b1c8652600560205260ff604087205416600581101561223e5760011461240e575b600101611f47565b9361241890612ad9565b936124228161293a565b9054604080516331d98b3f60e01b815260039390931b9190911c6004830152816024816001600160a01b0388165afa879181612476575b50612465575b50612406565b8481111561245f579350600161245f565b61248f91925060403d811161223757612226818361286e565b90509089612459565b6124a18161293a565b90549060031b1c8652600560205260ff604087205416600581101561223e57156124ce575b600101611ed5565b936124d890612ad9565b936124e28161293a565b9054604080516331d98b3f60e01b815260039390931b9190911c6004830152816024816001600160a01b0388165afa879181612536575b50612525575b506124c6565b8481111561251f579350600161251f565b61254f91925060403d811161223757612226818361286e565b90509089612519565b6020906125636129cf565b82828501015201611eaf565b3461030957604036600319011261030957602435600435600582101561030957612597612bbd565b80600052600560205260406000209160009260ff1981541660ff8316179055600654600160401b81101561260d576000805160206130f4833981519152916125e78260016020940160065561293a565b81549060031b9086821b91600019901b19161790556126096040518092612829565ba280f35b634e487b7160e01b84526041600452602484fd5b346103095760403660031901126103095761263a6127fd565b336001600160a01b038216036126565761057b90600435612f64565b63334bd91960e11b60005260046000fd5b3461030957602036600319011261030957600435806000526005602052604060018060a01b0361269d60ff836000205416612ea2565b169160248251809481936331d98b3f60e01b835260048301525afa9081156102c5576040916000916000916126dd575b5082519160070b82526020820152f35b90506126f69150823d841161223757612226818361286e565b836126cd565b346103095760403660031901126103095761057b60043561271b6127fd565b906127286105718261296b565b612df9565b3461030957600036600319011261030957600054600154600254600354600454604080516001600160a01b03968716815294861660208601529285169284019290925283166060830152909116608082015260a090f35b346103095760203660031901126103095760206127a260043561296b565b604051908152f35b34610309576020366003190112610309576004359063ffffffff60e01b821680920361030957602091637965db0b60e01b81149081156127ec575b5015158152f35b6301ffc9a760e01b149050836127e5565b602435906001600160a01b038216820361030957565b600435906001600160a01b038216820361030957565b90600582101561021e5752565b60c0810190811067ffffffffffffffff82111761110557604052565b60a0810190811067ffffffffffffffff82111761110557604052565b90601f8019910116810190811067ffffffffffffffff82111761110557604052565b67ffffffffffffffff811161110557601f01601f191660200190565b60a0809180518452602081015160070b60208501526040810151604085015263ffffffff60608201511660608501526128ed60808201516080860190612829565b01511515910152565b602060408183019282815284518094520192019060005b81811061291a5750505090565b909192602060c08261292f60019488516128ac565b01940192910161290d565b60065481101561295557600660005260206000200190600090565b634e487b7160e01b600052603260045260246000fd5b6000526000805160206130b483398151915260205260016040600020015490565b51908160070b820361030957565b91908260409103126103095760206129b18361298c565b92015190565b67ffffffffffffffff81116111055760051b60200190565b604051906129dc82612852565b60006080838281528260208201528260408201528260608201520152565b8051156129555760200190565b8051600110156129555760400190565b8051600210156129555760600190565b8051600310156129555760800190565b8051600410156129555760a00190565b80518210156129555760209160051b010190565b5190811515820361030957565b60405190612a7582612836565b600060a0838281528260208201528260408201528260608201528260808201520152565b519063ffffffff8216820361030957565b9081606091031261030957612abe8161298c565b9160406129b160208401612a99565b600582101561021e5752565b6000198114612ae85760010190565b634e487b7160e01b600052601160045260246000fd5b90612b08826129b7565b612b15604051918261286e565b8281528092612b26601f19916129b7565b019060005b828110612b3757505050565b602090612b42612a68565b82828501015201612b2b565b908160c09103126103095760405190612b6682612836565b80518252612b766020820161298c565b602083015260408101516040830152612b9160608201612a99565b606083015260808101516005811015610309576080830152612bb59060a001612a5b565b60a082015290565b3360009081527fb16e88c42fd4e48df2dd6a2eabd6bc9aec654ec170056b470819f8892cc6431c602052604090205460ff1615612bf657565b63e2517d3f60e01b600052336004527fa49807205ce4d355092ef5a8a18f56e8913cf4a201fbe287825b095693c2177560245260446000fd5b60008181526000805160206130b48339815191526020908152604080832033845290915290205460ff1615612c615750565b63e2517d3f60e01b6000523360045260245260446000fd5b6001600160a01b03811660009081527fb7db2dd08fcb62d0c9e08c51941cae53c267786a0b75803fb7960902fc8ef97d602052604090205460ff16612d25576001600160a01b031660008181527fb7db2dd08fcb62d0c9e08c51941cae53c267786a0b75803fb7960902fc8ef97d60205260408120805460ff191660011790553391907f2f8788117e7eff1d82e926ec794901d17c78024a50270940304540a733656f0d8180a4600190565b50600090565b6001600160a01b03811660009081527fb16e88c42fd4e48df2dd6a2eabd6bc9aec654ec170056b470819f8892cc6431c602052604090205460ff16612d25576001600160a01b031660008181527fb16e88c42fd4e48df2dd6a2eabd6bc9aec654ec170056b470819f8892cc6431c60205260408120805460ff191660011790553391907fa49807205ce4d355092ef5a8a18f56e8913cf4a201fbe287825b095693c21775907f2f8788117e7eff1d82e926ec794901d17c78024a50270940304540a733656f0d9080a4600190565b60008181526000805160206130b4833981519152602090815260408083206001600160a01b038616845290915290205460ff16612e9b5760008181526000805160206130b4833981519152602090815260408083206001600160a01b0395909516808452949091528120805460ff19166001179055339291907f2f8788117e7eff1d82e926ec794901d17c78024a50270940304540a733656f0d9080a4600190565b5050600090565b600581101561021e578015612f5457600060018214612f43575060028114612f335760009060038114612f22576004915014612f135760405162461bcd60e51b8152602060048201526013602482015272496e76616c696420617373657420636c61737360681b6044820152606490fd5b6004546001600160a01b031690565b50506003546001600160a01b031690565b506002546001600160a01b031690565b50506001546001600160a01b031690565b506000546001600160a01b031690565b60008181526000805160206130b4833981519152602090815260408083206001600160a01b038616845290915290205460ff1615612e9b5760008181526000805160206130b4833981519152602090815260408083206001600160a01b0395909516808452949091528120805460ff19169055339291907ff6391f5c32d9c69d2a47ea670b442974b53935d1edc7fd64eb21e047a839171b9080a4600190565b60ff6000805160206130d48339815191525460401c161561302157565b631afcd79f60e31b60005260046000fd5b90613058575080511561304757602081519101fd5b63d6bda27560e01b60005260046000fd5b8151158061308a575b613069575090565b639996b31560e01b60009081526001600160a01b0391909116600452602490fd5b50803b1561306156fe360894a13ba1a3210667c828492db98dca3e2076cc3735a920a3ca505d382bbc02dd7bc7dec4dceedda775e58dd541e08a116c6c53815c0bd028192f7b626800f0c57e16840df040f15088dc2f81fe391c3923bec73e23a9662efc9c229c6a002031a88acd00bfd504cc659ec2b33da922ace7b97d39a43fce65a19d170e5bb0a2646970667358221220ab05e03c3c5f7e5d1312a4ef5ef322cd161ff0d93ad4712eccefba59b4288a2a64736f6c634300081b0033",
  "linkReferences": {},
  "deployedLinkReferences": {}
}