{
  "_format": "hh-sol-artifact-1",
  "contractName": "StockPriceOracle",
  "sourceName": "contracts/oracles/StockPriceOracle.sol",
  "abi": [
    {
      "inputs": [],
      "stateMutability": "nonpayable",
      "type": "constructor"
    },
    {
      "inputs": [],
      "name": "AccessControlBadConfirmation",
      "type": "error"
    },
    {
      "inputs": [
        {
          "internalType": "address",
          "name": "account",
          "type": "address"
        },
        {
          "internalType": "bytes32",
          "name": "neededRole",
          "type": "bytes32"
        }
      ],
      "name": "AccessControlUnauthorizedAccount",
      "type": "error"
    },
    {
      "inputs": [
        {
          "internalType": "address",
          "name": "target",
          "type": "address"
        }
      ],
      "name": "AddressEmptyCode",
      "type": "error"
    },
    {
      "inputs": [
        {
          "internalType": "address",
          "name": "implementation",
          "type": "address"
        }
      ],
      "name": "ERC1967InvalidImplementation",
      "type": "error"
    },
    {
      "inputs": [],
      "name": "ERC1967NonPayable",
      "type": "error"
    },
    {
      "inputs": [],
      "name": "EnforcedPause",
      "type": "error"
    },
    {
      "inputs": [],
      "name": "ExpectedPause",
      "type": "error"
    },
    {
      "inputs": [],
      "name": "FailedCall",
      "type": "error"
    },
    {
      "inputs": [],
      "name": "InvalidInitialization",
      "type": "error"
    },
    {
      "inputs": [],
      "name": "NotInitializing",
      "type": "error"
    },
    {
      "inputs": [],
      "name": "ReentrancyGuardReentrantCall",
      "type": "error"
    },
    {
      "inputs": [],
      "name": "UUPSUnauthorizedCallContext",
      "type": "error"
    },
    {
      "inputs": [
        {
          "internalType": "bytes32",
          "name": "slot",
          "type": "bytes32"
        }
      ],
      "name": "UUPSUnsupportedProxiableUUID",
      "type": "error"
    },
    {
      "anonymous": false,
      "inputs": [
        {
          "indexed": true,
          "internalType": "bytes32",
          "name": "symbol",
          "type": "bytes32"
        },
        {
          "indexed": false,
          "internalType": "int64",
          "name": "closePrice",
          "type": "int64"
        },
        {
          "indexed": false,
          "internalType": "uint256",
          "name": "volume",
          "type": "uint256"
        }
      ],
      "name": "DailyCloseRecorded",
      "type": "event"
    },
    {
      "anonymous": false,
      "inputs": [
        {
          "indexed": true,
          "internalType": "bytes32",
          "name": "symbol",
          "type": "bytes32"
        },
        {
          "indexed": false,
          "internalType": "int64",
          "name": "price",
          "type": "int64"
        },
        {
          "indexed": true,
          "internalType": "address",
          "name": "setter",
          "type": "address"
        }
      ],
      "name": "EmergencyPriceSet",
      "type": "event"
    },
    {
      "anonymous": false,
      "inputs": [
        {
          "indexed": true,
          "internalType": "bytes32",
          "name": "symbol",
          "type": "bytes32"
        },
        {
          "indexed": false,
          "internalType": "uint256",
          "name": "timestamp",
          "type": "uint256"
        }
      ],
      "name": "HeartbeatReceived",
      "type": "event"
    },
    {
      "anonymous": false,
      "inputs": [
        {
          "indexed": false,
          "internalType": "uint64",
          "name": "version",
          "type": "uint64"
        }
      ],
      "name": "Initialized",
      "type": "event"
    },
    {
      "anonymous": false,
      "inputs": [
        {
          "indexed": false,
          "internalType": "uint256",
          "name": "open",
          "type": "uint256"
        },
        {
          "indexed": false,
          "internalType": "uint256",
          "name": "close",
          "type": "uint256"
        }
      ],
      "name": "MarketHoursUpdated",
      "type": "event"
    },
    {
      "anonymous": false,
      "inputs": [
        {
          "indexed": false,
          "internalType": "uint256",
          "name": "oldDeviation",
          "type": "uint256"
        },
        {
          "indexed": false,
          "internalType": "uint256",
          "name": "newDeviation",
          "type": "uint256"
        }
      ],
      "name": "MaxDeviationUpdated",
      "type": "event"
    },
    {
      "anonymous": false,
      "inputs": [
        {
          "indexed": false,
          "internalType": "address",
          "name": "account",
          "type": "address"
        }
      ],
      "name": "Paused",
      "type": "event"
    },
    {
      "anonymous": false,
      "inputs": [
        {
          "indexed": true,
          "internalType": "bytes32",
          "name": "symbol",
          "type": "bytes32"
        },
        {
          "indexed": false,
          "internalType": "int64",
          "name": "price",
          "type": "int64"
        },
        {
          "indexed": false,
          "internalType": "uint32",
          "name": "confidence",
          "type": "uint32"
        },
        {
          "indexed": false,
          "internalType": "uint64",
          "name": "timestamp",
          "type": "uint64"
        },
        {
          "indexed": true,
          "internalType": "address",
          "name": "source",
          "type": "address"
        }
      ],
      "name": "PriceUpdated",
      "type": "event"
    },
    {
      "anonymous": false,
      "inputs": [
        {
          "indexed": true,
          "internalType": "bytes32",
          "name": "role",
          "type": "bytes32"
        },
        {
          "indexed": true,
          "internalType": "bytes32",
          "name": "previousAdminRole",
          "type": "bytes32"
        },
        {
          "indexed": true,
          "internalType": "bytes32",
          "name": "newAdminRole",
          "type": "bytes32"
        }
      ],
      "name": "RoleAdminChanged",
      "type": "event"
    },
    {
      "anonymous": false,
      "inputs": [
        {
          "indexed": true,
          "internalType": "bytes32",
          "name": "role",
          "type": "bytes32"
        },
        {
          "indexed": true,
          "internalType": "address",
          "name": "account",
          "type": "address"
        },
        {
          "indexed": true,
          "internalType": "address",
          "name": "sender",
          "type": "address"
        }
      ],
      "name": "RoleGranted",
      "type": "event"
    },
    {
      "anonymous": false,
      "inputs": [
        {
          "indexed": true,
          "internalType": "bytes32",
          "name": "role",
          "type": "bytes32"
        },
        {
          "indexed": true,
          "internalType": "address",
          "name": "account",
          "type": "address"
        },
        {
          "indexed": true,
          "internalType": "address",
          "name": "sender",
          "type": "address"
        }
      ],
      "name": "RoleRevoked",
      "type": "event"
    },
    {
      "anonymous": false,
      "inputs": [
        {
          "indexed": false,
          "internalType": "uint256",
          "name": "oldThreshold",
          "type": "uint256"
        },
        {
          "indexed": false,
          "internalType": "uint256",
          "name": "newThreshold",
          "type": "uint256"
        }
      ],
      "name": "StalenessThresholdUpdated",
      "type": "event"
    },
    {
      "anonymous": false,
      "inputs": [
        {
          "indexed": true,
          "internalType": "bytes32",
          "name": "symbol",
          "type": "bytes32"
        },
        {
          "indexed": false,
          "internalType": "string",
          "name": "name",
          "type": "string"
        }
      ],
      "name": "SymbolAdded",
      "type": "event"
    },
    {
      "anonymous": false,
      "inputs": [
        {
          "indexed": true,
          "internalType": "bytes32",
          "name": "symbol",
          "type": "bytes32"
        }
      ],
      "name": "SymbolRemoved",
      "type": "event"
    },
    {
      "anonymous": false,
      "inputs": [
        {
          "indexed": true,
          "internalType": "bytes32",
          "name": "symbol",
          "type": "bytes32"
        }
      ],
      "name": "TradingHalted",
      "type": "event"
    },
    {
      "anonymous": false,
      "inputs": [
        {
          "indexed": true,
          "internalType": "bytes32",
          "name": "symbol",
          "type": "bytes32"
        }
      ],
      "name": "TradingResumed",
      "type": "event"
    },
    {
      "anonymous": false,
      "inputs": [
        {
          "indexed": false,
          "internalType": "address",
          "name": "account",
          "type": "address"
        }
      ],
      "name": "Unpaused",
      "type": "event"
    },
    {
      "anonymous": false,
      "inputs": [
        {
          "indexed": true,
          "internalType": "address",
          "name": "implementation",
          "type": "address"
        }
      ],
      "name": "Upgraded",
      "type": "event"
    },
    {
      "inputs": [],
      "name": "ADMIN_ROLE",
      "outputs": [
        {
          "internalType": "bytes32",
          "name": "",
          "type": "bytes32"
        }
      ],
      "stateMutability": "view",
      "type": "function"
    },
    {
      "inputs": [],
      "name": "CONFIDENCE_DECIMALS",
      "outputs": [
        {
          "internalType": "uint8",
          "name": "",
          "type": "uint8"
        }
      ],
      "stateMutability": "view",
      "type": "function"
    },
    {
      "inputs": [],
      "name": "DEFAULT_ADMIN_ROLE",
      "outputs": [
        {
          "internalType": "bytes32",
          "name": "",
          "type": "bytes32"
        }
      ],
      "stateMutability": "view",
      "type": "function"
    },
    {
      "inputs": [],
      "name": "EMERGENCY_ROLE",
      "outputs": [
        {
          "internalType": "bytes32",
          "name": "",
          "type": "bytes32"
        }
      ],
      "stateMutability": "view",
      "type": "function"
    },
    {
      "inputs": [],
      "name": "FEEDER_ROLE",
      "outputs": [
        {
          "internalType": "bytes32",
          "name": "",
          "type": "bytes32"
        }
      ],
      "stateMutability": "view",
      "type": "function"
    },
    {
      "inputs": [],
      "name": "PRICE_DECIMALS",
      "outputs": [
        {
          "internalType": "uint8",
          "name": "",
          "type": "uint8"
        }
      ],
      "stateMutability": "view",
      "type": "function"
    },
    {
      "inputs": [],
      "name": "UPGRADE_INTERFACE_VERSION",
      "outputs": [
        {
          "internalType": "string",
          "name": "",
          "type": "string"
        }
      ],
      "stateMutability": "view",
      "type": "function"
    },
    {
      "inputs": [
        {
          "internalType": "bytes32",
          "name": "symbol",
          "type": "bytes32"
        },
        {
          "internalType": "string",
          "name": "name",
          "type": "string"
        }
      ],
      "name": "addSymbol",
      "outputs": [],
      "stateMutability": "nonpayable",
      "type": "function"
    },
    {
      "inputs": [
        {
          "internalType": "bytes32",
          "name": "symbol",
          "type": "bytes32"
        },
        {
          "internalType": "uint256",
          "name": "count",
          "type": "uint256"
        }
      ],
      "name": "getHistoricalPrices",
      "outputs": [
        {
          "components": [
            {
              "internalType": "int64",
              "name": "price",
              "type": "int64"
            },
            {
              "internalType": "uint64",
              "name": "timestamp",
              "type": "uint64"
            },
            {
              "internalType": "uint32",
              "name": "confidence",
              "type": "uint32"
            }
          ],
          "internalType": "struct OracleBase.HistoricalPrice[]",
          "name": "",
          "type": "tuple[]"
        }
      ],
      "stateMutability": "view",
      "type": "function"
    },
    {
      "inputs": [
        {
          "internalType": "bytes32",
          "name": "symbol",
          "type": "bytes32"
        }
      ],
      "name": "getPrice",
      "outputs": [
        {
          "internalType": "int64",
          "name": "price",
          "type": "int64"
        },
        {
          "internalType": "uint256",
          "name": "timestamp",
          "type": "uint256"
        }
      ],
      "stateMutability": "view",
      "type": "function"
    },
    {
      "inputs": [
        {
          "internalType": "bytes32[]",
          "name": "_symbols",
          "type": "bytes32[]"
        }
      ],
      "name": "getPriceBatch",
      "outputs": [
        {
          "internalType": "int64[]",
          "name": "_prices",
          "type": "int64[]"
        },
        {
          "internalType": "uint256[]",
          "name": "timestamps",
          "type": "uint256[]"
        }
      ],
      "stateMutability": "view",
      "type": "function"
    },
    {
      "inputs": [
        {
          "internalType": "bytes32",
          "name": "symbol",
          "type": "bytes32"
        }
      ],
      "name": "getPriceUnsafe",
      "outputs": [
        {
          "internalType": "int64",
          "name": "price",
          "type": "int64"
        },
        {
          "internalType": "uint256",
          "name": "timestamp",
          "type": "uint256"
        }
      ],
      "stateMutability": "view",
      "type": "function"
    },
    {
      "inputs": [
        {
          "internalType": "bytes32",
          "name": "symbol",
          "type": "bytes32"
        }
      ],
      "name": "getPriceWithConfidence",
      "outputs": [
        {
          "internalType": "int64",
          "name": "price",
          "type": "int64"
        },
        {
          "internalType": "uint32",
          "name": "confidence",
          "type": "uint32"
        },
        {
          "internalType": "uint256",
          "name": "timestamp",
          "type": "uint256"
        }
      ],
      "stateMutability": "view",
      "type": "function"
    },
    {
      "inputs": [
        {
          "internalType": "bytes32",
          "name": "role",
          "type": "bytes32"
        }
      ],
      "name": "getRoleAdmin",
      "outputs": [
        {
          "internalType": "bytes32",
          "name": "",
          "type": "bytes32"
        }
      ],
      "stateMutability": "view",
      "type": "function"
    },
    {
      "inputs": [
        {
          "internalType": "bytes32",
          "name": "symbol",
          "type": "bytes32"
        }
      ],
      "name": "getStockPrice",
      "outputs": [
        {
          "internalType": "int64",
          "name": "currentPrice",
          "type": "int64"
        },
        {
          "internalType": "int64",
          "name": "openPrice",
          "type": "int64"
        },
        {
          "internalType": "int64",
          "name": "closePrice",
          "type": "int64"
        },
        {
          "internalType": "int64",
          "name": "dayHigh",
          "type": "int64"
        },
        {
          "internalType": "int64",
          "name": "dayLow",
          "type": "int64"
        },
        {
          "internalType": "uint256",
          "name": "volume",
          "type": "uint256"
        },
        {
          "internalType": "bool",
          "name": "isHalted",
          "type": "bool"
        },
        {
          "internalType": "uint256",
          "name": "timestamp",
          "type": "uint256"
        }
      ],
      "stateMutability": "view",
      "type": "function"
    },
    {
      "inputs": [],
      "name": "getSupportedSymbols",
      "outputs": [
        {
          "internalType": "bytes32[]",
          "name": "",
          "type": "bytes32[]"
        }
      ],
      "stateMutability": "view",
      "type": "function"
    },
    {
      "inputs": [
        {
          "internalType": "bytes32",
          "name": "role",
          "type": "bytes32"
        },
        {
          "internalType": "address",
          "name": "account",
          "type": "address"
        }
      ],
      "name": "grantRole",
      "outputs": [],
      "stateMutability": "nonpayable",
      "type": "function"
    },
    {
      "inputs": [
        {
          "internalType": "bytes32",
          "name": "symbol",
          "type": "bytes32"
        }
      ],
      "name": "haltTrading",
      "outputs": [],
      "stateMutability": "nonpayable",
      "type": "function"
    },
    {
      "inputs": [
        {
          "internalType": "bytes32",
          "name": "role",
          "type": "bytes32"
        },
        {
          "internalType": "address",
          "name": "account",
          "type": "address"
        }
      ],
      "name": "hasRole",
      "outputs": [
        {
          "internalType": "bool",
          "name": "",
          "type": "bool"
        }
      ],
      "stateMutability": "view",
      "type": "function"
    },
    {
      "inputs": [],
      "name": "heartbeatInterval",
      "outputs": [
        {
          "internalType": "uint256",
          "name": "",
          "type": "uint256"
        }
      ],
      "stateMutability": "view",
      "type": "function"
    },
    {
      "inputs": [
        {
          "internalType": "address",
          "name": "_admin",
          "type": "address"
        },
        {
          "internalType": "address[]",
          "name": "_feeders",
          "type": "address[]"
        }
      ],
      "name": "initialize",
      "outputs": [],
      "stateMutability": "nonpayable",
      "type": "function"
    },
    {
      "inputs": [],
      "name": "isMarketOpen",
      "outputs": [
        {
          "internalType": "bool",
          "name": "",
          "type": "bool"
        }
      ],
      "stateMutability": "view",
      "type": "function"
    },
    {
      "inputs": [
        {
          "internalType": "bytes32",
          "name": "symbol",
          "type": "bytes32"
        }
      ],
      "name": "isStale",
      "outputs": [
        {
          "internalType": "bool",
          "name": "",
          "type": "bool"
        }
      ],
      "stateMutability": "view",
      "type": "function"
    },
    {
      "inputs": [
        {
          "internalType": "bytes32",
          "name": "",
          "type": "bytes32"
        }
      ],
      "name": "isSupported",
      "outputs": [
        {
          "internalType": "bool",
          "name": "",
          "type": "bool"
        }
      ],
      "stateMutability": "view",
      "type": "function"
    },
    {
      "inputs": [],
      "name": "isWeekend",
      "outputs": [
        {
          "internalType": "bool",
          "name": "",
          "type": "bool"
        }
      ],
      "stateMutability": "view",
      "type": "function"
    },
    {
      "inputs": [
        {
          "internalType": "bytes32",
          "name": "",
          "type": "bytes32"
        }
      ],
      "name": "lastHeartbeat",
      "outputs": [
        {
          "internalType": "uint256",
          "name": "",
          "type": "uint256"
        }
      ],
      "stateMutability": "view",
      "type": "function"
    },
    {
      "inputs": [],
      "name": "marketClose",
      "outputs": [
        {
          "internalType": "uint256",
          "name": "",
          "type": "uint256"
        }
      ],
      "stateMutability": "view",
      "type": "function"
    },
    {
      "inputs": [],
      "name": "marketOpen",
      "outputs": [
        {
          "internalType": "uint256",
          "name": "",
          "type": "uint256"
        }
      ],
      "stateMutability": "view",
      "type": "function"
    },
    {
      "inputs": [],
      "name": "maxPriceDeviationBps",
      "outputs": [
        {
          "internalType": "uint256",
          "name": "",
          "type": "uint256"
        }
      ],
      "stateMutability": "view",
      "type": "function"
    },
    {
      "inputs": [],
      "name": "oracleName",
      "outputs": [
        {
          "internalType": "string",
          "name": "",
          "type": "string"
        }
      ],
      "stateMutability": "view",
      "type": "function"
    },
    {
      "inputs": [],
      "name": "oracleVersion",
      "outputs": [
        {
          "internalType": "string",
          "name": "",
          "type": "string"
        }
      ],
      "stateMutability": "view",
      "type": "function"
    },
    {
      "inputs": [],
      "name": "pause",
      "outputs": [],
      "stateMutability": "nonpayable",
      "type": "function"
    },
    {
      "inputs": [],
      "name": "paused",
      "outputs": [
        {
          "internalType": "bool",
          "name": "",
          "type": "bool"
        }
      ],
      "stateMutability": "view",
      "type": "function"
    },
    {
      "inputs": [
        {
          "internalType": "bytes32",
          "name": "",
          "type": "bytes32"
        },
        {
          "internalType": "uint256",
          "name": "",
          "type": "uint256"
        }
      ],
      "name": "priceHistory",
      "outputs": [
        {
          "internalType": "int64",
          "name": "price",
          "type": "int64"
        },
        {
          "internalType": "uint64",
          "name": "timestamp",
          "type": "uint64"
        },
        {
          "internalType": "uint32",
          "name": "confidence",
          "type": "uint32"
        }
      ],
      "stateMutability": "view",
      "type": "function"
    },
    {
      "inputs": [
        {
          "internalType": "bytes32",
          "name": "",
          "type": "bytes32"
        }
      ],
      "name": "prices",
      "outputs": [
        {
          "internalType": "int64",
          "name": "price",
          "type": "int64"
        },
        {
          "internalType": "uint32",
          "name": "confidence",
          "type": "uint32"
        },
        {
          "internalType": "uint64",
          "name": "timestamp",
          "type": "uint64"
        },
        {
          "internalType": "address",
          "name": "source",
          "type": "address"
        }
      ],
      "stateMutability": "view",
      "type": "function"
    },
    {
      "inputs": [],
      "name": "proxiableUUID",
      "outputs": [
        {
          "internalType": "bytes32",
          "name": "",
          "type": "bytes32"
        }
      ],
      "stateMutability": "view",
      "type": "function"
    },
    {
      "inputs": [
        {
          "internalType": "bytes32",
          "name": "symbol",
          "type": "bytes32"
        },
        {
          "internalType": "int64",
          "name": "closePrice",
          "type": "int64"
        },
        {
          "internalType": "uint256",
          "name": "finalVolume",
          "type": "uint256"
        }
      ],
      "name": "recordDailyClose",
      "outputs": [],
      "stateMutability": "nonpayable",
      "type": "function"
    },
    {
      "inputs": [
        {
          "internalType": "bytes32",
          "name": "symbol",
          "type": "bytes32"
        }
      ],
      "name": "removeSymbol",
      "outputs": [],
      "stateMutability": "nonpayable",
      "type": "function"
    },
    {
      "inputs": [
        {
          "internalType": "bytes32",
          "name": "role",
          "type": "bytes32"
        },
        {
          "internalType": "address",
          "name": "callerConfirmation",
          "type": "address"
        }
      ],
      "name": "renounceRole",
      "outputs": [],
      "stateMutability": "nonpayable",
      "type": "function"
    },
    {
      "inputs": [
        {
          "internalType": "bytes32",
          "name": "symbol",
          "type": "bytes32"
        }
      ],
      "name": "resetDailyStats",
      "outputs": [],
      "stateMutability": "nonpayable",
      "type": "function"
    },
    {
      "inputs": [
        {
          "internalType": "bytes32",
          "name": "symbol",
          "type": "bytes32"
        }
      ],
      "name": "resumeTrading",
      "outputs": [],
      "stateMutability": "nonpayable",
      "type": "function"
    },
    {
      "inputs": [
        {
          "internalType": "bytes32",
          "name": "role",
          "type": "bytes32"
        },
        {
          "internalType": "address",
          "name": "account",
          "type": "address"
        }
      ],
      "name": "revokeRole",
      "outputs": [],
      "stateMutability": "nonpayable",
      "type": "function"
    },
    {
      "inputs": [
        {
          "internalType": "bytes32",
          "name": "symbol",
          "type": "bytes32"
        },
        {
          "internalType": "int64",
          "name": "price",
          "type": "int64"
        },
        {
          "internalType": "uint32",
          "name": "confidence",
          "type": "uint32"
        }
      ],
      "name": "setEmergencyPrice",
      "outputs": [],
      "stateMutability": "nonpayable",
      "type": "function"
    },
    {
      "inputs": [
        {
          "internalType": "bool",
          "name": "_isWeekend",
          "type": "bool"
        }
      ],
      "name": "setWeekend",
      "outputs": [],
      "stateMutability": "nonpayable",
      "type": "function"
    },
    {
      "inputs": [],
      "name": "stalenessThreshold",
      "outputs": [
        {
          "internalType": "uint256",
          "name": "",
          "type": "uint256"
        }
      ],
      "stateMutability": "view",
      "type": "function"
    },
    {
      "inputs": [
        {
          "internalType": "bytes32",
          "name": "",
          "type": "bytes32"
        }
      ],
      "name": "stockData",
      "outputs": [
        {
          "internalType": "int64",
          "name": "openPrice",
          "type": "int64"
        },
        {
          "internalType": "int64",
          "name": "closePrice",
          "type": "int64"
        },
        {
          "internalType": "int64",
          "name": "dayHigh",
          "type": "int64"
        },
        {
          "internalType": "int64",
          "name": "dayLow",
          "type": "int64"
        },
        {
          "internalType": "uint256",
          "name": "volume",
          "type": "uint256"
        },
        {
          "internalType": "bool",
          "name": "isHalted",
          "type": "bool"
        },
        {
          "internalType": "uint256",
          "name": "lastTradeDay",
          "type": "uint256"
        }
      ],
      "stateMutability": "view",
      "type": "function"
    },
    {
      "inputs": [
        {
          "internalType": "bytes4",
          "name": "interfaceId",
          "type": "bytes4"
        }
      ],
      "name": "supportsInterface",
      "outputs": [
        {
          "internalType": "bool",
          "name": "",
          "type": "bool"
        }
      ],
      "stateMutability": "view",
      "type": "function"
    },
    {
      "inputs": [
        {
          "internalType": "uint256",
          "name": "",
          "type": "uint256"
        }
      ],
      "name": "symbols",
      "outputs": [
        {
          "internalType": "bytes32",
          "name": "",
          "type": "bytes32"
        }
      ],
      "stateMutability": "view",
      "type": "function"
    },
    {
      "inputs": [],
      "name": "unpause",
      "outputs": [],
      "stateMutability": "nonpayable",
      "type": "function"
    },
    {
      "inputs": [
        {
          "internalType": "uint256",
          "name": "_open",
          "type": "uint256"
        },
        {
          "internalType": "uint256",
          "name": "_close",
          "type": "uint256"
        }
      ],
      "name": "updateMarketHours",
      "outputs": [],
      "stateMutability": "nonpayable",
      "type": "function"
    },
    {
      "inputs": [
        {
          "internalType": "uint256",
          "name": "newDeviation",
          "type": "uint256"
        }
      ],
      "name": "updateMaxDeviation",
      "outputs": [],
      "stateMutability": "nonpayable",
      "type": "function"
    },
    {
      "inputs": [
        {
          "internalType": "bytes32",
          "name": "symbol",
          "type": "bytes32"
        },
        {
          "internalType": "int64",
          "name": "price",
          "type": "int64"
        },
        {
          "internalType": "uint32",
          "name": "confidence",
          "type": "uint32"
        }
      ],
      "name": "updatePrice",
      "outputs": [],
      "stateMutability": "nonpayable",
      "type": "function"
    },
    {
      "inputs": [
        {
          "internalType": "bytes32[]",
          "name": "_symbols",
          "type": "bytes32[]"
        },
        {
          "internalType": "int64[]",
          "name": "_prices",
          "type": "int64[]"
        },
        {
          "internalType": "uint32[]",
          "name": "_confidences",
          "type": "uint32[]"
        }
      ],
      "name": "updatePriceBatch",
      "outputs": [],
      "stateMutability": "nonpayable",
      "type": "function"
    },
    {
      "inputs": [
        {
          "internalType": "uint256",
          "name": "newThreshold",
          "type": "uint256"
        }
      ],
      "name": "updateStalenessThreshold",
      "outputs": [],
      "stateMutability": "nonpayable",
      "type": "function"
    },
    {
      "inputs": [
        {
          "internalType": "bytes32",
          "name": "symbol",
          "type": "bytes32"
        },
        {
          "internalType": "int64",
          "name": "price",
          "type": "int64"
        },
        {
          "internalType": "uint32",
          "name": "confidence",
          "type": "uint32"
        },
        {
          "internalType": "uint256",
          "name": "volume",
          "type": "uint256"
        },
        {
          "internalType": "bool",
          "name": "isOpen",
          "type": "bool"
        }
      ],
      "name": "updateStockPrice",
      "outputs": [],
      "stateMutability": "nonpayable",
      "type": "function"
    },
    {
      "inputs": [
        {
          "internalType": "address",
          "name": "newImplementation",
          "type": "address"
        },
        {
          "internalType": "bytes",
          "name": "data",
          "type": "bytes"
        }
      ],
      "name": "upgradeToAndCall",
      "outputs": [],
      "stateMutability": "payable",
      "type": "function"
    }
  ],
  "bytecode": "0x60a080604052346100ea57306080527ff0c57e16840df040f15088dc2f81fe391c3923bec73e23a9662efc9c229c6a005460ff8160401c166100d9576002600160401b03196001600160401b03821601610073575b60405161363590816100f08239608051818181611a850152611b580152f35b6001600160401b0319166001600160401b039081177ff0c57e16840df040f15088dc2f81fe391c3923bec73e23a9662efc9c229c6a005581527fc7f505b2f371ae2175ee4913f4499e1f2633a7b5936321eed1cdaeb6115181d290602090a13880610054565b63f92ee8a960e01b60005260046000fd5b600080fdfe608080604052600436101561001357600080fd5b60003560e01c90816301ffc9a7146126825750806302651a29146125ea5780630c5bf8f7146124c35780630d3b7cc3146124645780631b71a9db146123f157806320df4359146123b657806322a9fb7514612398578063248a9ca3146123725780632c0dc14f146123135780632eba2a28146122995780632f2ff15d1461226857806331d98b3f146121d25780633465062e1461202e57806336568abe14611fe85780633f4ba83a14611f655780634179794b14611e8b57806345e2a7b314611d5c5780634f1ef28614611adc57806352d1902d14611a72578063561a4fac14611a545780635c975abb14611a2457806360846bc6146119c1578063676ea19214611990578063733f08c71461195357806375b238fc1461191857806379baa1a2146118fa5780637d11f020146118645780638456cb59146117f057806387458a681461179c5780638820a8c41461176857806391d148541461170e578063946d920414610e5657806395a7d04a14610cbe57806396834ad314610c355780639cd41aaf14610b90578063a217fddf14610b74578063a2db5d5e14610b18578063a84f6ebb14610afa578063ad3cb1cc14610abb578063ae0899e114610a8f578063af5df896146109e8578063b8963681146109c5578063c06dad8d146108a7578063c28f1cc3146107d9578063c59379ee14610685578063c66bc04614610667578063c8742170146104bf578063ccce413b1461046d578063ce1c0e4d146103b3578063ceb2097114610378578063d4ce85f31461035d578063d547741f14610325578063de3f2afd14610309578063e35804f2146102e1578063f1a640f8146102c55763fccecc691461028757600080fd5b346102c05760203660031901126102c0576004358015158091036102c0576102ad612a85565b60ff8019603e5416911617603e55600080f35b600080fd5b346102c05760003660031901126102c057602060405160088152f35b346102c05760203660031901126102c05760206102ff600435612e62565b6040519015158152f35b346102c05760003660031901126102c057602060405160048152f35b346102c05760403660031901126102c05761035b600435610344612703565b9061035661035182612928565b612b69565b612f02565b005b346102c05760003660031901126102c05760206102ff612a56565b346102c05760003660031901126102c05760206040517f80a586cc4ecf40a390b370be075aa38ab3cc512c5c1a7bc1007974dbdf2663c78152f35b346102c05760003660031901126102c0576040518060206003549283815201809260036000527fc2575a0e9e593c00f959f8c92f12db2869c3395a3b0502d05e2516446f71f85b9060005b81811061045757505050816104149103826127a6565b6040519182916020830190602084525180915260408301919060005b81811061043e575050500390f35b8251845285945060209384019390920191600101610430565b82548452602090930192600192830192016103fe565b346102c05760203660031901126102c0576004356003548110156102c0576000906003548110156104ab576020826003829452200154604051908152f35b634e487b7160e01b82526032600452602482fd5b346102c05760203660031901126102c0576004356001600160401b0381116102c0576104ef90369060040161287c565b6104f881612865565b9061050660405192836127a6565b80825261051281612865565b6020830190601f190136823761052782612865565b9361053560405195866127a6565b82855261054183612865565b602086019390601f190136853760005b8181106105d9575050506040519384936040850190604086525180915260608501929060005b8181106105bd5750505060209084830382860152519182815201919060005b8181106105a4575050500390f35b8251845285945060209384019390920191600101610596565b825160070b855287965060209485019490920191600101610577565b806105ec60019284869a9798999a612a27565b3560005260006020526001600160401b0360406000206040519061060f82612770565b80549160608360070b9283835263ffffffff8560401c166020840152856040840195831c16855287808060a01b039101541691015261064e848c6129c8565b52511661065b82876129c8565b52019594939295610551565b346102c05760003660031901126102c0576020603c54604051908152f35b346102c05760a03660031901126102c0576004356106a161272f565b6044359163ffffffff831683036102c0576084359283151584036102c0576106e7906106cb612af7565b6106d3612fa2565b6106de818585612fcc565b33908484613073565b600052603f602052604060002091806107cd575b6107af575b815460801c60070b80159081156107a2575b50610778575b815460c01d60070b801590811561076b575b50610747575b506064356001820155620151804204600390910155005b81546001600160c01b031660c09190911b6001600160c01b03191617815581610730565b90508160070b128361072a565b815467ffffffffffffffff60801b191667ffffffffffffffff60801b608083901b16178255610718565b90508160070b1383610712565b6001600160401b0319825416816001600160401b0316178255610700565b50815460070b156106fb565b346102c05760003660031901126102c057604051600954600090816107fd826127e2565b80855291600181169081156108805750600114610835575b61083184610825818603826127a6565b6040519182918261281c565b0390f35b60098152600080516020613580833981519152939250905b8082106108665750909150810160200161082582610815565b91926001816020925483858801015201910190929161084d565b60ff191660208087019190915292151560051b850190920192506108259150839050610815565b346102c05760603660031901126102c0576004356001600160401b0381116102c0576108d790369060040161287c565b906024356001600160401b0381116102c0576108f790369060040161287c565b91906044356001600160401b0381116102c05761091890369060040161287c565b610923929192612af7565b61092b612fa2565b6109368587146129e9565b6109418187146129e9565b60005b86811061094d57005b8061098b61095e6001938a89612a27565b3561097261096d848b89612a27565b612a37565b61098561098085888b612a27565b612a45565b91612fcc565b6109bf610999828a89612a27565b356109a861096d848b89612a27565b9033916109b961098086898c612a27565b91613073565b01610944565b346102c05760003660031901126102c057602060ff603e54166040519015158152f35b346102c05760203660031901126102c057606060043580600052600060205260406000206001600160401b0363ffffffff604051610a2581612770565b610a72610a6c8554968760070b8452610a67866020860199878160401c168b528b1c166040860198818a526001808060a01b03910154168b8701521515612949565b612e62565b1561298b565b5160070b9351169151169060405192835260208301526040820152f35b346102c05760203660031901126102c05760043560005260026020526020604060002054604051908152f35b346102c05760003660031901126102c0576108316040805190610ade81836127a6565b60058252640352e302e360dc1b6020830152519182918261281c565b346102c05760003660031901126102c0576020600554604051908152f35b346102c05760203660031901126102c057600435610b34612a85565b80600052603f602052600260406000200160ff1981541690557f68825ab9f6c64a3f27e6f78734b33fb592a3d35c2a2d857b36776c544801e1fd600080a2005b346102c05760003660031901126102c057602060405160008152f35b346102c05760603660031901126102c0576004357fdba198d17b445b27ee728af29a8c176dc29a65355c3a7acdf052c3385b62c014610bcd61272f565b60443590610bd9612af7565b83600052603f602052816001604060002080548460401b67ffffffffffffffff60401b169067ffffffffffffffff60401b19161781550155610c306040519283928360209093929193604081019460070b81520152565b0390a2005b346102c05760203660031901126102c05760043560005260006020526040600020604051610c6281612770565b81549060606001600160401b038360070b9384845263ffffffff8160401c166020850152821c16938460408401526001808060a01b03910154169101526108316040519283928360209093929193604081019460070b81520152565b346102c057610ccc366126d5565b9060005260016020526040600020805491828111600014610e50575081905b610cf482612865565b92610d0260405194856127a6565b82845282601f19610d1282612865565b0160005b818110610e1f575050610d28916129dc565b60005b838110610da1578460405180916020820160208352815180915260206040840192019060005b818110610d5f575050500390f35b919350916020606060019263ffffffff60408851805160070b84526001600160401b038682015116868501520151166040820152019401910191849392610d51565b80820190818311610e0957610db8600192856126eb565b5063ffffffff60405191610dcb8361278b565b548060070b83526001600160401b038160401c16602084015260801c166040820152610df782886129c8565b52610e0281876129c8565b5001610d2b565b634e487b7160e01b600052601160045260246000fd5b6020919250604051610e308161278b565b600081526000838201526000604082015282828901015201908491610d16565b90610ceb565b346102c05760403660031901126102c057610e6f612719565b602435906001600160401b0382116102c057366023830112156102c0578160040135610e9a81612865565b92610ea860405194856127a6565b8184526024602085019260051b820101903682116102c057602401915b8183106116ee575050506000805160206135e0833981519152549060ff8260401c1615916001600160401b038116801590816116e6575b60011490816116dc575b1590816116d3575b506116c25767ffffffffffffffff1981166001176000805160206135e08339815191525582611695575b506040908151610f4883826127a6565b601081526f53746f636b50726963654f7261636c6560801b6020820152825190610f7284836127a6565b60058252640312e302e360dc1b6020830152610f8c613490565b610f94613490565b610f9c613490565b610fa4613490565b610fac613490565b60017f9b779b17422d0df92223018b32b4d1fa46e071723d6817e2486d003becc55f0055610fd8613490565b8051906001600160401b038211611589578190610ff66008546127e2565b601f811161161e575b50602090601f83116001146115aa5760009261159f575b50508160011b916000199060031b1c1916176008555b8051906001600160401b038211611589576110486009546127e2565b601f811161151c575b50602090601f83116001146114a4576110a793929160009183611499575b50508160011b916000199060031b1c1916176009555b6201518060055561012c6007556103e86006556110a181612bb3565b50612c53565b5060005b83518110156110da576001906110d36001600160a01b036110cc83886129c8565b5116612d0f565b50016110ab565b509061cbe8603c5562012750603d556102008251906110f981836127a6565b600f82526020820190601f1901368237815115611483577f057702f36a95d62dffc7f6a121ad53458ce83b25464c9846baa841808fee4f2f9052805160011015611483577f5727b0491521b7971cfce6f3b65c96bebc704619e1340d90c2b8a5f9e99d8e9183820152805160021015611483577f989c41cff8749970bc88fde35b631ac9a502e8b4401f591c5775a7968b8c3aae6060820152805160031015611483577f8eb6660573f5b4d20aaa061371033891224e5fadc80278e61228dc8937629bc06080820152805160041015611483577f13ec3ae6d9a65df1ae5953598775a86c251d530770729433b0e40d1f2141afd660a0820152805160051015611483577fd7f402a699378a97cf4b1f46fb772a465535d2fead1457bcb27b58312638e26460c0820152805160061015611483577fb4b2a82b96eabbf746992ac923dd0564b13fd74a357308110e549a4f6bbecf9a60e0820152805160071015611483577f3d9fd1a881e7e0c02c76071f9e565d22a300cc73715ee679b0da5b5d67a5baae610100820152805160081015611483577f673187b2142ef3cff8a77799a3f207126ff02c5520adb14bfd1265e5a3ee8c36610120820152805160091015611483577fc2639802342466d65fc623e71290d8eafd636f53b6ddfd92f868ee4f8c6d0b096101408201528051600a1015611483577f6e9af1e550308c0cac217ed61202728ed504b9299a42511147400acc4ccd249f6101608201528051600b1015611483577febc2c513234e2d3046f246a801c4bd13461fc7c3446963583fd5feb6fd9128826101808201528051600c1015611483577f52d0c6412c205f91d5e0d4f0d56f7b7885588485a735071b7fdb7628240051ae6101a08201528051600d1015611483577f3cf6ba5838b1136378773ec4f14cf87f4eb7d83304da6f3b65ad2325f43607146101c08201528051600e1015611483577f174397b323a631946ca4e52826747b5166cceb21b905c446dc893b53d49c7a5d6101e082015260005b815181101561142357806113f3600192846129c8565b516000526004602052846000208260ff1982541617905561141d61141782856129c8565b516128ac565b016113dd565b505061142b57005b60207fc7f505b2f371ae2175ee4913f4499e1f2633a7b5936321eed1cdaeb6115181d29168ff0000000000000000196000805160206135e083398151915254166000805160206135e0833981519152555160018152a1005b634e487b7160e01b600052603260045260246000fd5b01519050878061106f565b90601f1983169160096000526000805160206135808339815191529260005b81811061150457509160019391856110a7979694106114eb575b505050811b01600955611085565b015160001960f88460031b161c191690558780806114dd565b929360206001819287860151815501950193016114c3565b6009600052601f830160051c600080516020613580833981519152019060208410611573575b601f0160051c60008051602061358083398151915201905b8181106115675750611051565b6000815560010161155a565b6000805160206135808339815191529150611542565b634e487b7160e01b600052604160045260246000fd5b015190508780611016565b600860009081526000805160206135608339815191529350601f198516905b81811061160657509084600195949392106115ed575b505050811b0160085561102c565b015160001960f88460031b161c191690558780806115df565b929360206001819287860151815501950193016115c9565b9091506008600052601f830160051c60008051602061356083398151915201906020841061167f575b90601f8493920160051c60008051602061356083398151915201905b8181106116705750610fff565b60008155849350600101611663565b6000805160206135608339815191529150611647565b68ffffffffffffffffff191668010000000000000001176000805160206135e08339815191525583610f38565b63f92ee8a960e01b60005260046000fd5b90501585610f0e565b303b159150610f06565b849150610efc565b82356001600160a01b03811681036102c057815260209283019201610ec5565b346102c05760403660031901126102c057611727612703565b6004356000526000805160206135a083398151915260205260406000209060018060a01b0316600052602052602060ff604060002054166040519015158152f35b346102c05761035b6117793661273f565b90611782612af7565b61178a612fa2565b611795828285612fcc565b3392613073565b346102c05760203660031901126102c0577f2cfed7ac4be4a0009ef1af32ea2de149e0122938cb9aa4b3f7df3be6da1055e960406004356117db612a85565b600554908060055582519182526020820152a1005b346102c05760003660031901126102c057611809612a85565b611811612fa2565b600160ff196000805160206135c08339815191525416176000805160206135c0833981519152557f62e78cea01bee320cd4e420270b5ea74000d11b0c9f74754ebdbfc544b05a2586020604051338152a1005b346102c05760003660031901126102c05760405160085460009081611888826127e2565b808552916001811690811561088057506001146118af5761083184610825818603826127a6565b60088152600080516020613560833981519152939250905b8082106118e05750909150810160200161082582610815565b9192600181602092548385880101520191019092916118c7565b346102c05760003660031901126102c0576020600654604051908152f35b346102c05760003660031901126102c05760206040517fa49807205ce4d355092ef5a8a18f56e8913cf4a201fbe287825b095693c217758152f35b346102c05760203660031901126102c05761196c612a85565b6004356000908152603f60205260409020805467ffffffffffffffff60401b169055005b346102c05760203660031901126102c0576004356000526004602052602060ff604060002054166040519015158152f35b346102c05760203660031901126102c0576004356000526000602052608060406000208054906001808060a01b03910154166001600160401b03604051928060070b845263ffffffff8160401c16602085015260601c1660408301526060820152f35b346102c05760003660031901126102c057602060ff6000805160206135c083398151915254166040519015158152f35b346102c05760003660031901126102c0576020600754604051908152f35b346102c05760003660031901126102c0577f00000000000000000000000000000000000000000000000000000000000000006001600160a01b03163003611acb5760206040516000805160206135408339815191528152f35b63703e46dd60e11b60005260046000fd5b60403660031901126102c057611af0612719565b602435906001600160401b0382116102c057366023830112156102c057816004013590611b1c826127c7565b91611b2a60405193846127a6565b808352602083019336602483830101116102c057816000926024602093018737840101526001600160a01b037f000000000000000000000000000000000000000000000000000000000000000016308114908115611d39575b50611acb57611b90612a85565b6001600160a01b038116928315611cfe576040516352d1902d60e01b8152602081600481885afa60009181611cca575b50611bda5784634c9c8ce360e01b60005260045260246000fd5b80600080516020613540833981519152869203611cb65750823b15611ca25760008051602061354083398151915280546001600160a01b031916821790557fbc7cd75a20ee27fd9adebab32041f755214dbc6bffa90cc0225b39da2e5c2d3b600080a2825115611c87576000809161035b945190845af43d15611c7f573d91611c62836127c7565b92611c7060405194856127a6565b83523d6000602085013e6134be565b6060916134be565b50505034611c9157005b63b398979f60e01b60005260046000fd5b634c9c8ce360e01b60005260045260246000fd5b632a87526960e21b60005260045260246000fd5b9091506020813d602011611cf6575b81611ce6602093836127a6565b810103126102c057519086611bc0565b3d9150611cd9565b60405162461bcd60e51b81526020600482015260136024820152722d32b9379034b6b83632b6b2b73a30ba34b7b760691b6044820152606490fd5b600080516020613540833981519152546001600160a01b03161415905084611b83565b346102c05760203660031901126102c057600435806000526000602052604060002060405191611d8b83612770565b8154918260070b845263ffffffff8360401c1660208501526001600160401b03604085019360601c1683526001808060a01b03910154166060840152600052603f6020526040600020916040519260e08401938085106001600160401b0386111761158957610100946040528154928360070b938483528060401c60070b8060208501526001600160401b038260801c60070b9283604087015260c01d60070b9384606087015260018701549586608082015260c0600360ff60028b0154161515998a60a085015201549101525160070b97511695604051978852602088015260408701526060860152608085015260a084015260c083015260e0820152f35b346102c05760403660031901126102c057600435602435611eaa612a85565b80821015611f3057620151808111611ef657816040917fab2c6cb3654f63fb1a060e9d7bdc606acf90b4e48921e87f8647855137c39e3593603c5580603d5582519182526020820152a1005b60405162461bcd60e51b8152602060048201526012602482015271496e76616c696420636c6f73652074696d6560701b6044820152606490fd5b60405162461bcd60e51b815260206004820152600d60248201526c496e76616c696420686f75727360981b6044820152606490fd5b346102c05760003660031901126102c057611f7e612a85565b6000805160206135c08339815191525460ff811615611fd75760ff19166000805160206135c0833981519152557f5db9ee0a495bf2e6ff9c91a7834c1ba4fdd244a5e8aa4e537bd38aeae4b073aa6020604051338152a1005b638dfc202b60e01b60005260046000fd5b346102c05760403660031901126102c057612001612703565b336001600160a01b0382160361201d5761035b90600435612f02565b63334bd91960e11b60005260046000fd5b346102c05761203c3661273f565b3360009081527f762c7c328dd70a077c65c77b60e4c38eed3d2f6aa056d4d0fa114aeff8234b5660205260409020549092919060ff16156121995781600052600460205261209160ff604060002054166128e5565b6001604051916120a083612770565b60070b9384835263ffffffff60208401911681526121416001600160401b0360408501814216815261211963ffffffff60608801953387528960005260006020526040600020985160070b85198a54169086161789555116879063ffffffff60401b82549160401b169063ffffffff60401b1916179055565b51855467ffffffffffffffff60601b1916911660601b67ffffffffffffffff60601b16178455565b818060a01b0390511691019060018060a01b03166bffffffffffffffffffffffff60a01b8254161790556040519182527f270e298a31915f1dca9a1b17b58e0369ff80602ef539ae5a43032bb29ad459fd60203393a3005b63e2517d3f60e01b600052336004527fbf233dd2aafeb4d50879c4aa5c81e96d92f6e6945c906a58f9f2d1c1631b4b2660245260446000fd5b346102c05760203660031901126102c0576004358060005260006020526001600160401b0360406000209161224f610a6c6040519261221084612770565b610a678587548060070b875263ffffffff8160401c16602088015260601c1660408601978189526001808060a01b039101541660608701521515612949565b5191516040805160079490940b84529116602083015290f35b346102c05760403660031901126102c05761035b600435612287612703565b9061229461035182612928565b612dcb565b346102c05760203660031901126102c057600435600052603f60205260e06040600020805490600181015490600360ff60028301541691015491604051938060070b85528060401c60070b60208601528060801c60070b604086015260c01d60070b60608501526080840152151560a083015260c0820152f35b346102c057612321366126d5565b906000526001602052604060002080548210156102c057606091612344916126eb565b505463ffffffff604051918060070b83526001600160401b038160401c16602084015260801c166040820152f35b346102c05760203660031901126102c0576020612390600435612928565b604051908152f35b346102c05760003660031901126102c0576020603d54604051908152f35b346102c05760003660031901126102c05760206040517fbf233dd2aafeb4d50879c4aa5c81e96d92f6e6945c906a58f9f2d1c1631b4b268152f35b346102c05760203660031901126102c05760043561240d612a85565b80600052600460205261242760ff604060002054166128e5565b806000526004602052604060002060ff1981541690557f88d7a2d72d05315fff92a3e2fcda7475e6d992d2f19f14f1149836e6aedc9704600080a2005b346102c05760203660031901126102c057600435612480612a85565b80600052603f6020526002604060002001600160ff198254161790557fb2921ed791229b02af3bcefac1a66aa4b8ca3707949ec0c021cc973f807e55cf600080a2005b346102c05760403660031901126102c0576004356024356001600160401b0381116102c057366023820112156102c0578060040135906001600160401b0382116102c05736602483830101116102c05761251b612a85565b82600052600460205260ff604060002054166125a55760406024917f4db75b1dc79e1b1202ddc36b54a495b20dd3071e97b862d554ed43559bcdc5d49385600052600460205282600020600160ff19825416179055612579866128ac565b8083519485936020855282602086015201848401376000828201840152601f01601f19168101030190a2005b60405162461bcd60e51b815260206004820152601860248201527f53796d626f6c20616c726561647920737570706f7274656400000000000000006044820152606490fd5b346102c05760203660031901126102c057600435612606612a85565b61138881116126485760407fea7b0359048504e79474eaaa05294b49265fc4e7b0a0c3737aaa22412e90f16e91600654908060065582519182526020820152a1005b60405162461bcd60e51b8152602060048201526012602482015271088caecd2c2e8d2dedc40e8dede40d0d2ced60731b6044820152606490fd5b346102c05760203660031901126102c0576004359063ffffffff60e01b82168092036102c057602091637965db0b60e01b81149081156126c4575b5015158152f35b6301ffc9a760e01b149050836126bd565b60409060031901126102c0576004359060243590565b80548210156114835760005260206000200190600090565b602435906001600160a01b03821682036102c057565b600435906001600160a01b03821682036102c057565b602435908160070b82036102c057565b60609060031901126102c057600435906024358060070b81036102c0579060443563ffffffff811681036102c05790565b608081019081106001600160401b0382111761158957604052565b606081019081106001600160401b0382111761158957604052565b90601f801991011681019081106001600160401b0382111761158957604052565b6001600160401b03811161158957601f01601f191660200190565b90600182811c92168015612812575b60208310146127fc57565b634e487b7160e01b600052602260045260246000fd5b91607f16916127f1565b91909160208152825180602083015260005b81811061284f575060409293506000838284010152601f8019910116010190565b806020809287010151604082860101520161282e565b6001600160401b0381116115895760051b60200190565b9181601f840112156102c0578235916001600160401b0383116102c0576020808501948460051b0101116102c057565b600354600160401b811015611589578060016128cd920160035560036126eb565b819291549060031b91821b91600019901b1916179055565b156128ec57565b60405162461bcd60e51b815260206004820152601460248201527314de5b589bdb081b9bdd081cdd5c1c1bdc9d195960621b6044820152606490fd5b6000526000805160206135a083398151915260205260016040600020015490565b1561295057565b60405162461bcd60e51b81526020600482015260136024820152725072696365206e6f7420617661696c61626c6560681b6044820152606490fd5b1561299257565b60405162461bcd60e51b815260206004820152600e60248201526d5072696365206973207374616c6560901b6044820152606490fd5b80518210156114835760209160051b010190565b91908203918211610e0957565b156129f057565b60405162461bcd60e51b815260206004820152600f60248201526e098cadccee8d040dad2e6dac2e8c6d608b1b6044820152606490fd5b91908110156114835760051b0190565b358060070b81036102c05790565b3563ffffffff811681036102c05790565b60ff603e5416612a8057620151804206603c548110159081612a76575090565b9050603d54101590565b600090565b3360009081527fb16e88c42fd4e48df2dd6a2eabd6bc9aec654ec170056b470819f8892cc6431c602052604090205460ff1615612abe57565b63e2517d3f60e01b600052336004527fa49807205ce4d355092ef5a8a18f56e8913cf4a201fbe287825b095693c2177560245260446000fd5b3360009081527fa215ee09b727d164a869306c18db94514cc57296ef3c2cb8caf0606a1c60543d602052604090205460ff1615612b3057565b63e2517d3f60e01b600052336004527f80a586cc4ecf40a390b370be075aa38ab3cc512c5c1a7bc1007974dbdf2663c760245260446000fd5b60008181526000805160206135a08339815191526020908152604080832033845290915290205460ff1615612b9b5750565b63e2517d3f60e01b6000523360045260245260446000fd5b6001600160a01b03811660009081527fb7db2dd08fcb62d0c9e08c51941cae53c267786a0b75803fb7960902fc8ef97d602052604090205460ff16612c4d576001600160a01b031660008181527fb7db2dd08fcb62d0c9e08c51941cae53c267786a0b75803fb7960902fc8ef97d60205260408120805460ff191660011790553391906000805160206135208339815191528180a4600190565b50600090565b6001600160a01b03811660009081527fb16e88c42fd4e48df2dd6a2eabd6bc9aec654ec170056b470819f8892cc6431c602052604090205460ff16612c4d576001600160a01b031660008181527fb16e88c42fd4e48df2dd6a2eabd6bc9aec654ec170056b470819f8892cc6431c60205260408120805460ff191660011790553391907fa49807205ce4d355092ef5a8a18f56e8913cf4a201fbe287825b095693c21775906000805160206135208339815191529080a4600190565b6001600160a01b03811660009081527fa215ee09b727d164a869306c18db94514cc57296ef3c2cb8caf0606a1c60543d602052604090205460ff16612c4d576001600160a01b031660008181527fa215ee09b727d164a869306c18db94514cc57296ef3c2cb8caf0606a1c60543d60205260408120805460ff191660011790553391907f80a586cc4ecf40a390b370be075aa38ab3cc512c5c1a7bc1007974dbdf2663c7906000805160206135208339815191529080a4600190565b60008181526000805160206135a0833981519152602090815260408083206001600160a01b038616845290915290205460ff16612e5b5760008181526000805160206135a0833981519152602090815260408083206001600160a01b0395909516808452949091528120805460ff19166001179055339291906000805160206135208339815191529080a4600190565b5050600090565b60005260006020526040600020604051612e7b81612770565b6001600160401b0382548060070b835263ffffffff8160401c16602084015260601c1690606060408201938385526001808060a01b039101541691015215612efc57612ec5612a56565b612ee557612ee16001600160401b0362015180925116426129dc565b1190565b612ee16001600160401b0361012c925116426129dc565b50600190565b60008181526000805160206135a0833981519152602090815260408083206001600160a01b038616845290915290205460ff1615612e5b5760008181526000805160206135a0833981519152602090815260408083206001600160a01b0395909516808452949091528120805460ff19169055339291907ff6391f5c32d9c69d2a47ea670b442974b53935d1edc7fd64eb21e047a839171b9080a4600190565b60ff6000805160206135c08339815191525416612fbb57565b63d93c066560e01b60005260046000fd5b919060009060070b131561303e5763ffffffff61271091161161300457600052600460205261300260ff604060002054166128e5565b565b60405162461bcd60e51b8152602060048201526012602482015271496e76616c696420636f6e666964656e636560701b6044820152606490fd5b60405162461bcd60e51b815260206004820152600d60248201526c496e76616c696420707269636560981b6044820152606490fd5b929083600052600460205261308f60ff604060002054166128e5565b83600052600060205260406000209283546001600160401b038160601c1661338b575b5083546bffffffffffffffffffffffff19166001600160401b03831617604082901b63ffffffff60401b16178455835467ffffffffffffffff60601b191642606081901b67ffffffffffffffff60601b169190911785556001600160401b03169360010180546001600160a01b0319166001600160a01b038516179055600085815260016020526040902080549093906064111561327d575b604051926131588461278b565b60070b94858452602084019481865263ffffffff604086019416908185528054600160401b81101561158957613193916001820181556126eb565b96909661326757945186549551945163ffffffff60801b60809190911b166001600160a01b03199096166001600160401b039091161767ffffffffffffffff60401b60409590951b94909416939093179390931790935584927f140025e5991cada5fd98b64ba208388bbad47fa3b54b6520964052c554fe433892606092856000526002602052426040600020556040519687526020870152604086015260018060a01b031693a37f3cf0bf7708060bf073b6ddb921eef0485b3eb9da828e0ed751fa6582ef337f576020604051428152a2565b634e487b7160e01b600052600060045260246000fd5b94929593919060005b87546000198101908111610e09578110156133495760018101808211610e09576132b090896126eb565b50906132bc818a6126eb565b929092613267578281600194036132d6575b505001613286565b8154815467ffffffffffffffff1981166001600160401b039092169182178355835467ffffffffffffffff60401b166fffffffffffffffffffffffffffffffff198216831781178455935463ffffffff60801b166001600160a01b031990911690911790921791909117905538806132ce565b5090919395929483548015613375576000190161336681866126eb565b6132675760009055845561314b565b634e487b7160e01b600052603160045260246000fd5b6133989060070b836133c5565b386130b2565b600791820b910b0390677fffffffffffffff198212677fffffffffffffff831317610e0957565b8160070b90811561348b57826001600160401b03928260070b1360001461347c576133ef9161339e565b16906127108202918083046127101490151715610e09576001600160401b031690811561346657046006541061342157565b60405162461bcd60e51b815260206004820152601860248201527f507269636520646576696174696f6e20746f6f206869676800000000000000006044820152606490fd5b634e487b7160e01b600052601260045260246000fd5b906134869161339e565b6133ef565b505050565b60ff6000805160206135e08339815191525460401c16156134ad57565b631afcd79f60e31b60005260046000fd5b906134e457508051156134d357602081519101fd5b63d6bda27560e01b60005260046000fd5b81511580613516575b6134f5575090565b639996b31560e01b60009081526001600160a01b0391909116600452602490fd5b50803b156134ed56fe2f8788117e7eff1d82e926ec794901d17c78024a50270940304540a733656f0d360894a13ba1a3210667c828492db98dca3e2076cc3735a920a3ca505d382bbcf3f7a9fe364faab93b216da50a3214154f22a0a2b415b23a84c8169e8b636ee36e1540171b6c0c960b71a7020d9f60077f6af931a8bbf590da0223dacf75c7af02dd7bc7dec4dceedda775e58dd541e08a116c6c53815c0bd028192f7b626800cd5ed15c6e187e77e9aee88184c21f4f2182ab5827cb3b7e07fbedcd63f03300f0c57e16840df040f15088dc2f81fe391c3923bec73e23a9662efc9c229c6a00a26469706673582212206785c2fb437dce55780143d38d1d5e0036deae584f8415dbf85e7062e720d22764736f6c634300081b0033",
  "linkReferences": {},
  "deployedLinkReferences": {}
}