{
  "_format": "hh-sol-artifact-1",
  "contractName": "TraderAccountRegistry",
  "sourceName": "contracts/TraderAccountRegistry.sol",
  "abi": [
    {
      "inputs": [],
      "stateMutability": "nonpayable",
      "type": "constructor"
    },
    {
      "inputs": [],
      "name": "AccessControlBadConfirmation",
      "type": "error"
    },
    {
      "inputs": [
        {
          "internalType": "address",
          "name": "account",
          "type": "address"
        },
        {
          "internalType": "bytes32",
          "name": "neededRole",
          "type": "bytes32"
        }
      ],
      "name": "AccessControlUnauthorizedAccount",
      "type": "error"
    },
    {
      "inputs": [
        {
          "internalType": "address",
          "name": "target",
          "type": "address"
        }
      ],
      "name": "AddressEmptyCode",
      "type": "error"
    },
    {
      "inputs": [],
      "name": "ECDSAInvalidSignature",
      "type": "error"
    },
    {
      "inputs": [
        {
          "internalType": "uint256",
          "name": "length",
          "type": "uint256"
        }
      ],
      "name": "ECDSAInvalidSignatureLength",
      "type": "error"
    },
    {
      "inputs": [
        {
          "internalType": "bytes32",
          "name": "s",
          "type": "bytes32"
        }
      ],
      "name": "ECDSAInvalidSignatureS",
      "type": "error"
    },
    {
      "inputs": [
        {
          "internalType": "address",
          "name": "implementation",
          "type": "address"
        }
      ],
      "name": "ERC1967InvalidImplementation",
      "type": "error"
    },
    {
      "inputs": [],
      "name": "ERC1967NonPayable",
      "type": "error"
    },
    {
      "inputs": [],
      "name": "EnforcedPause",
      "type": "error"
    },
    {
      "inputs": [],
      "name": "ExpectedPause",
      "type": "error"
    },
    {
      "inputs": [],
      "name": "FailedCall",
      "type": "error"
    },
    {
      "inputs": [],
      "name": "InvalidInitialization",
      "type": "error"
    },
    {
      "inputs": [],
      "name": "NotInitializing",
      "type": "error"
    },
    {
      "inputs": [],
      "name": "ReentrancyGuardReentrantCall",
      "type": "error"
    },
    {
      "inputs": [],
      "name": "UUPSUnauthorizedCallContext",
      "type": "error"
    },
    {
      "inputs": [
        {
          "internalType": "bytes32",
          "name": "slot",
          "type": "bytes32"
        }
      ],
      "name": "UUPSUnsupportedProxiableUUID",
      "type": "error"
    },
    {
      "anonymous": false,
      "inputs": [
        {
          "indexed": true,
          "internalType": "bytes32",
          "name": "traderId",
          "type": "bytes32"
        },
        {
          "indexed": false,
          "internalType": "string",
          "name": "breachType",
          "type": "string"
        },
        {
          "indexed": false,
          "internalType": "uint256",
          "name": "timestamp",
          "type": "uint256"
        }
      ],
      "name": "AccountBreached",
      "type": "event"
    },
    {
      "anonymous": false,
      "inputs": [
        {
          "indexed": false,
          "internalType": "uint64",
          "name": "version",
          "type": "uint64"
        }
      ],
      "name": "Initialized",
      "type": "event"
    },
    {
      "anonymous": false,
      "inputs": [
        {
          "indexed": true,
          "internalType": "bytes32",
          "name": "traderId",
          "type": "bytes32"
        },
        {
          "indexed": false,
          "internalType": "bool",
          "name": "verified",
          "type": "bool"
        },
        {
          "indexed": false,
          "internalType": "uint256",
          "name": "timestamp",
          "type": "uint256"
        }
      ],
      "name": "KYCUpdated",
      "type": "event"
    },
    {
      "anonymous": false,
      "inputs": [
        {
          "indexed": false,
          "internalType": "address",
          "name": "account",
          "type": "address"
        }
      ],
      "name": "Paused",
      "type": "event"
    },
    {
      "anonymous": false,
      "inputs": [
        {
          "indexed": true,
          "internalType": "bytes32",
          "name": "traderId",
          "type": "bytes32"
        },
        {
          "indexed": false,
          "internalType": "uint256",
          "name": "winRate",
          "type": "uint256"
        },
        {
          "indexed": false,
          "internalType": "uint256",
          "name": "sharpeRatio",
          "type": "uint256"
        },
        {
          "indexed": false,
          "internalType": "uint256",
          "name": "consistencyScore",
          "type": "uint256"
        },
        {
          "indexed": false,
          "internalType": "uint256",
          "name": "timestamp",
          "type": "uint256"
        }
      ],
      "name": "PerformanceUpdated",
      "type": "event"
    },
    {
      "anonymous": false,
      "inputs": [
        {
          "indexed": true,
          "internalType": "bytes32",
          "name": "role",
          "type": "bytes32"
        },
        {
          "indexed": true,
          "internalType": "bytes32",
          "name": "previousAdminRole",
          "type": "bytes32"
        },
        {
          "indexed": true,
          "internalType": "bytes32",
          "name": "newAdminRole",
          "type": "bytes32"
        }
      ],
      "name": "RoleAdminChanged",
      "type": "event"
    },
    {
      "anonymous": false,
      "inputs": [
        {
          "indexed": true,
          "internalType": "bytes32",
          "name": "role",
          "type": "bytes32"
        },
        {
          "indexed": true,
          "internalType": "address",
          "name": "account",
          "type": "address"
        },
        {
          "indexed": true,
          "internalType": "address",
          "name": "sender",
          "type": "address"
        }
      ],
      "name": "RoleGranted",
      "type": "event"
    },
    {
      "anonymous": false,
      "inputs": [
        {
          "indexed": true,
          "internalType": "bytes32",
          "name": "role",
          "type": "bytes32"
        },
        {
          "indexed": true,
          "internalType": "address",
          "name": "account",
          "type": "address"
        },
        {
          "indexed": true,
          "internalType": "address",
          "name": "sender",
          "type": "address"
        }
      ],
      "name": "RoleRevoked",
      "type": "event"
    },
    {
      "anonymous": false,
      "inputs": [
        {
          "indexed": true,
          "internalType": "bytes32",
          "name": "traderId",
          "type": "bytes32"
        },
        {
          "indexed": false,
          "internalType": "enum TraderAccountRegistry.AccountStatus",
          "name": "oldStatus",
          "type": "uint8"
        },
        {
          "indexed": false,
          "internalType": "enum TraderAccountRegistry.AccountStatus",
          "name": "newStatus",
          "type": "uint8"
        },
        {
          "indexed": false,
          "internalType": "string",
          "name": "reason",
          "type": "string"
        },
        {
          "indexed": false,
          "internalType": "uint256",
          "name": "timestamp",
          "type": "uint256"
        }
      ],
      "name": "StatusChanged",
      "type": "event"
    },
    {
      "anonymous": false,
      "inputs": [
        {
          "indexed": true,
          "internalType": "uint8",
          "name": "tier",
          "type": "uint8"
        },
        {
          "indexed": false,
          "internalType": "uint256",
          "name": "capitalAllocation",
          "type": "uint256"
        },
        {
          "indexed": false,
          "internalType": "uint256",
          "name": "maxDrawdownPct",
          "type": "uint256"
        },
        {
          "indexed": false,
          "internalType": "uint256",
          "name": "profitSplitPct",
          "type": "uint256"
        }
      ],
      "name": "TierConfigUpdated",
      "type": "event"
    },
    {
      "anonymous": false,
      "inputs": [
        {
          "indexed": true,
          "internalType": "bytes32",
          "name": "traderId",
          "type": "bytes32"
        },
        {
          "indexed": false,
          "internalType": "uint8",
          "name": "oldTier",
          "type": "uint8"
        },
        {
          "indexed": false,
          "internalType": "uint8",
          "name": "newTier",
          "type": "uint8"
        },
        {
          "indexed": false,
          "internalType": "uint256",
          "name": "timestamp",
          "type": "uint256"
        }
      ],
      "name": "TierUpdated",
      "type": "event"
    },
    {
      "anonymous": false,
      "inputs": [
        {
          "indexed": true,
          "internalType": "bytes32",
          "name": "traderId",
          "type": "bytes32"
        },
        {
          "indexed": true,
          "internalType": "address",
          "name": "traderAddress",
          "type": "address"
        },
        {
          "indexed": false,
          "internalType": "uint8",
          "name": "tier",
          "type": "uint8"
        },
        {
          "indexed": false,
          "internalType": "uint256",
          "name": "timestamp",
          "type": "uint256"
        }
      ],
      "name": "TraderRegistered",
      "type": "event"
    },
    {
      "anonymous": false,
      "inputs": [
        {
          "indexed": false,
          "internalType": "address",
          "name": "account",
          "type": "address"
        }
      ],
      "name": "Unpaused",
      "type": "event"
    },
    {
      "anonymous": false,
      "inputs": [
        {
          "indexed": true,
          "internalType": "address",
          "name": "implementation",
          "type": "address"
        }
      ],
      "name": "Upgraded",
      "type": "event"
    },
    {
      "inputs": [],
      "name": "ADMIN_ROLE",
      "outputs": [
        {
          "internalType": "bytes32",
          "name": "",
          "type": "bytes32"
        }
      ],
      "stateMutability": "view",
      "type": "function"
    },
    {
      "inputs": [],
      "name": "BASIS_POINTS",
      "outputs": [
        {
          "internalType": "uint256",
          "name": "",
          "type": "uint256"
        }
      ],
      "stateMutability": "view",
      "type": "function"
    },
    {
      "inputs": [],
      "name": "DEFAULT_ADMIN_ROLE",
      "outputs": [
        {
          "internalType": "bytes32",
          "name": "",
          "type": "bytes32"
        }
      ],
      "stateMutability": "view",
      "type": "function"
    },
    {
      "inputs": [],
      "name": "GOVERNANCE_ROLE",
      "outputs": [
        {
          "internalType": "bytes32",
          "name": "",
          "type": "bytes32"
        }
      ],
      "stateMutability": "view",
      "type": "function"
    },
    {
      "inputs": [],
      "name": "MAX_TIER",
      "outputs": [
        {
          "internalType": "uint8",
          "name": "",
          "type": "uint8"
        }
      ],
      "stateMutability": "view",
      "type": "function"
    },
    {
      "inputs": [],
      "name": "OPERATOR_ROLE",
      "outputs": [
        {
          "internalType": "bytes32",
          "name": "",
          "type": "bytes32"
        }
      ],
      "stateMutability": "view",
      "type": "function"
    },
    {
      "inputs": [],
      "name": "PAYOUT_MANAGER_ROLE",
      "outputs": [
        {
          "internalType": "bytes32",
          "name": "",
          "type": "bytes32"
        }
      ],
      "stateMutability": "view",
      "type": "function"
    },
    {
      "inputs": [],
      "name": "UPGRADE_INTERFACE_VERSION",
      "outputs": [
        {
          "internalType": "string",
          "name": "",
          "type": "string"
        }
      ],
      "stateMutability": "view",
      "type": "function"
    },
    {
      "inputs": [
        {
          "internalType": "bytes32",
          "name": "traderId",
          "type": "bytes32"
        }
      ],
      "name": "activateAccount",
      "outputs": [],
      "stateMutability": "nonpayable",
      "type": "function"
    },
    {
      "inputs": [],
      "name": "activeTraders",
      "outputs": [
        {
          "internalType": "uint256",
          "name": "",
          "type": "uint256"
        }
      ],
      "stateMutability": "view",
      "type": "function"
    },
    {
      "inputs": [
        {
          "internalType": "address",
          "name": "",
          "type": "address"
        }
      ],
      "name": "addressToTraderId",
      "outputs": [
        {
          "internalType": "bytes32",
          "name": "",
          "type": "bytes32"
        }
      ],
      "stateMutability": "view",
      "type": "function"
    },
    {
      "inputs": [
        {
          "internalType": "bytes32",
          "name": "traderId",
          "type": "bytes32"
        }
      ],
      "name": "getPerformanceMetrics",
      "outputs": [
        {
          "components": [
            {
              "internalType": "uint256",
              "name": "winRate",
              "type": "uint256"
            },
            {
              "internalType": "uint256",
              "name": "avgWin",
              "type": "uint256"
            },
            {
              "internalType": "uint256",
              "name": "avgLoss",
              "type": "uint256"
            },
            {
              "internalType": "uint256",
              "name": "sharpeRatio",
              "type": "uint256"
            },
            {
              "internalType": "uint256",
              "name": "maxDrawdown",
              "type": "uint256"
            },
            {
              "internalType": "uint256",
              "name": "consistencyScore",
              "type": "uint256"
            },
            {
              "internalType": "uint256",
              "name": "lastUpdated",
              "type": "uint256"
            }
          ],
          "internalType": "struct TraderAccountRegistry.PerformanceMetrics",
          "name": "",
          "type": "tuple"
        }
      ],
      "stateMutability": "view",
      "type": "function"
    },
    {
      "inputs": [
        {
          "internalType": "bytes32",
          "name": "role",
          "type": "bytes32"
        }
      ],
      "name": "getRoleAdmin",
      "outputs": [
        {
          "internalType": "bytes32",
          "name": "",
          "type": "bytes32"
        }
      ],
      "stateMutability": "view",
      "type": "function"
    },
    {
      "inputs": [
        {
          "internalType": "uint8",
          "name": "tier",
          "type": "uint8"
        }
      ],
      "name": "getTierConfig",
      "outputs": [
        {
          "components": [
            {
              "internalType": "uint8",
              "name": "tier",
              "type": "uint8"
            },
            {
              "internalType": "uint256",
              "name": "capitalAllocation",
              "type": "uint256"
            },
            {
              "internalType": "uint256",
              "name": "maxDrawdownPct",
              "type": "uint256"
            },
            {
              "internalType": "uint256",
              "name": "profitSplitPct",
              "type": "uint256"
            },
            {
              "internalType": "uint256",
              "name": "minTradingDays",
              "type": "uint256"
            },
            {
              "internalType": "uint256",
              "name": "maxDailyLoss",
              "type": "uint256"
            },
            {
              "internalType": "bool",
              "name": "active",
              "type": "bool"
            }
          ],
          "internalType": "struct TraderAccountRegistry.TierConfig",
          "name": "",
          "type": "tuple"
        }
      ],
      "stateMutability": "view",
      "type": "function"
    },
    {
      "inputs": [
        {
          "internalType": "address",
          "name": "traderAddress",
          "type": "address"
        }
      ],
      "name": "getTraderIdByAddress",
      "outputs": [
        {
          "internalType": "bytes32",
          "name": "",
          "type": "bytes32"
        }
      ],
      "stateMutability": "view",
      "type": "function"
    },
    {
      "inputs": [
        {
          "internalType": "bytes32",
          "name": "traderId",
          "type": "bytes32"
        }
      ],
      "name": "getTraderInfo",
      "outputs": [
        {
          "components": [
            {
              "internalType": "bytes32",
              "name": "traderId",
              "type": "bytes32"
            },
            {
              "internalType": "address",
              "name": "traderAddress",
              "type": "address"
            },
            {
              "internalType": "uint8",
              "name": "currentTier",
              "type": "uint8"
            },
            {
              "internalType": "enum TraderAccountRegistry.AccountStatus",
              "name": "status",
              "type": "uint8"
            },
            {
              "internalType": "uint256",
              "name": "registeredAt",
              "type": "uint256"
            },
            {
              "internalType": "uint256",
              "name": "activatedAt",
              "type": "uint256"
            },
            {
              "internalType": "uint256",
              "name": "lastTierUpdate",
              "type": "uint256"
            },
            {
              "internalType": "uint256",
              "name": "totalTrades",
              "type": "uint256"
            },
            {
              "internalType": "int256",
              "name": "lifetimePnL",
              "type": "int256"
            },
            {
              "internalType": "uint256",
              "name": "breachCount",
              "type": "uint256"
            },
            {
              "internalType": "bool",
              "name": "kycVerified",
              "type": "bool"
            },
            {
              "internalType": "string",
              "name": "metadata",
              "type": "string"
            }
          ],
          "internalType": "struct TraderAccountRegistry.TraderAccount",
          "name": "",
          "type": "tuple"
        }
      ],
      "stateMutability": "view",
      "type": "function"
    },
    {
      "inputs": [
        {
          "internalType": "bytes32",
          "name": "role",
          "type": "bytes32"
        },
        {
          "internalType": "address",
          "name": "account",
          "type": "address"
        }
      ],
      "name": "grantRole",
      "outputs": [],
      "stateMutability": "nonpayable",
      "type": "function"
    },
    {
      "inputs": [
        {
          "internalType": "bytes32",
          "name": "role",
          "type": "bytes32"
        },
        {
          "internalType": "address",
          "name": "account",
          "type": "address"
        }
      ],
      "name": "hasRole",
      "outputs": [
        {
          "internalType": "bool",
          "name": "",
          "type": "bool"
        }
      ],
      "stateMutability": "view",
      "type": "function"
    },
    {
      "inputs": [
        {
          "internalType": "bytes32",
          "name": "traderId",
          "type": "bytes32"
        }
      ],
      "name": "incrementTradeCount",
      "outputs": [],
      "stateMutability": "nonpayable",
      "type": "function"
    },
    {
      "inputs": [
        {
          "internalType": "address",
          "name": "_admin",
          "type": "address"
        },
        {
          "internalType": "address",
          "name": "_governance",
          "type": "address"
        },
        {
          "internalType": "address[]",
          "name": "_operators",
          "type": "address[]"
        }
      ],
      "name": "initialize",
      "outputs": [],
      "stateMutability": "nonpayable",
      "type": "function"
    },
    {
      "inputs": [
        {
          "internalType": "bytes32",
          "name": "traderId",
          "type": "bytes32"
        }
      ],
      "name": "isActive",
      "outputs": [
        {
          "internalType": "bool",
          "name": "",
          "type": "bool"
        }
      ],
      "stateMutability": "view",
      "type": "function"
    },
    {
      "inputs": [
        {
          "internalType": "bytes32",
          "name": "",
          "type": "bytes32"
        }
      ],
      "name": "nonces",
      "outputs": [
        {
          "internalType": "uint256",
          "name": "",
          "type": "uint256"
        }
      ],
      "stateMutability": "view",
      "type": "function"
    },
    {
      "inputs": [],
      "name": "pause",
      "outputs": [],
      "stateMutability": "nonpayable",
      "type": "function"
    },
    {
      "inputs": [],
      "name": "paused",
      "outputs": [
        {
          "internalType": "bool",
          "name": "",
          "type": "bool"
        }
      ],
      "stateMutability": "view",
      "type": "function"
    },
    {
      "inputs": [
        {
          "internalType": "bytes32",
          "name": "",
          "type": "bytes32"
        }
      ],
      "name": "performanceMetrics",
      "outputs": [
        {
          "internalType": "uint256",
          "name": "winRate",
          "type": "uint256"
        },
        {
          "internalType": "uint256",
          "name": "avgWin",
          "type": "uint256"
        },
        {
          "internalType": "uint256",
          "name": "avgLoss",
          "type": "uint256"
        },
        {
          "internalType": "uint256",
          "name": "sharpeRatio",
          "type": "uint256"
        },
        {
          "internalType": "uint256",
          "name": "maxDrawdown",
          "type": "uint256"
        },
        {
          "internalType": "uint256",
          "name": "consistencyScore",
          "type": "uint256"
        },
        {
          "internalType": "uint256",
          "name": "lastUpdated",
          "type": "uint256"
        }
      ],
      "stateMutability": "view",
      "type": "function"
    },
    {
      "inputs": [],
      "name": "proxiableUUID",
      "outputs": [
        {
          "internalType": "bytes32",
          "name": "",
          "type": "bytes32"
        }
      ],
      "stateMutability": "view",
      "type": "function"
    },
    {
      "inputs": [
        {
          "internalType": "bytes32",
          "name": "traderId",
          "type": "bytes32"
        },
        {
          "internalType": "address",
          "name": "traderAddress",
          "type": "address"
        },
        {
          "internalType": "uint8",
          "name": "initialTier",
          "type": "uint8"
        },
        {
          "internalType": "string",
          "name": "metadata",
          "type": "string"
        },
        {
          "internalType": "bytes",
          "name": "operatorSignature",
          "type": "bytes"
        }
      ],
      "name": "registerTrader",
      "outputs": [],
      "stateMutability": "nonpayable",
      "type": "function"
    },
    {
      "inputs": [
        {
          "internalType": "bytes32",
          "name": "role",
          "type": "bytes32"
        },
        {
          "internalType": "address",
          "name": "callerConfirmation",
          "type": "address"
        }
      ],
      "name": "renounceRole",
      "outputs": [],
      "stateMutability": "nonpayable",
      "type": "function"
    },
    {
      "inputs": [
        {
          "internalType": "bytes32",
          "name": "role",
          "type": "bytes32"
        },
        {
          "internalType": "address",
          "name": "account",
          "type": "address"
        }
      ],
      "name": "revokeRole",
      "outputs": [],
      "stateMutability": "nonpayable",
      "type": "function"
    },
    {
      "inputs": [
        {
          "internalType": "address",
          "name": "payoutManager",
          "type": "address"
        }
      ],
      "name": "setPayoutManager",
      "outputs": [],
      "stateMutability": "nonpayable",
      "type": "function"
    },
    {
      "inputs": [
        {
          "internalType": "bytes32",
          "name": "traderId",
          "type": "bytes32"
        },
        {
          "internalType": "uint8",
          "name": "newTier",
          "type": "uint8"
        }
      ],
      "name": "setTier",
      "outputs": [],
      "stateMutability": "nonpayable",
      "type": "function"
    },
    {
      "inputs": [
        {
          "internalType": "bytes4",
          "name": "interfaceId",
          "type": "bytes4"
        }
      ],
      "name": "supportsInterface",
      "outputs": [
        {
          "internalType": "bool",
          "name": "",
          "type": "bool"
        }
      ],
      "stateMutability": "view",
      "type": "function"
    },
    {
      "inputs": [
        {
          "internalType": "uint8",
          "name": "",
          "type": "uint8"
        }
      ],
      "name": "tierConfigs",
      "outputs": [
        {
          "internalType": "uint8",
          "name": "tier",
          "type": "uint8"
        },
        {
          "internalType": "uint256",
          "name": "capitalAllocation",
          "type": "uint256"
        },
        {
          "internalType": "uint256",
          "name": "maxDrawdownPct",
          "type": "uint256"
        },
        {
          "internalType": "uint256",
          "name": "profitSplitPct",
          "type": "uint256"
        },
        {
          "internalType": "uint256",
          "name": "minTradingDays",
          "type": "uint256"
        },
        {
          "internalType": "uint256",
          "name": "maxDailyLoss",
          "type": "uint256"
        },
        {
          "internalType": "bool",
          "name": "active",
          "type": "bool"
        }
      ],
      "stateMutability": "view",
      "type": "function"
    },
    {
      "inputs": [],
      "name": "totalTraders",
      "outputs": [
        {
          "internalType": "uint256",
          "name": "",
          "type": "uint256"
        }
      ],
      "stateMutability": "view",
      "type": "function"
    },
    {
      "inputs": [
        {
          "internalType": "bytes32",
          "name": "",
          "type": "bytes32"
        }
      ],
      "name": "traderAccounts",
      "outputs": [
        {
          "internalType": "bytes32",
          "name": "traderId",
          "type": "bytes32"
        },
        {
          "internalType": "address",
          "name": "traderAddress",
          "type": "address"
        },
        {
          "internalType": "uint8",
          "name": "currentTier",
          "type": "uint8"
        },
        {
          "internalType": "enum TraderAccountRegistry.AccountStatus",
          "name": "status",
          "type": "uint8"
        },
        {
          "internalType": "uint256",
          "name": "registeredAt",
          "type": "uint256"
        },
        {
          "internalType": "uint256",
          "name": "activatedAt",
          "type": "uint256"
        },
        {
          "internalType": "uint256",
          "name": "lastTierUpdate",
          "type": "uint256"
        },
        {
          "internalType": "uint256",
          "name": "totalTrades",
          "type": "uint256"
        },
        {
          "internalType": "int256",
          "name": "lifetimePnL",
          "type": "int256"
        },
        {
          "internalType": "uint256",
          "name": "breachCount",
          "type": "uint256"
        },
        {
          "internalType": "bool",
          "name": "kycVerified",
          "type": "bool"
        },
        {
          "internalType": "string",
          "name": "metadata",
          "type": "string"
        }
      ],
      "stateMutability": "view",
      "type": "function"
    },
    {
      "inputs": [
        {
          "internalType": "uint256",
          "name": "",
          "type": "uint256"
        }
      ],
      "name": "traderIds",
      "outputs": [
        {
          "internalType": "bytes32",
          "name": "",
          "type": "bytes32"
        }
      ],
      "stateMutability": "view",
      "type": "function"
    },
    {
      "inputs": [],
      "name": "unpause",
      "outputs": [],
      "stateMutability": "nonpayable",
      "type": "function"
    },
    {
      "inputs": [
        {
          "internalType": "bytes32",
          "name": "traderId",
          "type": "bytes32"
        },
        {
          "internalType": "int256",
          "name": "pnl",
          "type": "int256"
        }
      ],
      "name": "updateLifetimePnL",
      "outputs": [],
      "stateMutability": "nonpayable",
      "type": "function"
    },
    {
      "inputs": [
        {
          "internalType": "bytes32",
          "name": "traderId",
          "type": "bytes32"
        },
        {
          "internalType": "uint256",
          "name": "winRate",
          "type": "uint256"
        },
        {
          "internalType": "uint256",
          "name": "avgWin",
          "type": "uint256"
        },
        {
          "internalType": "uint256",
          "name": "avgLoss",
          "type": "uint256"
        },
        {
          "internalType": "uint256",
          "name": "sharpeRatio",
          "type": "uint256"
        },
        {
          "internalType": "uint256",
          "name": "maxDrawdown",
          "type": "uint256"
        },
        {
          "internalType": "uint256",
          "name": "consistencyScore",
          "type": "uint256"
        }
      ],
      "name": "updatePerformanceMetrics",
      "outputs": [],
      "stateMutability": "nonpayable",
      "type": "function"
    },
    {
      "inputs": [
        {
          "internalType": "bytes32",
          "name": "traderId",
          "type": "bytes32"
        },
        {
          "internalType": "enum TraderAccountRegistry.AccountStatus",
          "name": "newStatus",
          "type": "uint8"
        },
        {
          "internalType": "string",
          "name": "reason",
          "type": "string"
        }
      ],
      "name": "updateStatus",
      "outputs": [],
      "stateMutability": "nonpayable",
      "type": "function"
    },
    {
      "inputs": [
        {
          "internalType": "uint8",
          "name": "tier",
          "type": "uint8"
        },
        {
          "internalType": "uint256",
          "name": "capitalAllocation",
          "type": "uint256"
        },
        {
          "internalType": "uint256",
          "name": "maxDrawdownPct",
          "type": "uint256"
        },
        {
          "internalType": "uint256",
          "name": "profitSplitPct",
          "type": "uint256"
        },
        {
          "internalType": "uint256",
          "name": "minTradingDays",
          "type": "uint256"
        },
        {
          "internalType": "uint256",
          "name": "maxDailyLoss",
          "type": "uint256"
        }
      ],
      "name": "updateTierConfig",
      "outputs": [],
      "stateMutability": "nonpayable",
      "type": "function"
    },
    {
      "inputs": [
        {
          "internalType": "address",
          "name": "newImplementation",
          "type": "address"
        },
        {
          "internalType": "bytes",
          "name": "data",
          "type": "bytes"
        }
      ],
      "name": "upgradeToAndCall",
      "outputs": [],
      "stateMutability": "payable",
      "type": "function"
    }
  ],
  "bytecode": "0x60a080604052346100ea57306080527ff0c57e16840df040f15088dc2f81fe391c3923bec73e23a9662efc9c229c6a005460ff8160401c166100d9576002600160401b03196001600160401b03821601610073575b6040516137cd90816100f08239608051818181611f7b01526123bd0152f35b6001600160401b0319166001600160401b039081177ff0c57e16840df040f15088dc2f81fe391c3923bec73e23a9662efc9c229c6a005581527fc7f505b2f371ae2175ee4913f4499e1f2633a7b5936321eed1cdaeb6115181d290602090a13880610054565b63f92ee8a960e01b60005260046000fd5b600080fdfe608080604052600436101561001357600080fd5b60003560e01c90816301ffc9a7146129bf57508063248a9ca314612999578063264508c61461292c5780632f2ff15d146128fb5780632f946356146127a05780633249e47414612768578063359de99b146109a057806336568abe146127225780633b018fcf1461266e5780633f4ba83a146125eb578063405d5d46146125cd5780634f1ef2861461236f5780634fa82a351461216d57806351c3748314611fd257806352d1902d14611f685780635c36901c14611f265780635c975abb14611ef657806370c12e7b14611d385780637181896f14611cfb57806375b238fc14611cc057806377a24f36146111ef57806383ffc4a4146111d15780638456cb591461115d5780638538dcc014610b115780638c4df354146109da5780638e6f0f23146109a057806391d14854146109465780639da9db2a146108c95780639e317f121461089d578063a217fddf14610881578063ad3cb1cc1461083a578063af3a19c71461081e578063b62ea905146107d0578063bb813b0014610507578063c022c52314610422578063d547741f146103ea578063e19ed41b14610313578063e1f1c4a7146102f6578063f36c8f5c146102bb578063f5b541a614610280578063f61265dd146102455763fc399ad9146101ed57600080fd5b3461024057602036600319011261024057600435610209612f36565b8060005260016020526102226040600020541515612d6b565b6000526001602052600560406000200161023c8154612e34565b9055005b600080fd5b346102405760003660031901126102405760206040517f2a8c1a51b640c7a7eb9d0cfee544da936bdc7aa3f3b6e21420c5748f3bc8bfb08152f35b346102405760003660031901126102405760206040517f97667070c54ef182b0f5858b034beac1b6f3089aa2d3188bb1e8929f4fa9b9298152f35b346102405760003660031901126102405760206040517f71840dc4906352362b0cdaf79870196c8e42acafade72d5d5a6d59291253ceb18152f35b346102405760003660031901126102405760206040516127108152f35b34610240576020366003190112610240576004356000526001602052604060002080546103e6600183015492600281015490600381015460048201546005830154600684015491600785015493610374600960ff6008890154169701612bde565b966103aa6040519b8c9b8c5260018060a01b03811660208d015260ff8160a01c1660408d015260ff60608d019160a81c16612b29565b60808a015260a089015260c088015260e08701526101008601526101208501521515610140840152610180610160840152610180830190612b36565b0390f35b3461024057604036600319011261024057610420600435610409612a12565b9061041b61041682612c82565b612f96565b6133bf565b005b346102405760203660031901126102405760ff61043d612a3e565b610445612ce8565b50166001811015806104fc575b61045b90612ca3565b600052600060205260e0604060002060405161047681612a7f565b60ff82541691828252600181015460208301908152600282015460408401908152600383015490606085019182526004840154926080860193845260c060ff600660058801549760a08a01988952015416960195151586526040519687525160208701525160408601525160608501525160808401525160a083015251151560c0820152f35b506005811115610452565b34610240576060366003190112610240576004356024356006811015610240576044356001600160401b03811161024057610546903690600401612b77565b919061055061345f565b336000908152600080516020613778833981519152602052604090205460ff1680156107aa575b156107655783600052600160205260406000209161059783541515612d6b565b600183019160ff835460a81c169260068410156106c05760009084841461072857836105c291612db7565b6001841490818061071d575b9181926000146106ec57505060075480156106d657600019016007555b6106c0577f0fc79ea72e444195fdcd026438f62ea7436728033a679cb739b87d9282c98c639461063c8361063296600261064d961461066a575b5060405196878097612b29565b6020860190612b29565b608060408501526080840191612e43565b4260608301520390a2600160008051602061373883398151915255005b6007016106778154612e34565b9055887f91fe0647947610daf705b3e59fde8751a34940758c9625ea0bd79c09640a3ae960405160408152806106b160408201888a612e43565b4260208301520390a289610625565b634e487b7160e01b600052602160045260246000fd5b634e487b7160e01b600052601160045260246000fd5b15908161070d575b50156105eb57610705600754612e34565b6007556105eb565b90506106c05760018314816106f4565b5060018414156105ce565b60405162461bcd60e51b815260206004820152601560248201527452656769737472793a2053616d652073746174757360581b6044820152606490fd5b60405162461bcd60e51b815260206004820152601860248201527f52656769737472793a204e6f7420617574686f72697a656400000000000000006044820152606490fd5b503360009081526000805160206136b8833981519152602052604090205460ff16610577565b34610240576040366003190112610240576004356107ec612f36565b8060005260016020526108056040600020541515612d6b565b6000526001602052602435600660406000200155600080f35b3461024057600036600319011261024057602060405160058152f35b34610240576000366003190112610240576103e6604080519061085d8183612ab6565b60058252640352e302e360dc1b602083015251918291602083526020830190612b36565b3461024057600036600319011261024057602060405160008152f35b346102405760203660031901126102405760043560005260046020526020604060002054604051908152f35b346102405760203660031901126102405760ff6108e4612a3e565b16600052600060205260e0604060002060ff815416906001810154906002810154600382015460048301549160ff600660058601549501541694604051968752602087015260408601526060850152608084015260a0830152151560c0820152f35b346102405760403660031901126102405761095f612a12565b6004356000526000805160206136f883398151915260205260406000209060018060a01b0316600052602052602060ff604060002054166040519015158152f35b34610240576020366003190112610240576001600160a01b036109c1612a28565b1660005260026020526020604060002054604051908152f35b34610240576020366003190112610240576004356109f6612f36565b6109fe61345f565b8060005260016020526040600020610a1881541515612d6b565b6001810160ff815460a81c1660068110156106c05780610ad3577f0fc79ea72e444195fdcd026438f62ea7436728033a679cb739b87d9282c98c639260c092600160a81b60ff60a81b19825416179055600342910155610a79600754612e34565b600755610a896040518092612b29565b600160208201526080604082015260116080820152701058d8dbdd5b9d081858dd1a5d985d1959607a1b60a0820152426060820152a2600160008051602061373883398151915255005b60405162461bcd60e51b815260206004820152601660248201527552656769737472793a204e6f7420696e61637469766560501b6044820152606490fd5b346102405760a036600319011261024057600435610b2d612a12565b60443560ff811690818103610240576064356001600160401b03811161024057610b5b903690600401612b77565b90916084356001600160401b03811161024057610b7c903690600401612b77565b610b8792919261345f565b610b8f61349b565b8715611118576001600160a01b03871696610bab881515612ddb565b8860005260016020526040600020546110d35787600052600260205260406000205461108e57610cba9389610cab92610cb19560018b101580611083575b610bf290612ca3565b8a6000526000602052610c0f60ff60066040600020015416612d1f565b8260005260046020526040600020549060405192602084019485526bffffffffffffffffffffffff199060601b16604084015260ff60f81b9060f81b16605483015260558201524660758201523060601b609582015260898152610c7460a982612ab6565b5190207f19457468657265756d205369676e6564204d6573736167653a0a333200000000600052601c52603c600020923691612af2565b906134f3565b9092919261352f565b6001600160a01b031660009081527f448256db8f8fb95ee3eaaf89c1051414494e85cebb6057fcf996cc3d0ccfb456602052604090205460ff16156110325784918260005260046020526040600020610d138154612e34565b905560405190610d2282612a9a565b8382526020820192868452826040810192878452606082019360008552608083019442865260a084016000815260c0850191428352610de160ff60e088019560008752610d8c6101008a019860008a526101406101208c019b60008d52019b60018d523691612af2565b6101608d0190815260009e8f52600160208190526040909f209c518d559c519d8c01805491516001600160a81b03199092166001600160a01b039f909f169e909e17911660a01b60ff60a01b16178c55999a99565b519660068810156106c057610dfb610e379860099b612db7565b516002890155516003880155516004870155516005860155516006850155516007840155511515600883019060ff801983541691151516179055565b0190518051906001600160401b038211610f59578190610e578454612ba4565b601f8111610fdf575b50602090601f8311600114610f7a57600092610f6f575b50508160011b916000199060031b1c19161790555b816000526002602052826040600020556005549068010000000000000000821015610f595760407f10e4f5143da79d00e5eb0a07724d2f4b1e0ece184dd1e3b0f36a6631a090f57991610ee6846001889601600555612a4e565b81549060031b9086821b91600019901b1916179055610f06600654612e34565b6006558151908152426020820152a37fb19b6bfd9ec161e888ae37570362514d2108ddfe400efed0ebb31b23dd1f1aae6040805160018152426020820152a2600160008051602061373883398151915255005b634e487b7160e01b600052604160045260246000fd5b015190508680610e77565b60008581528281209350601f198516905b818110610fc75750908460019594939210610fae575b505050811b019055610e8c565b015160001960f88460031b161c19169055868080610fa1565b92936020600181928786015181550195019301610f8b565b909150836000526020600020601f840160051c81019160208510611028575b90601f859493920160051c01905b8181106110195750610e60565b6000815584935060010161100c565b9091508190610ffe565b60405162461bcd60e51b8152602060048201526024808201527f52656769737472793a20496e76616c6964206f70657261746f72207369676e616044820152637475726560e01b6064820152608490fd5b5060058b1115610be9565b60405162461bcd60e51b815260206004820152601c60248201527f52656769737472793a20416464726573732072656769737465726564000000006044820152606490fd5b60405162461bcd60e51b815260206004820152601c60248201527f52656769737472793a20416c72656164792072656769737465726564000000006044820152606490fd5b60405162461bcd60e51b815260206004820152601b60248201527f52656769737472793a20496e76616c69642074726164657220494400000000006044820152606490fd5b3461024057600036600319011261024057611176612ed6565b61117e61349b565b600160ff19600080516020613718833981519152541617600080516020613718833981519152557f62e78cea01bee320cd4e420270b5ea74000d11b0c9f74754ebdbfc544b05a2586020604051338152a1005b34610240576000366003190112610240576020600654604051908152f35b3461024057606036600319011261024057611208612a28565b611210612a12565b604435916001600160401b0383116102405736602384011215610240578260040135926001600160401b038411610f59578360051b90604051946112576020840187612ab6565b8552602460208601928201019036821161024057602401915b818310611ca057505050600080516020613758833981519152549160ff8360401c1615926001600160401b03811680159081611c98575b6001149081611c8e575b159081611c85575b50611c745767ffffffffffffffff1981166001176000805160206137588339815191525583611c47575b506001600160a01b03821615611c0b576001600160a01b03811615611bc657611352611358926113116134c5565b6113196134c5565b6113216134c5565b6113296134c5565b6001600080516020613738833981519152556113436134c5565b61134c8161307e565b50613118565b506131b0565b5060005b82518110156113e9576001600160a01b036113778285612e20565b5116156113a45760019061139d6001600160a01b036113968387612e20565b511661326c565b500161135c565b60405162461bcd60e51b815260206004820152601760248201527f52656769737472793a205a65726f206f70657261746f720000000000000000006044820152606490fd5b506115676040516113f981612a7f565b6001808252690a968163f0a57b40000060208084019182526101f460408501908152611b5860608601908152600a6080870190815268878678326eac90000060a0880190815260c0880187815260009788529690945295517fada5013122d395ba3c54772283fb069b10426056ef8ca54750cb9bb552a59e7d805460ff1990811660ff9384161790915594517fada5013122d395ba3c54772283fb069b10426056ef8ca54750cb9bb552a59e7e5591517fada5013122d395ba3c54772283fb069b10426056ef8ca54750cb9bb552a59e7f55517fada5013122d395ba3c54772283fb069b10426056ef8ca54750cb9bb552a59e805593517fada5013122d395ba3c54772283fb069b10426056ef8ca54750cb9bb552a59e8155517fada5013122d395ba3c54772283fb069b10426056ef8ca54750cb9bb552a59e825590517fada5013122d395ba3c54772283fb069b10426056ef8ca54750cb9bb552a59e8380549115159093169116179055565b6116e760405161157681612a7f565b600280825269152d02c7e14af6800000602080840191825261025860408501908152611d4c60608601908152600f6080870190815269014542ba12a337c0000060a08801908152600160c0890190815260009788529690945295517fabbb5caa7dda850e60932de0934eb1f9d0f59695050f761dc64e443e5030a569805460ff1990811660ff9384161790915594517fabbb5caa7dda850e60932de0934eb1f9d0f59695050f761dc64e443e5030a56a5591517fabbb5caa7dda850e60932de0934eb1f9d0f59695050f761dc64e443e5030a56b55517fabbb5caa7dda850e60932de0934eb1f9d0f59695050f761dc64e443e5030a56c5593517fabbb5caa7dda850e60932de0934eb1f9d0f59695050f761dc64e443e5030a56d55517fabbb5caa7dda850e60932de0934eb1f9d0f59695050f761dc64e443e5030a56e5590517fabbb5caa7dda850e60932de0934eb1f9d0f59695050f761dc64e443e5030a56f80549115159093169116179055565b6118676040516116f681612a7f565b60038082526934f086f3b33b68400000602080840191825261032060408501908152611f406060860190815260146080870190815269043c33c193756480000060a08801908152600160c0890190815260009788529690945295517f101e368776582e57ab3d116ffe2517c0a585cd5b23174b01e275c2d8329c3d83805460ff1990811660ff9384161790915594517f101e368776582e57ab3d116ffe2517c0a585cd5b23174b01e275c2d8329c3d845591517f101e368776582e57ab3d116ffe2517c0a585cd5b23174b01e275c2d8329c3d8555517f101e368776582e57ab3d116ffe2517c0a585cd5b23174b01e275c2d8329c3d865593517f101e368776582e57ab3d116ffe2517c0a585cd5b23174b01e275c2d8329c3d8755517f101e368776582e57ab3d116ffe2517c0a585cd5b23174b01e275c2d8329c3d885590517f101e368776582e57ab3d116ffe2517c0a585cd5b23174b01e275c2d8329c3d8980549115159093169116179055565b6119e760405161187681612a7f565b60048082526969e10de76676d080000060208084019182526103e860408501908152611f4060608601908152601960808701908152690a968163f0a57b40000060a08801908152600160c0890190815260009788529690945295517f52d75039926638d3c558b2bdefb945d5be8dae29dedd1c313212a4d472d9fde5805460ff1990811660ff9384161790915594517f52d75039926638d3c558b2bdefb945d5be8dae29dedd1c313212a4d472d9fde65591517f52d75039926638d3c558b2bdefb945d5be8dae29dedd1c313212a4d472d9fde755517f52d75039926638d3c558b2bdefb945d5be8dae29dedd1c313212a4d472d9fde85593517f52d75039926638d3c558b2bdefb945d5be8dae29dedd1c313212a4d472d9fde955517f52d75039926638d3c558b2bdefb945d5be8dae29dedd1c313212a4d472d9fdea5590517f52d75039926638d3c558b2bdefb945d5be8dae29dedd1c313212a4d472d9fdeb80549115159093169116179055565b611b676040516119f681612a7f565b600580825269d3c21bcecceda100000060208084019182526104b06040850190815261213460608601908152601e60808701908152691969368974c05b00000060a08801908152600160c0890190815260009788529690945295517f2b232c97452f0950c94e2539fdc7e69d21166113cf7a9bcb99b220a3fe5d720a805460ff1990811660ff9384161790915594517f2b232c97452f0950c94e2539fdc7e69d21166113cf7a9bcb99b220a3fe5d720b5591517f2b232c97452f0950c94e2539fdc7e69d21166113cf7a9bcb99b220a3fe5d720c55517f2b232c97452f0950c94e2539fdc7e69d21166113cf7a9bcb99b220a3fe5d720d5593517f2b232c97452f0950c94e2539fdc7e69d21166113cf7a9bcb99b220a3fe5d720e55517f2b232c97452f0950c94e2539fdc7e69d21166113cf7a9bcb99b220a3fe5d720f5590517f2b232c97452f0950c94e2539fdc7e69d21166113cf7a9bcb99b220a3fe5d721080549115159093169116179055565b611b6d57005b68ff0000000000000000196000805160206137588339815191525416600080516020613758833981519152557fc7f505b2f371ae2175ee4913f4499e1f2633a7b5936321eed1cdaeb6115181d2602060405160018152a1005b60405162461bcd60e51b815260206004820152601960248201527f52656769737472793a205a65726f20676f7665726e616e6365000000000000006044820152606490fd5b60405162461bcd60e51b81526020600482015260146024820152732932b3b4b9ba393c9d102d32b9379030b236b4b760611b6044820152606490fd5b68ffffffffffffffffff1916680100000000000000011760008051602061375883398151915255846112e3565b63f92ee8a960e01b60005260046000fd5b905015866112b9565b303b1591506112b1565b8591506112a7565b82356001600160a01b038116810361024057815260209283019201611270565b346102405760003660031901126102405760206040517fa49807205ce4d355092ef5a8a18f56e8913cf4a201fbe287825b095693c217758152f35b3461024057602036600319011261024057610420611d17612a28565b611d1f612ed6565b611d336001600160a01b0382161515612ddb565b612fe0565b34610240576020366003190112610240576060610160604051611d5a81612a9a565b60008152600060208201526000604082015260008382015260006080820152600060a0820152600060c0820152600060e0820152600061010082015260006101208201526000610140820152015260043560005260016020526040600020604051611dc481612a9a565b815481526001820154602082019260018060a01b038216845260ff6040840192818160a01c16845260a81c16606084019060068110156106c0578152600282015460808501908152600383015460a08601908152600484015460c0870190815260058501549160e0880192835260068601549361010089019485526007870154956101208a01968752600888015460ff16976101408b019815158952600901611e6c90612bde565b986101608b01998a526040519b8c9b60208d525160208d0152600160a01b6001900390511660408c01525160ff1660608b01525160808a01611ead91612b29565b5160a08901525160c08801525160e087015251610100860152516101208501525161014084015251151561016083015251610180820161018090526101a082016103e691612b36565b3461024057600036600319011261024057602060ff60008051602061371883398151915254166040519015158152f35b3461024057602036600319011261024057600435600052600160205260ff60016040600020015460a81c1660068110156106c057602090600160405191148152f35b34610240576000366003190112610240577f00000000000000000000000000000000000000000000000000000000000000006001600160a01b03163003611fc15760206040516000805160206136d88339815191528152f35b63703e46dd60e11b60005260046000fd5b346102405760e03660031901126102405760043560c435608435602435611ff7612f36565b8360005260016020526120106040600020541515612d6b565b61271081116121285761271083116120d7577f3cf30afdb3aadbe8c23142245b3ee779637b81baca0b0afffe4a67d967326f2a9260809260405161205381612a7f565b8381526006602082016044358152604083016064358152606084018581528885019060a435825260a086019288845260c08701944286528d60005260036020526040600020975188555160018801555160028701555160038601555160048501555160058401555191015560405192835260208301526040820152426060820152a2005b60405162461bcd60e51b815260206004820152602360248201527f52656769737472793a20496e76616c696420636f6e73697374656e63792073636044820152626f726560e81b6064820152608490fd5b60405162461bcd60e51b815260206004820152601a60248201527f52656769737472793a20496e76616c69642077696e20726174650000000000006044820152606490fd5b346102405760403660031901126102405760043560243560ff81169081810361024057612198612f36565b6121a061345f565b600182101580612364575b6121b490612ca3565b8160005260006020526121d160ff60066040600020015416612d1f565b8260005260016020526040600020906121ec82541515612d6b565b6001820160ff815460a01c169283851461232957815460ff60a01b191660a09390931b60ff60a01b16929092178155849160044291015582841180612306575b917f01146e56521c9334edd231710d5c2473cd4eb45bbaf3ff8e91d8478414eed246949160609493612281575b50506040519182526020820152426040820152a2600160008051602061373883398151915255005b805460ff60a81b198116600160aa1b179091556040517f0fc79ea72e444195fdcd026438f62ea7436728033a679cb739b87d9282c98c639160c091906122ce90829060a81c60ff16612b29565b6004602082015260806040820152600d60808201526c151a595c881d5c19dc98591959609a1b60a08201524287820152a28486612259565b5091905060ff825460a81c169260068410156106c057929091849160011461222c565b60405162461bcd60e51b81526020600482015260136024820152722932b3b4b9ba393c9d1029b0b6b2903a34b2b960691b6044820152606490fd5b5060058211156121ab565b604036600319011261024057612383612a28565b6024356001600160401b0381116102405736602382011215610240576123b3903690602481600401359101612af2565b6001600160a01b037f0000000000000000000000000000000000000000000000000000000000000000163081149081156125aa575b50611fc1576123f5612e64565b6001600160a01b038216918215612565576040516352d1902d60e01b8152602081600481875afa60009181612531575b5061243f5783634c9c8ce360e01b60005260045260246000fd5b806000805160206136d883398151915285920361251d5750813b15612509576000805160206136d883398151915280546001600160a01b031916821790557fbc7cd75a20ee27fd9adebab32041f755214dbc6bffa90cc0225b39da2e5c2d3b600080a28151156124ef5760008083602061042095519101845af43d156124e7573d916124ca83612ad7565b926124d86040519485612ab6565b83523d6000602085013e6135a1565b6060916135a1565b5050346124f857005b63b398979f60e01b60005260046000fd5b634c9c8ce360e01b60005260045260246000fd5b632a87526960e21b60005260045260246000fd5b9091506020813d60201161255d575b8161254d60209383612ab6565b8101031261024057519085612425565b3d9150612540565b60405162461bcd60e51b815260206004820152601d60248201527f52656769737472793a205a65726f20696d706c656d656e746174696f6e0000006044820152606490fd5b6000805160206136d8833981519152546001600160a01b031614159050836123e8565b34610240576000366003190112610240576020600754604051908152f35b3461024057600036600319011261024057612604612ed6565b6000805160206137188339815191525460ff81161561265d5760ff1916600080516020613718833981519152557f5db9ee0a495bf2e6ff9c91a7834c1ba4fdd244a5e8aa4e537bd38aeae4b073aa6020604051338152a1005b638dfc202b60e01b60005260046000fd5b3461024057602036600319011261024057612687612ce8565b50600435600052600360205260e060406000206040516126a681612a7f565b815491828252600181015460208301908152600282015460408401908152600383015490606085019182526004840154926080860193845260c0600660058701549660a08901978852015496019586526040519687525160208701525160408601525160608501525160808401525160a08301525160c0820152f35b346102405760403660031901126102405761273b612a12565b336001600160a01b0382160361275757610420906004356133bf565b63334bd91960e11b60005260046000fd5b346102405760203660031901126102405760043560055481101561024057612791602091612a4e565b90549060031b1c604051908152f35b346102405760c0366003190112610240576127b9612a3e565b6024359060443560ff606435926127ce612e64565b16926001841015806128f0575b6127e490612ca3565b61271082116128ab5761271083116128665760008481526020818152604091829020600181018490556002810185905560038101869055608435600482015560a4356005909101558151928352820192909252908101919091527fa1248bbcda0824e3a0b3b0105acf26b54b0ba09e8a30f6cbe48bab96a325ec8690606090a2005b60405162461bcd60e51b815260206004820152601e60248201527f52656769737472793a20496e76616c69642070726f6669742073706c697400006044820152606490fd5b60405162461bcd60e51b815260206004820152601a60248201527f52656769737472793a20496e76616c69642064726177646f776e0000000000006044820152606490fd5b5060058411156127db565b346102405760403660031901126102405761042060043561291a612a12565b9061292761041682612c82565b613328565b3461024057602036600319011261024057600435600052600360205260e06040600020805490600181015490600281015460038201546004830154916006600585015494015494604051968752602087015260408601526060850152608084015260a083015260c0820152f35b346102405760203660031901126102405760206129b7600435612c82565b604051908152f35b34610240576020366003190112610240576004359063ffffffff60e01b821680920361024057602091637965db0b60e01b8114908115612a01575b5015158152f35b6301ffc9a760e01b149050836129fa565b602435906001600160a01b038216820361024057565b600435906001600160a01b038216820361024057565b6004359060ff8216820361024057565b600554811015612a6957600560005260206000200190600090565b634e487b7160e01b600052603260045260246000fd5b60e081019081106001600160401b03821117610f5957604052565b61018081019081106001600160401b03821117610f5957604052565b90601f801991011681019081106001600160401b03821117610f5957604052565b6001600160401b038111610f5957601f01601f191660200190565b929192612afe82612ad7565b91612b0c6040519384612ab6565b829481845281830111610240578281602093846000960137010152565b9060068210156106c05752565b919082519283825260005b848110612b62575050826000602080949584010152601f8019910116010190565b80602080928401015182828601015201612b41565b9181601f84011215610240578235916001600160401b038311610240576020838186019501011161024057565b90600182811c92168015612bd4575b6020831014612bbe57565b634e487b7160e01b600052602260045260246000fd5b91607f1691612bb3565b9060405191826000825492612bf284612ba4565b8084529360018116908115612c605750600114612c19575b50612c1792500383612ab6565b565b90506000929192526020600020906000915b818310612c44575050906020612c179282010138612c0a565b6020919350806001915483858901015201910190918492612c2b565b905060209250612c1794915060ff191682840152151560051b82010138612c0a565b6000526000805160206136f883398151915260205260016040600020015490565b15612caa57565b60405162461bcd60e51b81526020600482015260166024820152752932b3b4b9ba393c9d1024b73b30b634b2103a34b2b960511b6044820152606490fd5b60405190612cf582612a7f565b600060c0838281528260208201528260408201528260608201528260808201528260a08201520152565b15612d2657565b60405162461bcd60e51b815260206004820152601960248201527f52656769737472793a2054696572206e6f7420616374697665000000000000006044820152606490fd5b15612d7257565b60405162461bcd60e51b815260206004820152601a60248201527f52656769737472793a20547261646572206e6f7420666f756e640000000000006044820152606490fd5b9060068110156106c057815460ff60a81b191660a89190911b60ff60a81b16179055565b15612de257565b60405162461bcd60e51b815260206004820152601660248201527552656769737472793a205a65726f206164647265737360501b6044820152606490fd5b8051821015612a695760209160051b010190565b60001981146106d65760010190565b908060209392818452848401376000828201840152601f01601f1916010190565b3360009081527f25f7f44d2cbb35948a0ec4a3daca6d9fef225ba74483a7793ae48fcb0272bb0c602052604090205460ff1615612e9d57565b63e2517d3f60e01b600052336004527f71840dc4906352362b0cdaf79870196c8e42acafade72d5d5a6d59291253ceb160245260446000fd5b3360009081526000805160206136b8833981519152602052604090205460ff1615612efd57565b63e2517d3f60e01b600052336004527fa49807205ce4d355092ef5a8a18f56e8913cf4a201fbe287825b095693c2177560245260446000fd5b336000908152600080516020613778833981519152602052604090205460ff1615612f5d57565b63e2517d3f60e01b600052336004527f2a8c1a51b640c7a7eb9d0cfee544da936bdc7aa3f3b6e21420c5748f3bc8bfb060245260446000fd5b60008181526000805160206136f88339815191526020908152604080832033845290915290205460ff1615612fc85750565b63e2517d3f60e01b6000523360045260245260446000fd5b6001600160a01b0381166000908152600080516020613778833981519152602052604090205460ff16613078576001600160a01b0316600081815260008051602061377883398151915260205260408120805460ff191660011790553391907f2a8c1a51b640c7a7eb9d0cfee544da936bdc7aa3f3b6e21420c5748f3bc8bfb0906000805160206136988339815191529080a4600190565b50600090565b6001600160a01b03811660009081527fb7db2dd08fcb62d0c9e08c51941cae53c267786a0b75803fb7960902fc8ef97d602052604090205460ff16613078576001600160a01b031660008181527fb7db2dd08fcb62d0c9e08c51941cae53c267786a0b75803fb7960902fc8ef97d60205260408120805460ff191660011790553391906000805160206136988339815191528180a4600190565b6001600160a01b03811660009081526000805160206136b8833981519152602052604090205460ff16613078576001600160a01b031660008181526000805160206136b883398151915260205260408120805460ff191660011790553391907fa49807205ce4d355092ef5a8a18f56e8913cf4a201fbe287825b095693c21775906000805160206136988339815191529080a4600190565b6001600160a01b03811660009081527f25f7f44d2cbb35948a0ec4a3daca6d9fef225ba74483a7793ae48fcb0272bb0c602052604090205460ff16613078576001600160a01b031660008181527f25f7f44d2cbb35948a0ec4a3daca6d9fef225ba74483a7793ae48fcb0272bb0c60205260408120805460ff191660011790553391907f71840dc4906352362b0cdaf79870196c8e42acafade72d5d5a6d59291253ceb1906000805160206136988339815191529080a4600190565b6001600160a01b03811660009081527f448256db8f8fb95ee3eaaf89c1051414494e85cebb6057fcf996cc3d0ccfb456602052604090205460ff16613078576001600160a01b031660008181527f448256db8f8fb95ee3eaaf89c1051414494e85cebb6057fcf996cc3d0ccfb45660205260408120805460ff191660011790553391907f97667070c54ef182b0f5858b034beac1b6f3089aa2d3188bb1e8929f4fa9b929906000805160206136988339815191529080a4600190565b60008181526000805160206136f8833981519152602090815260408083206001600160a01b038616845290915290205460ff166133b85760008181526000805160206136f8833981519152602090815260408083206001600160a01b0395909516808452949091528120805460ff19166001179055339291906000805160206136988339815191529080a4600190565b5050600090565b60008181526000805160206136f8833981519152602090815260408083206001600160a01b038616845290915290205460ff16156133b85760008181526000805160206136f8833981519152602090815260408083206001600160a01b0395909516808452949091528120805460ff19169055339291907ff6391f5c32d9c69d2a47ea670b442974b53935d1edc7fd64eb21e047a839171b9080a4600190565b6002600080516020613738833981519152541461348a57600260008051602061373883398151915255565b633ee5aeb560e01b60005260046000fd5b60ff60008051602061371883398151915254166134b457565b63d93c066560e01b60005260046000fd5b60ff6000805160206137588339815191525460401c16156134e257565b631afcd79f60e31b60005260046000fd5b81519190604183036135245761351d92506020820151906060604084015193015160001a90613602565b9192909190565b505060009160029190565b91909160048110156106c0578061354557509050565b6000600182036135605763f645eedf60e01b60005260046000fd5b506002810361357e578263fce698f760e01b60005260045260246000fd5b909160036000921461358e575050565b6335e2f38360e21b825260045260249150fd5b906135c757508051156135b657602081519101fd5b63d6bda27560e01b60005260046000fd5b815115806135f9575b6135d8575090565b639996b31560e01b60009081526001600160a01b0391909116600452602490fd5b50803b156135d0565b91907f7fffffffffffffffffffffffffffffff5d576e7357a4501ddfe92f46681b20a0841161368b579160209360809260ff60009560405194855216868401526040830152606082015282805260015afa1561367f576000516001600160a01b038116156136735790600090600090565b50600090600190600090565b6040513d6000823e3d90fd5b5050506000916003919056fe2f8788117e7eff1d82e926ec794901d17c78024a50270940304540a733656f0db16e88c42fd4e48df2dd6a2eabd6bc9aec654ec170056b470819f8892cc6431c360894a13ba1a3210667c828492db98dca3e2076cc3735a920a3ca505d382bbc02dd7bc7dec4dceedda775e58dd541e08a116c6c53815c0bd028192f7b626800cd5ed15c6e187e77e9aee88184c21f4f2182ab5827cb3b7e07fbedcd63f033009b779b17422d0df92223018b32b4d1fa46e071723d6817e2486d003becc55f00f0c57e16840df040f15088dc2f81fe391c3923bec73e23a9662efc9c229c6a00a4280a8c27faa5fdc809c5286a3fc84add5e042b76219ff84ccedeeea33b1e84a264697066735822122009b962c589a374350b8a3d1e85e903d1b752f7d114ca540bd6462a9dadeead6f64736f6c634300081b0033",
  "linkReferences": {},
  "deployedLinkReferences": {}
}