{
  "_format": "hh-sol-artifact-1",
  "contractName": "PayoutManager",
  "sourceName": "contracts/PayoutManager.sol",
  "abi": [
    {
      "inputs": [],
      "stateMutability": "nonpayable",
      "type": "constructor"
    },
    {
      "inputs": [],
      "name": "AccessControlBadConfirmation",
      "type": "error"
    },
    {
      "inputs": [
        {
          "internalType": "address",
          "name": "account",
          "type": "address"
        },
        {
          "internalType": "bytes32",
          "name": "neededRole",
          "type": "bytes32"
        }
      ],
      "name": "AccessControlUnauthorizedAccount",
      "type": "error"
    },
    {
      "inputs": [
        {
          "internalType": "address",
          "name": "target",
          "type": "address"
        }
      ],
      "name": "AddressEmptyCode",
      "type": "error"
    },
    {
      "inputs": [],
      "name": "ECDSAInvalidSignature",
      "type": "error"
    },
    {
      "inputs": [
        {
          "internalType": "uint256",
          "name": "length",
          "type": "uint256"
        }
      ],
      "name": "ECDSAInvalidSignatureLength",
      "type": "error"
    },
    {
      "inputs": [
        {
          "internalType": "bytes32",
          "name": "s",
          "type": "bytes32"
        }
      ],
      "name": "ECDSAInvalidSignatureS",
      "type": "error"
    },
    {
      "inputs": [
        {
          "internalType": "address",
          "name": "implementation",
          "type": "address"
        }
      ],
      "name": "ERC1967InvalidImplementation",
      "type": "error"
    },
    {
      "inputs": [],
      "name": "ERC1967NonPayable",
      "type": "error"
    },
    {
      "inputs": [],
      "name": "EnforcedPause",
      "type": "error"
    },
    {
      "inputs": [],
      "name": "ExpectedPause",
      "type": "error"
    },
    {
      "inputs": [],
      "name": "FailedCall",
      "type": "error"
    },
    {
      "inputs": [],
      "name": "InvalidInitialization",
      "type": "error"
    },
    {
      "inputs": [],
      "name": "NotInitializing",
      "type": "error"
    },
    {
      "inputs": [],
      "name": "ReentrancyGuardReentrantCall",
      "type": "error"
    },
    {
      "inputs": [],
      "name": "UUPSUnauthorizedCallContext",
      "type": "error"
    },
    {
      "inputs": [
        {
          "internalType": "bytes32",
          "name": "slot",
          "type": "bytes32"
        }
      ],
      "name": "UUPSUnsupportedProxiableUUID",
      "type": "error"
    },
    {
      "anonymous": false,
      "inputs": [
        {
          "indexed": false,
          "internalType": "address",
          "name": "tradeLedger",
          "type": "address"
        },
        {
          "indexed": false,
          "internalType": "address",
          "name": "traderRegistry",
          "type": "address"
        },
        {
          "indexed": false,
          "internalType": "address",
          "name": "capitalPool",
          "type": "address"
        }
      ],
      "name": "ContractsUpdated",
      "type": "event"
    },
    {
      "anonymous": false,
      "inputs": [
        {
          "indexed": false,
          "internalType": "uint64",
          "name": "version",
          "type": "uint64"
        }
      ],
      "name": "Initialized",
      "type": "event"
    },
    {
      "anonymous": false,
      "inputs": [
        {
          "indexed": false,
          "internalType": "address",
          "name": "account",
          "type": "address"
        }
      ],
      "name": "Paused",
      "type": "event"
    },
    {
      "anonymous": false,
      "inputs": [
        {
          "indexed": false,
          "internalType": "uint256",
          "name": "oldCooldown",
          "type": "uint256"
        },
        {
          "indexed": false,
          "internalType": "uint256",
          "name": "newCooldown",
          "type": "uint256"
        }
      ],
      "name": "PayoutCooldownUpdated",
      "type": "event"
    },
    {
      "anonymous": false,
      "inputs": [
        {
          "indexed": true,
          "internalType": "bytes32",
          "name": "requestId",
          "type": "bytes32"
        },
        {
          "indexed": true,
          "internalType": "bytes32",
          "name": "traderId",
          "type": "bytes32"
        },
        {
          "indexed": false,
          "internalType": "address",
          "name": "recipient",
          "type": "address"
        },
        {
          "indexed": false,
          "internalType": "uint256",
          "name": "amount",
          "type": "uint256"
        },
        {
          "indexed": false,
          "internalType": "uint256",
          "name": "timestamp",
          "type": "uint256"
        }
      ],
      "name": "PayoutExecuted",
      "type": "event"
    },
    {
      "anonymous": false,
      "inputs": [
        {
          "indexed": true,
          "internalType": "bytes32",
          "name": "requestId",
          "type": "bytes32"
        },
        {
          "indexed": true,
          "internalType": "bytes32",
          "name": "traderId",
          "type": "bytes32"
        },
        {
          "indexed": false,
          "internalType": "string",
          "name": "reason",
          "type": "string"
        }
      ],
      "name": "PayoutRejected",
      "type": "event"
    },
    {
      "anonymous": false,
      "inputs": [
        {
          "indexed": true,
          "internalType": "bytes32",
          "name": "requestId",
          "type": "bytes32"
        },
        {
          "indexed": true,
          "internalType": "bytes32",
          "name": "traderId",
          "type": "bytes32"
        },
        {
          "indexed": false,
          "internalType": "address",
          "name": "recipient",
          "type": "address"
        },
        {
          "indexed": false,
          "internalType": "int256",
          "name": "grossPnL",
          "type": "int256"
        },
        {
          "indexed": false,
          "internalType": "uint256",
          "name": "traderShare",
          "type": "uint256"
        }
      ],
      "name": "PayoutRequested",
      "type": "event"
    },
    {
      "anonymous": false,
      "inputs": [
        {
          "indexed": true,
          "internalType": "bytes32",
          "name": "role",
          "type": "bytes32"
        },
        {
          "indexed": true,
          "internalType": "bytes32",
          "name": "previousAdminRole",
          "type": "bytes32"
        },
        {
          "indexed": true,
          "internalType": "bytes32",
          "name": "newAdminRole",
          "type": "bytes32"
        }
      ],
      "name": "RoleAdminChanged",
      "type": "event"
    },
    {
      "anonymous": false,
      "inputs": [
        {
          "indexed": true,
          "internalType": "bytes32",
          "name": "role",
          "type": "bytes32"
        },
        {
          "indexed": true,
          "internalType": "address",
          "name": "account",
          "type": "address"
        },
        {
          "indexed": true,
          "internalType": "address",
          "name": "sender",
          "type": "address"
        }
      ],
      "name": "RoleGranted",
      "type": "event"
    },
    {
      "anonymous": false,
      "inputs": [
        {
          "indexed": true,
          "internalType": "bytes32",
          "name": "role",
          "type": "bytes32"
        },
        {
          "indexed": true,
          "internalType": "address",
          "name": "account",
          "type": "address"
        },
        {
          "indexed": true,
          "internalType": "address",
          "name": "sender",
          "type": "address"
        }
      ],
      "name": "RoleRevoked",
      "type": "event"
    },
    {
      "anonymous": false,
      "inputs": [
        {
          "indexed": true,
          "internalType": "bytes32",
          "name": "traderId",
          "type": "bytes32"
        },
        {
          "indexed": false,
          "internalType": "uint8",
          "name": "oldTier",
          "type": "uint8"
        },
        {
          "indexed": false,
          "internalType": "uint8",
          "name": "newTier",
          "type": "uint8"
        },
        {
          "indexed": false,
          "internalType": "uint256",
          "name": "timestamp",
          "type": "uint256"
        }
      ],
      "name": "TierUpgradeAuthorized",
      "type": "event"
    },
    {
      "anonymous": false,
      "inputs": [
        {
          "indexed": false,
          "internalType": "address",
          "name": "account",
          "type": "address"
        }
      ],
      "name": "Unpaused",
      "type": "event"
    },
    {
      "anonymous": false,
      "inputs": [
        {
          "indexed": true,
          "internalType": "address",
          "name": "implementation",
          "type": "address"
        }
      ],
      "name": "Upgraded",
      "type": "event"
    },
    {
      "inputs": [],
      "name": "ADMIN_ROLE",
      "outputs": [
        {
          "internalType": "bytes32",
          "name": "",
          "type": "bytes32"
        }
      ],
      "stateMutability": "view",
      "type": "function"
    },
    {
      "inputs": [],
      "name": "BASIS_POINTS",
      "outputs": [
        {
          "internalType": "uint256",
          "name": "",
          "type": "uint256"
        }
      ],
      "stateMutability": "view",
      "type": "function"
    },
    {
      "inputs": [],
      "name": "DEFAULT_ADMIN_ROLE",
      "outputs": [
        {
          "internalType": "bytes32",
          "name": "",
          "type": "bytes32"
        }
      ],
      "stateMutability": "view",
      "type": "function"
    },
    {
      "inputs": [],
      "name": "DEFAULT_PAYOUT_COOLDOWN",
      "outputs": [
        {
          "internalType": "uint256",
          "name": "",
          "type": "uint256"
        }
      ],
      "stateMutability": "view",
      "type": "function"
    },
    {
      "inputs": [],
      "name": "GOVERNANCE_ROLE",
      "outputs": [
        {
          "internalType": "bytes32",
          "name": "",
          "type": "bytes32"
        }
      ],
      "stateMutability": "view",
      "type": "function"
    },
    {
      "inputs": [],
      "name": "MIN_PAYOUT",
      "outputs": [
        {
          "internalType": "uint256",
          "name": "",
          "type": "uint256"
        }
      ],
      "stateMutability": "view",
      "type": "function"
    },
    {
      "inputs": [],
      "name": "OPERATOR_ROLE",
      "outputs": [
        {
          "internalType": "bytes32",
          "name": "",
          "type": "bytes32"
        }
      ],
      "stateMutability": "view",
      "type": "function"
    },
    {
      "inputs": [],
      "name": "UPGRADE_INTERFACE_VERSION",
      "outputs": [
        {
          "internalType": "string",
          "name": "",
          "type": "string"
        }
      ],
      "stateMutability": "view",
      "type": "function"
    },
    {
      "inputs": [
        {
          "internalType": "bytes32",
          "name": "traderId",
          "type": "bytes32"
        },
        {
          "internalType": "uint8",
          "name": "newTier",
          "type": "uint8"
        },
        {
          "internalType": "bytes",
          "name": "operatorSignature",
          "type": "bytes"
        }
      ],
      "name": "authorizeScaling",
      "outputs": [],
      "stateMutability": "nonpayable",
      "type": "function"
    },
    {
      "inputs": [
        {
          "internalType": "bytes32",
          "name": "traderId",
          "type": "bytes32"
        },
        {
          "internalType": "uint256",
          "name": "grossPnL",
          "type": "uint256"
        }
      ],
      "name": "calculateProfitSplit",
      "outputs": [
        {
          "internalType": "uint256",
          "name": "traderShare",
          "type": "uint256"
        },
        {
          "internalType": "uint256",
          "name": "poolShare",
          "type": "uint256"
        }
      ],
      "stateMutability": "view",
      "type": "function"
    },
    {
      "inputs": [
        {
          "internalType": "bytes32",
          "name": "traderId",
          "type": "bytes32"
        }
      ],
      "name": "canRequestPayout",
      "outputs": [
        {
          "internalType": "bool",
          "name": "eligible",
          "type": "bool"
        },
        {
          "internalType": "string",
          "name": "reason",
          "type": "string"
        }
      ],
      "stateMutability": "view",
      "type": "function"
    },
    {
      "inputs": [],
      "name": "capitalPool",
      "outputs": [
        {
          "internalType": "contract CapitalPool",
          "name": "",
          "type": "address"
        }
      ],
      "stateMutability": "view",
      "type": "function"
    },
    {
      "inputs": [
        {
          "internalType": "bytes32",
          "name": "requestId",
          "type": "bytes32"
        }
      ],
      "name": "getPayoutRequest",
      "outputs": [
        {
          "components": [
            {
              "internalType": "bytes32",
              "name": "requestId",
              "type": "bytes32"
            },
            {
              "internalType": "bytes32",
              "name": "traderId",
              "type": "bytes32"
            },
            {
              "internalType": "address",
              "name": "recipient",
              "type": "address"
            },
            {
              "internalType": "bytes32",
              "name": "batchId",
              "type": "bytes32"
            },
            {
              "internalType": "int256",
              "name": "grossPnL",
              "type": "int256"
            },
            {
              "internalType": "uint256",
              "name": "traderShare",
              "type": "uint256"
            },
            {
              "internalType": "uint256",
              "name": "poolShare",
              "type": "uint256"
            },
            {
              "internalType": "enum PayoutManager.PayoutStatus",
              "name": "status",
              "type": "uint8"
            },
            {
              "internalType": "uint256",
              "name": "requestTime",
              "type": "uint256"
            },
            {
              "internalType": "uint256",
              "name": "executedTime",
              "type": "uint256"
            }
          ],
          "internalType": "struct PayoutManager.PayoutRequest",
          "name": "",
          "type": "tuple"
        }
      ],
      "stateMutability": "view",
      "type": "function"
    },
    {
      "inputs": [
        {
          "internalType": "bytes32",
          "name": "role",
          "type": "bytes32"
        }
      ],
      "name": "getRoleAdmin",
      "outputs": [
        {
          "internalType": "bytes32",
          "name": "",
          "type": "bytes32"
        }
      ],
      "stateMutability": "view",
      "type": "function"
    },
    {
      "inputs": [
        {
          "internalType": "bytes32",
          "name": "traderId",
          "type": "bytes32"
        }
      ],
      "name": "getTraderPayoutHistory",
      "outputs": [
        {
          "internalType": "bytes32[]",
          "name": "requests",
          "type": "bytes32[]"
        }
      ],
      "stateMutability": "view",
      "type": "function"
    },
    {
      "inputs": [
        {
          "internalType": "bytes32",
          "name": "role",
          "type": "bytes32"
        },
        {
          "internalType": "address",
          "name": "account",
          "type": "address"
        }
      ],
      "name": "grantRole",
      "outputs": [],
      "stateMutability": "nonpayable",
      "type": "function"
    },
    {
      "inputs": [
        {
          "internalType": "bytes32",
          "name": "role",
          "type": "bytes32"
        },
        {
          "internalType": "address",
          "name": "account",
          "type": "address"
        }
      ],
      "name": "hasRole",
      "outputs": [
        {
          "internalType": "bool",
          "name": "",
          "type": "bool"
        }
      ],
      "stateMutability": "view",
      "type": "function"
    },
    {
      "inputs": [
        {
          "internalType": "address",
          "name": "_admin",
          "type": "address"
        },
        {
          "internalType": "address",
          "name": "_governance",
          "type": "address"
        },
        {
          "internalType": "address[]",
          "name": "_operators",
          "type": "address[]"
        },
        {
          "internalType": "address",
          "name": "_tradeLedger",
          "type": "address"
        },
        {
          "internalType": "address",
          "name": "_traderRegistry",
          "type": "address"
        },
        {
          "internalType": "address",
          "name": "_capitalPool",
          "type": "address"
        }
      ],
      "name": "initialize",
      "outputs": [],
      "stateMutability": "nonpayable",
      "type": "function"
    },
    {
      "inputs": [
        {
          "internalType": "bytes32",
          "name": "",
          "type": "bytes32"
        }
      ],
      "name": "lastPayoutTime",
      "outputs": [
        {
          "internalType": "uint256",
          "name": "",
          "type": "uint256"
        }
      ],
      "stateMutability": "view",
      "type": "function"
    },
    {
      "inputs": [],
      "name": "pause",
      "outputs": [],
      "stateMutability": "nonpayable",
      "type": "function"
    },
    {
      "inputs": [],
      "name": "paused",
      "outputs": [
        {
          "internalType": "bool",
          "name": "",
          "type": "bool"
        }
      ],
      "stateMutability": "view",
      "type": "function"
    },
    {
      "inputs": [],
      "name": "payoutCooldown",
      "outputs": [
        {
          "internalType": "uint256",
          "name": "",
          "type": "uint256"
        }
      ],
      "stateMutability": "view",
      "type": "function"
    },
    {
      "inputs": [
        {
          "internalType": "bytes32",
          "name": "",
          "type": "bytes32"
        }
      ],
      "name": "payoutNonces",
      "outputs": [
        {
          "internalType": "uint256",
          "name": "",
          "type": "uint256"
        }
      ],
      "stateMutability": "view",
      "type": "function"
    },
    {
      "inputs": [
        {
          "internalType": "uint256",
          "name": "",
          "type": "uint256"
        }
      ],
      "name": "payoutRequestIds",
      "outputs": [
        {
          "internalType": "bytes32",
          "name": "",
          "type": "bytes32"
        }
      ],
      "stateMutability": "view",
      "type": "function"
    },
    {
      "inputs": [
        {
          "internalType": "bytes32",
          "name": "",
          "type": "bytes32"
        }
      ],
      "name": "payoutRequests",
      "outputs": [
        {
          "internalType": "bytes32",
          "name": "requestId",
          "type": "bytes32"
        },
        {
          "internalType": "bytes32",
          "name": "traderId",
          "type": "bytes32"
        },
        {
          "internalType": "address",
          "name": "recipient",
          "type": "address"
        },
        {
          "internalType": "bytes32",
          "name": "batchId",
          "type": "bytes32"
        },
        {
          "internalType": "int256",
          "name": "grossPnL",
          "type": "int256"
        },
        {
          "internalType": "uint256",
          "name": "traderShare",
          "type": "uint256"
        },
        {
          "internalType": "uint256",
          "name": "poolShare",
          "type": "uint256"
        },
        {
          "internalType": "enum PayoutManager.PayoutStatus",
          "name": "status",
          "type": "uint8"
        },
        {
          "internalType": "uint256",
          "name": "requestTime",
          "type": "uint256"
        },
        {
          "internalType": "uint256",
          "name": "executedTime",
          "type": "uint256"
        }
      ],
      "stateMutability": "view",
      "type": "function"
    },
    {
      "inputs": [],
      "name": "proxiableUUID",
      "outputs": [
        {
          "internalType": "bytes32",
          "name": "",
          "type": "bytes32"
        }
      ],
      "stateMutability": "view",
      "type": "function"
    },
    {
      "inputs": [
        {
          "internalType": "bytes32",
          "name": "role",
          "type": "bytes32"
        },
        {
          "internalType": "address",
          "name": "callerConfirmation",
          "type": "address"
        }
      ],
      "name": "renounceRole",
      "outputs": [],
      "stateMutability": "nonpayable",
      "type": "function"
    },
    {
      "inputs": [
        {
          "internalType": "bytes32",
          "name": "traderId",
          "type": "bytes32"
        },
        {
          "internalType": "address",
          "name": "recipient",
          "type": "address"
        },
        {
          "internalType": "bytes32",
          "name": "batchId",
          "type": "bytes32"
        },
        {
          "internalType": "bytes32[][]",
          "name": "proofs",
          "type": "bytes32[][]"
        },
        {
          "components": [
            {
              "internalType": "bytes32",
              "name": "traderId",
              "type": "bytes32"
            },
            {
              "internalType": "bytes32",
              "name": "tradeId",
              "type": "bytes32"
            },
            {
              "internalType": "string",
              "name": "symbol",
              "type": "string"
            },
            {
              "internalType": "uint8",
              "name": "side",
              "type": "uint8"
            },
            {
              "internalType": "uint256",
              "name": "size",
              "type": "uint256"
            },
            {
              "internalType": "uint256",
              "name": "entryPrice",
              "type": "uint256"
            },
            {
              "internalType": "uint256",
              "name": "exitPrice",
              "type": "uint256"
            },
            {
              "internalType": "int256",
              "name": "pnl",
              "type": "int256"
            },
            {
              "internalType": "uint256",
              "name": "fee",
              "type": "uint256"
            },
            {
              "internalType": "uint256",
              "name": "timestamp",
              "type": "uint256"
            }
          ],
          "internalType": "struct TradeLedger.Trade[]",
          "name": "trades",
          "type": "tuple[]"
        },
        {
          "internalType": "bytes",
          "name": "operatorSignature",
          "type": "bytes"
        }
      ],
      "name": "requestPayout",
      "outputs": [
        {
          "internalType": "bytes32",
          "name": "requestId",
          "type": "bytes32"
        }
      ],
      "stateMutability": "nonpayable",
      "type": "function"
    },
    {
      "inputs": [
        {
          "internalType": "bytes32",
          "name": "role",
          "type": "bytes32"
        },
        {
          "internalType": "address",
          "name": "account",
          "type": "address"
        }
      ],
      "name": "revokeRole",
      "outputs": [],
      "stateMutability": "nonpayable",
      "type": "function"
    },
    {
      "inputs": [
        {
          "internalType": "bytes4",
          "name": "interfaceId",
          "type": "bytes4"
        }
      ],
      "name": "supportsInterface",
      "outputs": [
        {
          "internalType": "bool",
          "name": "",
          "type": "bool"
        }
      ],
      "stateMutability": "view",
      "type": "function"
    },
    {
      "inputs": [],
      "name": "totalAmountPaidOut",
      "outputs": [
        {
          "internalType": "uint256",
          "name": "",
          "type": "uint256"
        }
      ],
      "stateMutability": "view",
      "type": "function"
    },
    {
      "inputs": [
        {
          "internalType": "bytes32",
          "name": "",
          "type": "bytes32"
        }
      ],
      "name": "totalPayouts",
      "outputs": [
        {
          "internalType": "uint256",
          "name": "",
          "type": "uint256"
        }
      ],
      "stateMutability": "view",
      "type": "function"
    },
    {
      "inputs": [],
      "name": "totalPayoutsExecuted",
      "outputs": [
        {
          "internalType": "uint256",
          "name": "",
          "type": "uint256"
        }
      ],
      "stateMutability": "view",
      "type": "function"
    },
    {
      "inputs": [],
      "name": "tradeLedger",
      "outputs": [
        {
          "internalType": "contract TradeLedger",
          "name": "",
          "type": "address"
        }
      ],
      "stateMutability": "view",
      "type": "function"
    },
    {
      "inputs": [],
      "name": "traderRegistry",
      "outputs": [
        {
          "internalType": "contract TraderAccountRegistry",
          "name": "",
          "type": "address"
        }
      ],
      "stateMutability": "view",
      "type": "function"
    },
    {
      "inputs": [],
      "name": "unpause",
      "outputs": [],
      "stateMutability": "nonpayable",
      "type": "function"
    },
    {
      "inputs": [
        {
          "internalType": "address",
          "name": "_tradeLedger",
          "type": "address"
        },
        {
          "internalType": "address",
          "name": "_traderRegistry",
          "type": "address"
        },
        {
          "internalType": "address",
          "name": "_capitalPool",
          "type": "address"
        }
      ],
      "name": "updateContracts",
      "outputs": [],
      "stateMutability": "nonpayable",
      "type": "function"
    },
    {
      "inputs": [
        {
          "internalType": "uint256",
          "name": "newCooldown",
          "type": "uint256"
        }
      ],
      "name": "updatePayoutCooldown",
      "outputs": [],
      "stateMutability": "nonpayable",
      "type": "function"
    },
    {
      "inputs": [
        {
          "internalType": "address",
          "name": "newImplementation",
          "type": "address"
        },
        {
          "internalType": "bytes",
          "name": "data",
          "type": "bytes"
        }
      ],
      "name": "upgradeToAndCall",
      "outputs": [],
      "stateMutability": "payable",
      "type": "function"
    }
  ],
  "bytecode": "0x60a080604052346100ea57306080527ff0c57e16840df040f15088dc2f81fe391c3923bec73e23a9662efc9c229c6a005460ff8160401c166100d9576002600160401b03196001600160401b03821601610073575b6040516136a390816100f0823960805181818161202001526120c50152f35b6001600160401b0319166001600160401b039081177ff0c57e16840df040f15088dc2f81fe391c3923bec73e23a9662efc9c229c6a005581527fc7f505b2f371ae2175ee4913f4499e1f2633a7b5936321eed1cdaeb6115181d290602090a13880610054565b63f92ee8a960e01b60005260046000fd5b600080fdfe608080604052600436101561001357600080fd5b600090813560e01c90816301ffc9a7146126d257508063073b2b13146126ab5780630e17f1a51461260957806315a0a89a146125cf57806322059881146125b1578063248a9ca31461258a57806327c60e161461256c5780632e36f340146125425780632f2ff15d1461251057806336568abe146124cb5780633bedcafe146124a75780633f4ba83a146124255780634314d06d146122ea5780634f1ef2861461207557806352d1902d1461200d578063592bbd0f14611fe35780635bfb750814611fba5780635c975abb14611f8a57806363a7902714611f6c57806364f83ca814611f3057806365d1411a146113755780636dca4d441461128d57806375b238fc1461125257806380065d091461115457806380813d4314610fe45780638456cb5914610f6f5780638f7b91c514610b76578063909158cb14610a7d57806391d1485414610a24578063a217fddf14610a08578063a896d086146109df578063ad3cb1cc14610992578063b773bc25146102d4578063be248bf4146102b6578063d547741f1461027b578063e1f1c4a71461025e578063e2ff595f14610234578063f36c8f5c146101f95763f5b541a6146101ce57600080fd5b346101f657806003193601126101f65760206040516000805160206135ce8339815191528152f35b80fd5b50346101f657806003193601126101f65760206040517f71840dc4906352362b0cdaf79870196c8e42acafade72d5d5a6d59291253ceb18152f35b50346101f65760203660031901126101f65760406020916004358152600583522054604051908152f35b50346101f657806003193601126101f65760206040516127108152f35b50346101f65760403660031901126101f6576102b260043561029b61277b565b906102ad6102a882612928565b612f1e565b6132c1565b5080f35b50346101f657806003193601126101f6576020600354604051908152f35b50346101f65760603660031901126101f65760043560243560ff81168091036105eb576044356001600160401b0381116105dc576103169036906004016128e4565b50506000805160206135ce83398151915283526000805160206135ee83398151915260209081526040808520336000908152925290205460ff161561096d5761035d613361565b61036561339d565b6001546040516370c12e7b60e01b8152600481018490526001600160a01b0390911691908481602481865afa908115610962578591610940575b506103ac81511515612c77565b606081018051600681101561092c57600019016108e757604082019160ff8351168411156108a2576005841161085d57604051633b018fcf60e01b81526004810187905260e081602481895afa9081156108525788916107cc575b5060a0611f409101511061078757610120810151610742576101008791015113156106fd578560ff835116926040519363c022c52360e01b8552600485015260e084602481895afa9384156105e05782946106dc575b5060405163c022c52360e01b8152600481018690529060e0826024818a5afa9182156106085783926106a8575b505160ff1695803b156105eb57828091604460405180948193634fa82a3560e01b83528d60048401528b60248401525af1908115610608578391610693575b50506020019260208451910151808211610627575b5050505160068110156106135790859115610542575b50507fc6550a31a26dac2970140939a30aac2297c3d259a8fe531b67f2e02578dea3e6916060916040519182526020820152426040820152a2600160008051602061362e8339815191525580f35b6001546001600160a01b0316803b156105eb578280916024604051809481936323137cd560e21b83528b60048401525af19081156106085783916105ef575b505060018060a01b03600254169051813b156105eb578291604483926040519485938492639da6da0960e01b84528b600485015260248401525af180156105e057156104f457816105d1916127f9565b6105dc5783386104f4565b8380fd5b6040513d84823e3d90fd5b8280fd5b816105f9916127f9565b610604578138610581565b5080fd5b6040513d85823e3d90fd5b634e487b7160e01b86526021600452602486fd5b61063091612d3e565b6002546001600160a01b031690813b156105eb578291604483926040519485938492639da6da0960e01b84528d600485015260248401525af180156105e05761067a575b806104de565b81610684916127f9565b61068f578538610674565b8580fd5b8161069d916127f9565b6106045781386104c9565b60ff9192506106ce9060e03d60e0116106d5575b6106c681836127f9565b810190612cc3565b919061048a565b503d6106bc565b6106f691945060e03d60e0116106d5576106c681836127f9565b923861045d565b60405162461bcd60e51b815260206004820152601b60248201527f5061796f75744d616e616765723a204e6567617469766520506e4c00000000006044820152606490fd5b60405162461bcd60e51b815260206004820152601b60248201527f5061796f75744d616e616765723a2048617320627265616368657300000000006044820152606490fd5b60405162461bcd60e51b815260206004820152601e60248201527f5061796f75744d616e616765723a204c6f7720636f6e73697374656e637900006044820152606490fd5b905060e0813d60e01161084a575b816107e760e093836127f9565b810103126108465760a0611f409160c060405191610804836127de565b80518352602081015160208401526040810151604084015260608101516060840152608081015160808401528381015184840152015160c08201529150610407565b8780fd5b3d91506107da565b6040513d8a823e3d90fd5b60405162461bcd60e51b815260206004820152601b60248201527f5061796f75744d616e616765723a20496e76616c6964207469657200000000006044820152606490fd5b60405162461bcd60e51b815260206004820152601d60248201527f5061796f75744d616e616765723a204e6f7420616e20757067726164650000006044820152606490fd5b60405162461bcd60e51b815260206004820152601960248201527f5061796f75744d616e616765723a204e6f7420616374697665000000000000006044820152606490fd5b634e487b7160e01b87526021600452602487fd5b61095c91503d8087833e61095481836127f9565b81019061299d565b3861039f565b6040513d87823e3d90fd5b63e2517d3f60e01b8352336004526000805160206135ce833981519152602452604483fd5b50346101f657806003193601126101f657506109db6040516109b56040826127f9565b60058152640352e302e360dc1b602082015260405191829160208352602083019061288f565b0390f35b50346101f657806003193601126101f6576001546040516001600160a01b039091168152602090f35b50346101f657806003193601126101f657602090604051908152f35b50346101f65760403660031901126101f6576040610a4061277b565b9160043581526000805160206135ee833981519152602052209060018060a01b0316600052602052602060ff604060002054166040519015158152f35b50346101f65760403660031901126101f65760243560018060a01b03600154166040516370c12e7b60e01b815260043560048201528381602481855afa8015610b6b57604060ff9160e0938791610b51575b50610adc81511515612c77565b01511660246040518094819363c022c523861b835260048301525afa90811561060857610b1e6060610b26936127109360409791610b32575b50015184612d2b565b048092612d3e565b82519182526020820152f35b610b4b915060e03d60e0116106d5576106c681836127f9565b38610b15565b610b6591503d8089833e61095481836127f9565b38610acf565b6040513d86823e3d90fd5b50346101f65760c03660031901126101f657610b90612796565b610b9861277b565b91604435926001600160401b0384116106045736602385011215610604578360040135610bc481612911565b94610bd260405196876127f9565b8186526024602087019260051b82010190368211610f4b57602401915b818310610f4f575050506064356001600160a01b03811693908490036105eb576084356001600160a01b038116908190036105dc5760a4356001600160a01b0381169290839003610f4b5760008051602061364e833981519152549360ff8560401c1615946001600160401b03811680159081610f43575b6001149081610f39575b159081610f30575b50610f215767ffffffffffffffff19811660011760008051602061364e8339815191525585610ef4575b506001600160a01b03821615610eaf576001600160a01b03811615610e6a57610d33610d3992610cd4891515612d4b565b610cdf851515612d97565b610cea861515612dee565b610cf26133c7565b610cfa6133c7565b610d026133c7565b610d0a6133c7565b600160008051602061362e83398151915255610d246133c7565b610d2d81612f68565b50613008565b506130c4565b50835b8651811015610dc9576001600160a01b03610d57828961296e565b511615610d8457600190610d7d6001600160a01b03610d76838b61296e565b5116613180565b5001610d3c565b60405162461bcd60e51b815260206004820152601c60248201527f5061796f75744d616e616765723a205a65726f206f70657261746f72000000006044820152606490fd5b50846001600160601b0360a01b8554161784556001600160601b0360a01b60015416176001556001600160601b0360a01b600254161760025562093a80600355610e105780f35b68ff00000000000000001960008051602061364e833981519152541660008051602061364e833981519152557fc7f505b2f371ae2175ee4913f4499e1f2633a7b5936321eed1cdaeb6115181d2602060405160018152a180f35b60405162461bcd60e51b815260206004820152601e60248201527f5061796f75744d616e616765723a205a65726f20676f7665726e616e636500006044820152606490fd5b60405162461bcd60e51b815260206004820152601960248201527f5061796f75744d616e616765723a205a65726f2061646d696e000000000000006044820152606490fd5b68ffffffffffffffffff1916680100000000000000011760008051602061364e8339815191525538610ca3565b63f92ee8a960e01b8752600487fd5b90501538610c79565b303b159150610c71565b879150610c67565b8480fd5b82356001600160a01b038116810361068f57815260209283019201610bef565b50346101f657806003193601126101f657610f88612e3a565b610f9061339d565b600160ff1960008051602061360e83398151915254161760008051602061360e833981519152557f62e78cea01bee320cd4e420270b5ea74000d11b0c9f74754ebdbfc544b05a2586020604051338152a180f35b50346101f65760203660031901126101f65780610120604051611006816127ac565b8281528260208201528260408201528260608201528260808201528260a08201528260c08201528260e0820152826101008201520152600435815260046020526040812060405190611057826127ac565b805482526001810154906020830191825260018060a01b036002820154166040840190815260038201546060850190815260048301546080860190815260058401549160a0870192835260068501549360c0880194855260ff60078701541660e08901996005821015611140575089526008860154610100890190815260099096015461012089019081526040805199518a52975160208a015290516001600160a01b0316968801969096525160608701525160808601525160a08501525160c0840152925161014093906111309060e0850190612727565b5161010083015251610120820152f35b634e487b7160e01b81526021600452602490fd5b50346101f65760203660031901126101f657600435611171612eac565b6201518081106112035762278d0081116111bf5760407fa5384f16e82f22f5d9f4a0323b366350d007e09c41372fb3563234a38f58118991600354908060035582519182526020820152a180f35b606460405162461bcd60e51b815260206004820152602060248201527f5061796f75744d616e616765723a20436f6f6c646f776e20746f6f206c6f6e676044820152fd5b60405162461bcd60e51b815260206004820152602160248201527f5061796f75744d616e616765723a20436f6f6c646f776e20746f6f2073686f726044820152601d60fa1b6064820152608490fd5b50346101f657806003193601126101f65760206040517fa49807205ce4d355092ef5a8a18f56e8913cf4a201fbe287825b095693c217758152f35b50346101f65760603660031901126101f6576112a7612796565b6112af61277b565b6044356001600160a01b0381169291908390036105dc577fe008bc55cceb8bb7dc36a3bbaa95481f36a3537e2b4cdc39770a19cf94e754a5926060926112f3612eac565b6001600160a01b031691611308831515612d4b565b6001600160a01b031661131c811515612d97565b611327821515612dee565b826001600160601b0360a01b875416178655806001600160601b0360a01b6001541617600155816001600160601b0360a01b600254161760025560405192835260208301526040820152a180f35b50346101f65760c03660031901126101f65760043561139261277b565b90604435916064356001600160401b038111610f4b576113b69036906004016128b4565b6084949194356001600160401b038111611bba576113d89036906004016128b4565b9560a4356001600160401b038111611f2c576113f89036906004016128e4565b929097611403613361565b61140b61339d565b6001600160a01b038716968715611ee7578115611ea2576001546040516370c12e7b60e01b8152600481018b90529a908c908c9060249082906001600160a01b03165afa9a8b15611e97578c9b611e7a575b5061146a8b511515612c77565b60608b0180516006811015611e6657600114908115611e3d575b5015611df957898c5260056020526114a360408d205460035490612ad9565b4210611da957879561154161154792603c8f8e611550978183526007602052604083205460405191602083019384526001600160601b03199060601b169d8e6040840152605483015260748201524660948201523060601b60b482015260a8815261150f60c8826127f9565b5190207f19457468657265756d205369676e6564204d6573736167653a0a3332000000008252601c5220923691612835565b906133f5565b90929192613431565b6000805160206135ce8339815191528b526000805160206135ee83398151915260205260408b209060018060a01b03168b5260205260ff60408b20541615611d525793909189908882526007602052604082206115ad8154612949565b905560018060a01b038254169360405196879463560b329360e01b865280608487018b60048901528d6024890152608060448901525260a486019060a48160051b88010194809287915b838310611ccd575050505050600319858403016064860152808352602083019060208160051b8501019383869161013e1982360301905b848410611bc657505050505050506020939183809203925af1918215611af9578792611b8e575b5086821315611b495768056bc75e2d631000008210611b0457869560e060ff604060018060a01b03600154169301511660246040518094819363c022c523861b835260048301525afa8015611af95760606116bd91612710938a91610b325750015184612d2b565b04926116c98484612d3e565b9160085460405190602082019289845260408301528360548301524260748301526094820152609481526116fe60b4826127f9565b51902096879160405193611711856127ac565b8385526020850191898352604086019089825260608701908152608087019088825260a08801928a845260c0890194855260e08901956001875260406101008b0198428a526101208c019a818c52815260046020522099518a555160018a0155600289019060018060a01b039051166001600160601b0360a01b8254161790555160038801555160048701555160058601555160068501556007840190516005811015611ae55790600993929160ff801983541691161790555160088401555191015560085468010000000000000000811015611ad157927ffe136e3c75df308af170c3bd3eb72fb9f39abe74a885c4958e880d1a1aff25d19260609261181f8660018a980160085561274a565b81549060031b9088821b91600019901b191617905560405192835260208301526040820152a3808252600460205260408220916007830160ff8154166005811015611abd57600103611a7857600260ff1982541617905542600984015560018301805482526005602052426040832055600584019384548254845260066020526118ae60408520918254612ad9565b90556118bb600954612949565b6009556118cb8554600a54612ad9565b600a556002805483549183018054885491969391926001600160a01b03918216929116803b15610f4b57849291836064926040519687958694636e1cecad60e11b86526004860152602485015260448401525af180156105e057611a68575b5060015483546040516370c12e7b60e01b81526004810182905292936001600160a01b03909216928481602481875afa90811561096257600491610100918791611a4e575b50015192015491848382019384129112908015821691151617611a3a57823b156105dc57906044849283604051958694859363b62ea90560e01b8552600485015260248401525af180156105e057611a25575b50507f1763adb28583174da99b3ab8ff846ab28a668a6d0c92c7011713ae242bb082e160606020958593549460018060a01b03905416905460405191825287820152426040820152a3600160008051602061362e83398151915255604051908152f35b611a308280926127f9565b6101f657806119c2565b634e487b7160e01b84526011600452602484fd5b611a6291503d8089833e61095481836127f9565b3861196f565b81611a72916127f9565b3861192a565b60405162461bcd60e51b815260206004820152601b60248201527f5061796f75744d616e616765723a204e6f7420766572696669656400000000006044820152606490fd5b634e487b7160e01b83526021600452602483fd5b634e487b7160e01b87526041600452602487fd5b634e487b7160e01b8b52602160045260248bfd5b6040513d89823e3d90fd5b60405162461bcd60e51b815260206004820152601c60248201527f5061796f75744d616e616765723a2042656c6f77206d696e696d756d000000006044820152606490fd5b60405162461bcd60e51b815260206004820152601f60248201527f5061796f75744d616e616765723a204e6f6e2d706f73697469766520506e4c006044820152606490fd5b9091506020813d602011611bbe575b81611baa602093836127f9565b81010312611bba57519038611655565b8680fd5b3d9150611b9d565b929598509295909396601f1983830301885288358481121561060457850180358352602081013560208401526040810135601e19823603018112156105eb578101916020833593016001600160401b0384116106045783360381136106045783906101406040870152816101408701526101608601378061016084860101525060608101359060ff8216809203611cc65783602093610120610160938695606060019901526080810135608085015260a081013560a085015260c081013560c085015260e081013560e08501526101008101356101008501520135610120830152601f8019910116010199019701940190928f969493928b98969361162e565b5050508f80fd5b9295985092959093965060a3198b82030183528535601e1983360301811215611d4d578201602081359101916001600160401b038211611d47578160051b918236038413611cc6578082526001600160fb1b0310611d4757602082828294600196848096013701019701930193018f96938b9895926115f7565b50508f80fd5b508f80fd5b60405162461bcd60e51b815260206004820152602960248201527f5061796f75744d616e616765723a20496e76616c6964206f70657261746f72206044820152687369676e617475726560b81b6064820152608490fd5b60405162461bcd60e51b815260206004820152602260248201527f5061796f75744d616e616765723a20436f6f6c646f776e206e6f742070617373604482015261195960f21b6064820152608490fd5b606460405162461bcd60e51b815260206004820152602060248201527f5061796f75744d616e616765723a20547261646572206e6f74206163746976656044820152fd5b9050516006811015611e525760041438611484565b634e487b7160e01b8d52602160045260248dfd5b634e487b7160e01b8e52602160045260248efd5b611e90919b508c3d8091833e61095481836127f9565b993861145d565b6040513d8e823e3d90fd5b60405162461bcd60e51b815260206004820152601860248201527f5061796f75744d616e616765723a204e6f2074726164657300000000000000006044820152606490fd5b60405162461bcd60e51b815260206004820152601d60248201527f5061796f75744d616e616765723a205a65726f20726563697069656e740000006044820152606490fd5b8880fd5b50346101f65760203660031901126101f657611f4d600435612ae6565b906109db6040519283921515835260406020840152604083019061288f565b50346101f657806003193601126101f657602060405162093a808152f35b50346101f657806003193601126101f657602060ff60008051602061360e83398151915254166040519015158152f35b50346101f657806003193601126101f6576002546040516001600160a01b039091168152602090f35b50346101f65760203660031901126101f65760406020916004358152600683522054604051908152f35b50346101f657806003193601126101f6577f00000000000000000000000000000000000000000000000000000000000000006001600160a01b031630036120665760206040516000805160206135ae8339815191528152f35b63703e46dd60e11b8152600490fd5b5060403660031901126101f65761208a612796565b906024356001600160401b0381116106045736602382011215610604576120bb903690602481600401359101612835565b6001600160a01b037f0000000000000000000000000000000000000000000000000000000000000000163081149081156122c7575b506122b8576120fd612eac565b6001600160a01b038316908115612268576040516352d1902d60e01b815293602085600481865afa80958596612234575b5061214757634c9c8ce360e01b84526004839052602484fd5b9091846000805160206135ae83398151915281036122225750813b15612210576000805160206135ae83398151915280546001600160a01b031916821790557fbc7cd75a20ee27fd9adebab32041f755214dbc6bffa90cc0225b39da2e5c2d3b8480a281518390156121f657808360206102b295519101845af43d156121ee573d916121d28361281a565b926121e060405194856127f9565b83523d85602085013e6134a3565b6060916134a3565b505050346122015780f35b63b398979f60e01b8152600490fd5b634c9c8ce360e01b8452600452602483fd5b632a87526960e21b8552600452602484fd5b9095506020813d602011612260575b81612250602093836127f9565b81010312610f4b5751943861212e565b3d9150612243565b60405162461bcd60e51b815260206004820152602260248201527f5061796f75744d616e616765723a205a65726f20696d706c656d656e7461746960448201526137b760f11b6064820152608490fd5b63703e46dd60e11b8252600482fd5b6000805160206135ae833981519152546001600160a01b031614159050386120f0565b50346101f65760203660031901126101f6576004358182600854905b8181106123e3575061233061231a83612911565b9261232860405194856127f9565b808452612911565b602083019390601f19013685378490855b83811061238c57868587604051928392602084019060208552518091526040840192915b818110612373575050500390f35b8251845285945060209384019390920191600101612365565b8061239860019261274a565b90549060031b1c88526004602052828260408a200154146123ba575b01612341565b6123c38161274a565b90549060031b1c6123dd6123d686612949565b958861296e565b526123b4565b6123ec8161274a565b90549060031b1c8552600460205283600160408720015414612411575b600101612306565b9161241d600191612949565b929050612409565b50346101f657806003193601126101f65761243e612e3a565b60008051602061360e8339815191525460ff8116156124985760ff191660008051602061360e833981519152557f5db9ee0a495bf2e6ff9c91a7834c1ba4fdd244a5e8aa4e537bd38aeae4b073aa6020604051338152a180f35b638dfc202b60e01b8252600482fd5b50346101f657806003193601126101f657602060405168056bc75e2d631000008152f35b50346101f65760403660031901126101f6576124e561277b565b336001600160a01b03821603612501576102b2906004356132c1565b63334bd91960e11b8252600482fd5b50346101f65760403660031901126101f6576102b260043561253061277b565b9061253d6102a882612928565b61322a565b50346101f65760203660031901126101f65760406020916004358152600783522054604051908152f35b50346101f657806003193601126101f6576020600954604051908152f35b50346101f65760203660031901126101f65760206125a9600435612928565b604051908152f35b50346101f657806003193601126101f6576020600a54604051908152f35b50346101f65760203660031901126101f657600435906008548210156101f65760206125fa8361274a565b90549060031b1c604051908152f35b50346101f65760203660031901126101f657604061014091600435815260046020522080549060018101549061269d60018060a01b036002830154166003830154600484015460058501549060068601549260ff6007880154169460096008890154980154986040519a8b5260208b015260408a01526060890152608088015260a087015260c086015260e0850190612727565b610100830152610120820152f35b50346101f657806003193601126101f657546040516001600160a01b039091168152602090f35b9050346106045760203660031901126106045760043563ffffffff60e01b81168091036105eb5760209250637965db0b60e01b8114908115612716575b5015158152f35b6301ffc9a760e01b1490503861270f565b9060058210156127345752565b634e487b7160e01b600052602160045260246000fd5b60085481101561276557600860005260206000200190600090565b634e487b7160e01b600052603260045260246000fd5b602435906001600160a01b038216820361279157565b600080fd5b600435906001600160a01b038216820361279157565b61014081019081106001600160401b038211176127c857604052565b634e487b7160e01b600052604160045260246000fd5b60e081019081106001600160401b038211176127c857604052565b90601f801991011681019081106001600160401b038211176127c857604052565b6001600160401b0381116127c857601f01601f191660200190565b9291926128418261281a565b9161284f60405193846127f9565b829481845281830111612791578281602093846000960137010152565b60005b83811061287f5750506000910152565b818101518382015260200161286f565b906020916128a88151809281855285808601910161286c565b601f01601f1916010190565b9181601f84011215612791578235916001600160401b038311612791576020808501948460051b01011161279157565b9181601f84011215612791578235916001600160401b038311612791576020838186019501011161279157565b6001600160401b0381116127c85760051b60200190565b6000526000805160206135ee83398151915260205260016040600020015490565b60001981146129585760010190565b634e487b7160e01b600052601160045260246000fd5b80518210156127655760209160051b010190565b519060ff8216820361279157565b5190811515820361279157565b602081830312612791578051906001600160401b03821161279157019061018082820312612791576040519161018083018381106001600160401b038211176127c8576040528051835260208101516001600160a01b0381168103612791576020840152612a0d60408201612982565b6040840152606081015160068110156127915760608401526080810151608084015260a081015160a084015260c081015160c084015260e081015160e0840152610100810151610100840152610120810151610120840152612a726101408201612990565b610140840152610160810151906001600160401b038211612791570181601f82011215612791578051612aa48161281a565b92612ab260405194856127f9565b8184526020828401011161279157612ad0916020808501910161286c565b61016082015290565b9190820180921161295857565b906024600060018060a01b0360015416604051928380926370c12e7b60e01b82528760048301525afa908115612c6b57600091612c50575b50805115612c1c5760600191825192600684101561273457600160009414159081612bf2575b50612bc25782526005602052612b61604083205460035490612ad9565b4210612b915760019150604051612b796040826127f9565b6008815267456c696769626c6560c01b602082015290565b604051612b9f6040826127f9565b601381527210dbdbdb191bdddb881b9bdd081c185cdcd959606a1b602082015290565b50604051612bd16040826127f9565b6011815270547261646572206e6f742061637469766560781b602082015290565b9050516006811015612c08576004141538612b44565b634e487b7160e01b84526021600452602484fd5b509050600090604051612c306040826127f9565b601081526f151c9859195c881b9bdd08199bdd5b9960821b602082015290565b612c6591503d806000833e61095481836127f9565b38612b1e565b6040513d6000823e3d90fd5b15612c7e57565b60405162461bcd60e51b815260206004820152601f60248201527f5061796f75744d616e616765723a20547261646572206e6f7420666f756e64006044820152606490fd5b908160e091031261279157612d2360c060405192612ce0846127de565b612ce981612982565b84526020810151602085015260408101516040850152606081015160608501526080810151608085015260a081015160a085015201612990565b60c082015290565b8181029291811591840414171561295857565b9190820391821161295857565b15612d5257565b60405162461bcd60e51b815260206004820152601f60248201527f5061796f75744d616e616765723a205a65726f2074726164654c6564676572006044820152606490fd5b15612d9e57565b60405162461bcd60e51b815260206004820152602260248201527f5061796f75744d616e616765723a205a65726f20747261646572526567697374604482015261727960f01b6064820152608490fd5b15612df557565b60405162461bcd60e51b815260206004820152601f60248201527f5061796f75744d616e616765723a205a65726f206361706974616c506f6f6c006044820152606490fd5b3360009081527fb16e88c42fd4e48df2dd6a2eabd6bc9aec654ec170056b470819f8892cc6431c602052604090205460ff1615612e7357565b63e2517d3f60e01b600052336004527fa49807205ce4d355092ef5a8a18f56e8913cf4a201fbe287825b095693c2177560245260446000fd5b3360009081527f25f7f44d2cbb35948a0ec4a3daca6d9fef225ba74483a7793ae48fcb0272bb0c602052604090205460ff1615612ee557565b63e2517d3f60e01b600052336004527f71840dc4906352362b0cdaf79870196c8e42acafade72d5d5a6d59291253ceb160245260446000fd5b60008181526000805160206135ee8339815191526020908152604080832033845290915290205460ff1615612f505750565b63e2517d3f60e01b6000523360045260245260446000fd5b6001600160a01b03811660009081527fb7db2dd08fcb62d0c9e08c51941cae53c267786a0b75803fb7960902fc8ef97d602052604090205460ff16613002576001600160a01b031660008181527fb7db2dd08fcb62d0c9e08c51941cae53c267786a0b75803fb7960902fc8ef97d60205260408120805460ff1916600117905533919060008051602061358e8339815191528180a4600190565b50600090565b6001600160a01b03811660009081527fb16e88c42fd4e48df2dd6a2eabd6bc9aec654ec170056b470819f8892cc6431c602052604090205460ff16613002576001600160a01b031660008181527fb16e88c42fd4e48df2dd6a2eabd6bc9aec654ec170056b470819f8892cc6431c60205260408120805460ff191660011790553391907fa49807205ce4d355092ef5a8a18f56e8913cf4a201fbe287825b095693c217759060008051602061358e8339815191529080a4600190565b6001600160a01b03811660009081527f25f7f44d2cbb35948a0ec4a3daca6d9fef225ba74483a7793ae48fcb0272bb0c602052604090205460ff16613002576001600160a01b031660008181527f25f7f44d2cbb35948a0ec4a3daca6d9fef225ba74483a7793ae48fcb0272bb0c60205260408120805460ff191660011790553391907f71840dc4906352362b0cdaf79870196c8e42acafade72d5d5a6d59291253ceb19060008051602061358e8339815191529080a4600190565b6001600160a01b03811660009081527f448256db8f8fb95ee3eaaf89c1051414494e85cebb6057fcf996cc3d0ccfb456602052604090205460ff16613002576001600160a01b031660008181527f448256db8f8fb95ee3eaaf89c1051414494e85cebb6057fcf996cc3d0ccfb45660205260408120805460ff191660011790553391906000805160206135ce8339815191529060008051602061358e8339815191529080a4600190565b60008181526000805160206135ee833981519152602090815260408083206001600160a01b038616845290915290205460ff166132ba5760008181526000805160206135ee833981519152602090815260408083206001600160a01b0395909516808452949091528120805460ff191660011790553392919060008051602061358e8339815191529080a4600190565b5050600090565b60008181526000805160206135ee833981519152602090815260408083206001600160a01b038616845290915290205460ff16156132ba5760008181526000805160206135ee833981519152602090815260408083206001600160a01b0395909516808452949091528120805460ff19169055339291907ff6391f5c32d9c69d2a47ea670b442974b53935d1edc7fd64eb21e047a839171b9080a4600190565b600260008051602061362e833981519152541461338c57600260008051602061362e83398151915255565b633ee5aeb560e01b60005260046000fd5b60ff60008051602061360e83398151915254166133b657565b63d93c066560e01b60005260046000fd5b60ff60008051602061364e8339815191525460401c16156133e457565b631afcd79f60e31b60005260046000fd5b81519190604183036134265761341f92506020820151906060604084015193015160001a90613504565b9192909190565b505060009160029190565b9190916004811015612734578061344757509050565b6000600182036134625763f645eedf60e01b60005260046000fd5b5060028103613480578263fce698f760e01b60005260045260246000fd5b9091600360009214613490575050565b6335e2f38360e21b825260045260249150fd5b906134c957508051156134b857602081519101fd5b63d6bda27560e01b60005260046000fd5b815115806134fb575b6134da575090565b639996b31560e01b60009081526001600160a01b0391909116600452602490fd5b50803b156134d2565b91907f7fffffffffffffffffffffffffffffff5d576e7357a4501ddfe92f46681b20a08411613581579160209360809260ff60009560405194855216868401526040830152606082015282805260015afa15612c6b576000516001600160a01b038116156135755790600090600090565b50600090600190600090565b5050506000916003919056fe2f8788117e7eff1d82e926ec794901d17c78024a50270940304540a733656f0d360894a13ba1a3210667c828492db98dca3e2076cc3735a920a3ca505d382bbc97667070c54ef182b0f5858b034beac1b6f3089aa2d3188bb1e8929f4fa9b92902dd7bc7dec4dceedda775e58dd541e08a116c6c53815c0bd028192f7b626800cd5ed15c6e187e77e9aee88184c21f4f2182ab5827cb3b7e07fbedcd63f033009b779b17422d0df92223018b32b4d1fa46e071723d6817e2486d003becc55f00f0c57e16840df040f15088dc2f81fe391c3923bec73e23a9662efc9c229c6a00a26469706673582212205937ac289ef2c6aec96c2a0a0607f0a1e7e4275dd4bffc7022d614fe22f6da1764736f6c634300081b0033",
  "linkReferences": {},
  "deployedLinkReferences": {}
}