{
  "_format": "hh-sol-artifact-1",
  "contractName": "CapitalPool",
  "sourceName": "contracts/CapitalPool.sol",
  "abi": [
    {
      "inputs": [],
      "stateMutability": "nonpayable",
      "type": "constructor"
    },
    {
      "inputs": [],
      "name": "AccessControlBadConfirmation",
      "type": "error"
    },
    {
      "inputs": [
        {
          "internalType": "address",
          "name": "account",
          "type": "address"
        },
        {
          "internalType": "bytes32",
          "name": "neededRole",
          "type": "bytes32"
        }
      ],
      "name": "AccessControlUnauthorizedAccount",
      "type": "error"
    },
    {
      "inputs": [
        {
          "internalType": "address",
          "name": "target",
          "type": "address"
        }
      ],
      "name": "AddressEmptyCode",
      "type": "error"
    },
    {
      "inputs": [
        {
          "internalType": "address",
          "name": "implementation",
          "type": "address"
        }
      ],
      "name": "ERC1967InvalidImplementation",
      "type": "error"
    },
    {
      "inputs": [],
      "name": "ERC1967NonPayable",
      "type": "error"
    },
    {
      "inputs": [],
      "name": "EnforcedPause",
      "type": "error"
    },
    {
      "inputs": [],
      "name": "ExpectedPause",
      "type": "error"
    },
    {
      "inputs": [],
      "name": "FailedCall",
      "type": "error"
    },
    {
      "inputs": [],
      "name": "InvalidInitialization",
      "type": "error"
    },
    {
      "inputs": [],
      "name": "NotInitializing",
      "type": "error"
    },
    {
      "inputs": [],
      "name": "ReentrancyGuardReentrantCall",
      "type": "error"
    },
    {
      "inputs": [
        {
          "internalType": "address",
          "name": "token",
          "type": "address"
        }
      ],
      "name": "SafeERC20FailedOperation",
      "type": "error"
    },
    {
      "inputs": [],
      "name": "UUPSUnauthorizedCallContext",
      "type": "error"
    },
    {
      "inputs": [
        {
          "internalType": "bytes32",
          "name": "slot",
          "type": "bytes32"
        }
      ],
      "name": "UUPSUnsupportedProxiableUUID",
      "type": "error"
    },
    {
      "anonymous": false,
      "inputs": [
        {
          "indexed": true,
          "internalType": "bytes32",
          "name": "traderId",
          "type": "bytes32"
        },
        {
          "indexed": false,
          "internalType": "uint256",
          "name": "amount",
          "type": "uint256"
        },
        {
          "indexed": false,
          "internalType": "uint256",
          "name": "timestamp",
          "type": "uint256"
        }
      ],
      "name": "AllocatedToTrader",
      "type": "event"
    },
    {
      "anonymous": false,
      "inputs": [
        {
          "indexed": true,
          "internalType": "bytes32",
          "name": "traderId",
          "type": "bytes32"
        },
        {
          "indexed": false,
          "internalType": "uint256",
          "name": "amount",
          "type": "uint256"
        },
        {
          "indexed": false,
          "internalType": "int256",
          "name": "pnl",
          "type": "int256"
        },
        {
          "indexed": false,
          "internalType": "uint256",
          "name": "timestamp",
          "type": "uint256"
        }
      ],
      "name": "DeallocatedFromTrader",
      "type": "event"
    },
    {
      "anonymous": false,
      "inputs": [
        {
          "indexed": true,
          "internalType": "address",
          "name": "lp",
          "type": "address"
        },
        {
          "indexed": false,
          "internalType": "uint256",
          "name": "amount",
          "type": "uint256"
        },
        {
          "indexed": false,
          "internalType": "uint256",
          "name": "shares",
          "type": "uint256"
        },
        {
          "indexed": false,
          "internalType": "uint256",
          "name": "timestamp",
          "type": "uint256"
        }
      ],
      "name": "Deposited",
      "type": "event"
    },
    {
      "anonymous": false,
      "inputs": [
        {
          "indexed": false,
          "internalType": "uint256",
          "name": "amount",
          "type": "uint256"
        },
        {
          "indexed": true,
          "internalType": "address",
          "name": "recipient",
          "type": "address"
        },
        {
          "indexed": false,
          "internalType": "uint256",
          "name": "timestamp",
          "type": "uint256"
        }
      ],
      "name": "FeesCollected",
      "type": "event"
    },
    {
      "anonymous": false,
      "inputs": [
        {
          "indexed": false,
          "internalType": "uint64",
          "name": "version",
          "type": "uint64"
        }
      ],
      "name": "Initialized",
      "type": "event"
    },
    {
      "anonymous": false,
      "inputs": [
        {
          "indexed": false,
          "internalType": "address",
          "name": "account",
          "type": "address"
        }
      ],
      "name": "Paused",
      "type": "event"
    },
    {
      "anonymous": false,
      "inputs": [
        {
          "indexed": true,
          "internalType": "bytes32",
          "name": "traderId",
          "type": "bytes32"
        },
        {
          "indexed": false,
          "internalType": "int256",
          "name": "previousPnL",
          "type": "int256"
        },
        {
          "indexed": false,
          "internalType": "int256",
          "name": "newPnL",
          "type": "int256"
        },
        {
          "indexed": false,
          "internalType": "uint256",
          "name": "timestamp",
          "type": "uint256"
        }
      ],
      "name": "PnLUpdated",
      "type": "event"
    },
    {
      "anonymous": false,
      "inputs": [
        {
          "indexed": true,
          "internalType": "bytes32",
          "name": "role",
          "type": "bytes32"
        },
        {
          "indexed": true,
          "internalType": "bytes32",
          "name": "previousAdminRole",
          "type": "bytes32"
        },
        {
          "indexed": true,
          "internalType": "bytes32",
          "name": "newAdminRole",
          "type": "bytes32"
        }
      ],
      "name": "RoleAdminChanged",
      "type": "event"
    },
    {
      "anonymous": false,
      "inputs": [
        {
          "indexed": true,
          "internalType": "bytes32",
          "name": "role",
          "type": "bytes32"
        },
        {
          "indexed": true,
          "internalType": "address",
          "name": "account",
          "type": "address"
        },
        {
          "indexed": true,
          "internalType": "address",
          "name": "sender",
          "type": "address"
        }
      ],
      "name": "RoleGranted",
      "type": "event"
    },
    {
      "anonymous": false,
      "inputs": [
        {
          "indexed": true,
          "internalType": "bytes32",
          "name": "role",
          "type": "bytes32"
        },
        {
          "indexed": true,
          "internalType": "address",
          "name": "account",
          "type": "address"
        },
        {
          "indexed": true,
          "internalType": "address",
          "name": "sender",
          "type": "address"
        }
      ],
      "name": "RoleRevoked",
      "type": "event"
    },
    {
      "anonymous": false,
      "inputs": [
        {
          "indexed": false,
          "internalType": "address",
          "name": "account",
          "type": "address"
        }
      ],
      "name": "Unpaused",
      "type": "event"
    },
    {
      "anonymous": false,
      "inputs": [
        {
          "indexed": true,
          "internalType": "address",
          "name": "implementation",
          "type": "address"
        }
      ],
      "name": "Upgraded",
      "type": "event"
    },
    {
      "anonymous": false,
      "inputs": [
        {
          "indexed": false,
          "internalType": "uint256",
          "name": "oldPeriod",
          "type": "uint256"
        },
        {
          "indexed": false,
          "internalType": "uint256",
          "name": "newPeriod",
          "type": "uint256"
        }
      ],
      "name": "VestingPeriodUpdated",
      "type": "event"
    },
    {
      "anonymous": false,
      "inputs": [
        {
          "indexed": true,
          "internalType": "address",
          "name": "lp",
          "type": "address"
        },
        {
          "indexed": false,
          "internalType": "uint256",
          "name": "amount",
          "type": "uint256"
        },
        {
          "indexed": false,
          "internalType": "uint256",
          "name": "shares",
          "type": "uint256"
        },
        {
          "indexed": false,
          "internalType": "uint256",
          "name": "availableAt",
          "type": "uint256"
        }
      ],
      "name": "WithdrawalRequested",
      "type": "event"
    },
    {
      "anonymous": false,
      "inputs": [
        {
          "indexed": true,
          "internalType": "address",
          "name": "lp",
          "type": "address"
        },
        {
          "indexed": false,
          "internalType": "uint256",
          "name": "amount",
          "type": "uint256"
        },
        {
          "indexed": false,
          "internalType": "uint256",
          "name": "shares",
          "type": "uint256"
        },
        {
          "indexed": false,
          "internalType": "uint256",
          "name": "timestamp",
          "type": "uint256"
        }
      ],
      "name": "Withdrawn",
      "type": "event"
    },
    {
      "inputs": [],
      "name": "ADMIN_ROLE",
      "outputs": [
        {
          "internalType": "bytes32",
          "name": "",
          "type": "bytes32"
        }
      ],
      "stateMutability": "view",
      "type": "function"
    },
    {
      "inputs": [],
      "name": "BASIS_POINTS",
      "outputs": [
        {
          "internalType": "uint256",
          "name": "",
          "type": "uint256"
        }
      ],
      "stateMutability": "view",
      "type": "function"
    },
    {
      "inputs": [],
      "name": "DEFAULT_ADMIN_ROLE",
      "outputs": [
        {
          "internalType": "bytes32",
          "name": "",
          "type": "bytes32"
        }
      ],
      "stateMutability": "view",
      "type": "function"
    },
    {
      "inputs": [],
      "name": "DEFAULT_VESTING_PERIOD",
      "outputs": [
        {
          "internalType": "uint256",
          "name": "",
          "type": "uint256"
        }
      ],
      "stateMutability": "view",
      "type": "function"
    },
    {
      "inputs": [],
      "name": "GOVERNANCE_ROLE",
      "outputs": [
        {
          "internalType": "bytes32",
          "name": "",
          "type": "bytes32"
        }
      ],
      "stateMutability": "view",
      "type": "function"
    },
    {
      "inputs": [],
      "name": "MAX_ALLOCATION_PCT",
      "outputs": [
        {
          "internalType": "uint256",
          "name": "",
          "type": "uint256"
        }
      ],
      "stateMutability": "view",
      "type": "function"
    },
    {
      "inputs": [],
      "name": "MIN_DEPOSIT",
      "outputs": [
        {
          "internalType": "uint256",
          "name": "",
          "type": "uint256"
        }
      ],
      "stateMutability": "view",
      "type": "function"
    },
    {
      "inputs": [],
      "name": "PAYOUT_MANAGER_ROLE",
      "outputs": [
        {
          "internalType": "bytes32",
          "name": "",
          "type": "bytes32"
        }
      ],
      "stateMutability": "view",
      "type": "function"
    },
    {
      "inputs": [],
      "name": "UPGRADE_INTERFACE_VERSION",
      "outputs": [
        {
          "internalType": "string",
          "name": "",
          "type": "string"
        }
      ],
      "stateMutability": "view",
      "type": "function"
    },
    {
      "inputs": [
        {
          "internalType": "bytes32",
          "name": "traderId",
          "type": "bytes32"
        },
        {
          "internalType": "uint256",
          "name": "amount",
          "type": "uint256"
        }
      ],
      "name": "allocateToTrader",
      "outputs": [],
      "stateMutability": "nonpayable",
      "type": "function"
    },
    {
      "inputs": [],
      "name": "cancelWithdrawalRequest",
      "outputs": [],
      "stateMutability": "nonpayable",
      "type": "function"
    },
    {
      "inputs": [
        {
          "internalType": "address",
          "name": "recipient",
          "type": "address"
        }
      ],
      "name": "collectFees",
      "outputs": [],
      "stateMutability": "nonpayable",
      "type": "function"
    },
    {
      "inputs": [
        {
          "internalType": "bytes32",
          "name": "traderId",
          "type": "bytes32"
        },
        {
          "internalType": "uint256",
          "name": "amount",
          "type": "uint256"
        },
        {
          "internalType": "int256",
          "name": "finalPnL",
          "type": "int256"
        }
      ],
      "name": "deallocateFromTrader",
      "outputs": [],
      "stateMutability": "nonpayable",
      "type": "function"
    },
    {
      "inputs": [
        {
          "internalType": "uint256",
          "name": "amount",
          "type": "uint256"
        }
      ],
      "name": "deposit",
      "outputs": [
        {
          "internalType": "uint256",
          "name": "shares",
          "type": "uint256"
        }
      ],
      "stateMutability": "nonpayable",
      "type": "function"
    },
    {
      "inputs": [],
      "name": "depositToken",
      "outputs": [
        {
          "internalType": "contract IERC20",
          "name": "",
          "type": "address"
        }
      ],
      "stateMutability": "view",
      "type": "function"
    },
    {
      "inputs": [],
      "name": "executeWithdrawal",
      "outputs": [],
      "stateMutability": "nonpayable",
      "type": "function"
    },
    {
      "inputs": [],
      "name": "getActiveTraderCount",
      "outputs": [
        {
          "internalType": "uint256",
          "name": "count",
          "type": "uint256"
        }
      ],
      "stateMutability": "view",
      "type": "function"
    },
    {
      "inputs": [],
      "name": "getAvailableLiquidity",
      "outputs": [
        {
          "internalType": "uint256",
          "name": "",
          "type": "uint256"
        }
      ],
      "stateMutability": "view",
      "type": "function"
    },
    {
      "inputs": [
        {
          "internalType": "address",
          "name": "lp",
          "type": "address"
        }
      ],
      "name": "getLPValue",
      "outputs": [
        {
          "internalType": "uint256",
          "name": "value",
          "type": "uint256"
        }
      ],
      "stateMutability": "view",
      "type": "function"
    },
    {
      "inputs": [
        {
          "internalType": "bytes32",
          "name": "role",
          "type": "bytes32"
        }
      ],
      "name": "getRoleAdmin",
      "outputs": [
        {
          "internalType": "bytes32",
          "name": "",
          "type": "bytes32"
        }
      ],
      "stateMutability": "view",
      "type": "function"
    },
    {
      "inputs": [],
      "name": "getTotalAssets",
      "outputs": [
        {
          "internalType": "uint256",
          "name": "",
          "type": "uint256"
        }
      ],
      "stateMutability": "view",
      "type": "function"
    },
    {
      "inputs": [],
      "name": "getTotalTraderPnL",
      "outputs": [
        {
          "internalType": "int256",
          "name": "",
          "type": "int256"
        }
      ],
      "stateMutability": "view",
      "type": "function"
    },
    {
      "inputs": [
        {
          "internalType": "bytes32",
          "name": "role",
          "type": "bytes32"
        },
        {
          "internalType": "address",
          "name": "account",
          "type": "address"
        }
      ],
      "name": "grantRole",
      "outputs": [],
      "stateMutability": "nonpayable",
      "type": "function"
    },
    {
      "inputs": [
        {
          "internalType": "bytes32",
          "name": "role",
          "type": "bytes32"
        },
        {
          "internalType": "address",
          "name": "account",
          "type": "address"
        }
      ],
      "name": "hasRole",
      "outputs": [
        {
          "internalType": "bool",
          "name": "",
          "type": "bool"
        }
      ],
      "stateMutability": "view",
      "type": "function"
    },
    {
      "inputs": [
        {
          "internalType": "address",
          "name": "_depositToken",
          "type": "address"
        },
        {
          "internalType": "address",
          "name": "_admin",
          "type": "address"
        },
        {
          "internalType": "address",
          "name": "_governance",
          "type": "address"
        }
      ],
      "name": "initialize",
      "outputs": [],
      "stateMutability": "nonpayable",
      "type": "function"
    },
    {
      "inputs": [
        {
          "internalType": "address",
          "name": "",
          "type": "address"
        }
      ],
      "name": "lpInfo",
      "outputs": [
        {
          "internalType": "uint256",
          "name": "shares",
          "type": "uint256"
        },
        {
          "internalType": "uint256",
          "name": "deposited",
          "type": "uint256"
        },
        {
          "components": [
            {
              "internalType": "uint256",
              "name": "amount",
              "type": "uint256"
            },
            {
              "internalType": "uint256",
              "name": "shares",
              "type": "uint256"
            },
            {
              "internalType": "uint256",
              "name": "requestTime",
              "type": "uint256"
            },
            {
              "internalType": "bool",
              "name": "executed",
              "type": "bool"
            }
          ],
          "internalType": "struct CapitalPool.WithdrawalRequest",
          "name": "withdrawalRequest",
          "type": "tuple"
        },
        {
          "internalType": "uint256",
          "name": "lastDepositTime",
          "type": "uint256"
        }
      ],
      "stateMutability": "view",
      "type": "function"
    },
    {
      "inputs": [],
      "name": "pause",
      "outputs": [],
      "stateMutability": "nonpayable",
      "type": "function"
    },
    {
      "inputs": [],
      "name": "paused",
      "outputs": [
        {
          "internalType": "bool",
          "name": "",
          "type": "bool"
        }
      ],
      "stateMutability": "view",
      "type": "function"
    },
    {
      "inputs": [],
      "name": "protocolFees",
      "outputs": [
        {
          "internalType": "uint256",
          "name": "",
          "type": "uint256"
        }
      ],
      "stateMutability": "view",
      "type": "function"
    },
    {
      "inputs": [],
      "name": "proxiableUUID",
      "outputs": [
        {
          "internalType": "bytes32",
          "name": "",
          "type": "bytes32"
        }
      ],
      "stateMutability": "view",
      "type": "function"
    },
    {
      "inputs": [
        {
          "internalType": "bytes32",
          "name": "role",
          "type": "bytes32"
        },
        {
          "internalType": "address",
          "name": "callerConfirmation",
          "type": "address"
        }
      ],
      "name": "renounceRole",
      "outputs": [],
      "stateMutability": "nonpayable",
      "type": "function"
    },
    {
      "inputs": [
        {
          "internalType": "uint256",
          "name": "shares",
          "type": "uint256"
        }
      ],
      "name": "requestWithdrawal",
      "outputs": [],
      "stateMutability": "nonpayable",
      "type": "function"
    },
    {
      "inputs": [
        {
          "internalType": "bytes32",
          "name": "role",
          "type": "bytes32"
        },
        {
          "internalType": "address",
          "name": "account",
          "type": "address"
        }
      ],
      "name": "revokeRole",
      "outputs": [],
      "stateMutability": "nonpayable",
      "type": "function"
    },
    {
      "inputs": [
        {
          "internalType": "address",
          "name": "payoutManager",
          "type": "address"
        }
      ],
      "name": "setPayoutManager",
      "outputs": [],
      "stateMutability": "nonpayable",
      "type": "function"
    },
    {
      "inputs": [
        {
          "internalType": "uint256",
          "name": "newPeriod",
          "type": "uint256"
        }
      ],
      "name": "setVestingPeriod",
      "outputs": [],
      "stateMutability": "nonpayable",
      "type": "function"
    },
    {
      "inputs": [
        {
          "internalType": "bytes4",
          "name": "interfaceId",
          "type": "bytes4"
        }
      ],
      "name": "supportsInterface",
      "outputs": [
        {
          "internalType": "bool",
          "name": "",
          "type": "bool"
        }
      ],
      "stateMutability": "view",
      "type": "function"
    },
    {
      "inputs": [],
      "name": "totalAllocated",
      "outputs": [
        {
          "internalType": "uint256",
          "name": "",
          "type": "uint256"
        }
      ],
      "stateMutability": "view",
      "type": "function"
    },
    {
      "inputs": [],
      "name": "totalDeposited",
      "outputs": [
        {
          "internalType": "uint256",
          "name": "",
          "type": "uint256"
        }
      ],
      "stateMutability": "view",
      "type": "function"
    },
    {
      "inputs": [],
      "name": "totalShares",
      "outputs": [
        {
          "internalType": "uint256",
          "name": "",
          "type": "uint256"
        }
      ],
      "stateMutability": "view",
      "type": "function"
    },
    {
      "inputs": [
        {
          "internalType": "bytes32",
          "name": "",
          "type": "bytes32"
        }
      ],
      "name": "traderAllocations",
      "outputs": [
        {
          "internalType": "bytes32",
          "name": "traderId",
          "type": "bytes32"
        },
        {
          "internalType": "uint256",
          "name": "allocated",
          "type": "uint256"
        },
        {
          "internalType": "int256",
          "name": "pnl",
          "type": "int256"
        },
        {
          "internalType": "bool",
          "name": "active",
          "type": "bool"
        }
      ],
      "stateMutability": "view",
      "type": "function"
    },
    {
      "inputs": [
        {
          "internalType": "uint256",
          "name": "",
          "type": "uint256"
        }
      ],
      "name": "traderIds",
      "outputs": [
        {
          "internalType": "bytes32",
          "name": "",
          "type": "bytes32"
        }
      ],
      "stateMutability": "view",
      "type": "function"
    },
    {
      "inputs": [
        {
          "internalType": "bytes32",
          "name": "traderId",
          "type": "bytes32"
        },
        {
          "internalType": "address",
          "name": "recipient",
          "type": "address"
        },
        {
          "internalType": "uint256",
          "name": "amount",
          "type": "uint256"
        }
      ],
      "name": "transferToTrader",
      "outputs": [],
      "stateMutability": "nonpayable",
      "type": "function"
    },
    {
      "inputs": [],
      "name": "unpause",
      "outputs": [],
      "stateMutability": "nonpayable",
      "type": "function"
    },
    {
      "inputs": [
        {
          "internalType": "bytes32",
          "name": "traderId",
          "type": "bytes32"
        },
        {
          "internalType": "int256",
          "name": "newPnL",
          "type": "int256"
        }
      ],
      "name": "updateTraderPnL",
      "outputs": [],
      "stateMutability": "nonpayable",
      "type": "function"
    },
    {
      "inputs": [
        {
          "internalType": "address",
          "name": "newImplementation",
          "type": "address"
        },
        {
          "internalType": "bytes",
          "name": "data",
          "type": "bytes"
        }
      ],
      "name": "upgradeToAndCall",
      "outputs": [],
      "stateMutability": "payable",
      "type": "function"
    },
    {
      "inputs": [],
      "name": "vestingPeriod",
      "outputs": [
        {
          "internalType": "uint256",
          "name": "",
          "type": "uint256"
        }
      ],
      "stateMutability": "view",
      "type": "function"
    }
  ],
  "bytecode": "0x60a080604052346100ea57306080527ff0c57e16840df040f15088dc2f81fe391c3923bec73e23a9662efc9c229c6a005460ff8160401c166100d9576002600160401b03196001600160401b03821601610073575b60405161299590816100f082396080518181816113c301526114b40152f35b6001600160401b0319166001600160401b039081177ff0c57e16840df040f15088dc2f81fe391c3923bec73e23a9662efc9c229c6a005581527fc7f505b2f371ae2175ee4913f4499e1f2633a7b5936321eed1cdaeb6115181d290602090a13880610054565b63f92ee8a960e01b60005260046000fd5b600080fdfe608080604052600436101561001357600080fd5b60003560e01c90816301ffc9a714611bcc57508063098480ec14611bae57806311067f6a14611b055780631ad8b03b14611ae7578063248a9ca314611ac95780632bced5c0146119615780632f2ff15d146119305780633249e474146118f857806336568abe146118b25780633a98ef39146118945780633f4ba83a1461181157806340bee0ed1461176d57806345f7f2491461174f578063496f9dd7146116c15780634f1ef28614611437578063504f1f331461141a57806352d1902d146113b05780635c975abb146113805780636e07302b146113655780637181896f146112e75780637313ee5a146112c957806375b238fc1461128e5780638456cb591461121a578063853885af146111ff57806391d14854146111a55780639b745aec1461118a5780639da6da0914610f1d5780639ee679e814610d41578063a217fddf14610d25578063a27344b514610cfa578063a480ca7914610c0e578063ad3cb1cc14610b92578063b6b55f2514610984578063c0c53b8b146106c2578063c6ee6b501461066f578063c89039c514610646578063d547741f1461060e578063dc39d95a14610568578063e1e158a514610544578063e1f1c4a714610527578063e714a028146104a5578063eefac24f14610420578063f36c8f5c146103e5578063f61265dd146103aa578063fa45aa001461023c5763ff50abdc1461021957600080fd5b34610237576000366003190112610237576020600254604051908152f35b600080fd5b3461023757600036600319011261023757610255612314565b61025d61274e565b3360005260066020526040600020600281015461027b8115156120d1565b600582019161028e60ff84541615612128565b61029f600482015460055490611d50565b4210610356577f75e161b3e824b114fc1a33274bd7091918dd4e639cede50b78b15a4eea956a2191600361033f9201549333600052600660205260406000206102e9868254611d43565b90556102f785600154611d43565b6001908155815460ff191617905560005461031e90829033906001600160a01b0316612778565b60405191829133954291846040919493926060820195825260208201520152565b0390a2600160008051602061292083398151915255005b60405162461bcd60e51b815260206004820152602660248201527f4361706974616c506f6f6c3a2056657374696e6720706572696f64206e6f74206044820152651c185cdcd95960d21b6064820152608490fd5b346102375760003660031901126102375760206040517f2a8c1a51b640c7a7eb9d0cfee544da936bdc7aa3f3b6e21420c5748f3bc8bfb08152f35b346102375760003660031901126102375760206040517f71840dc4906352362b0cdaf79870196c8e42acafade72d5d5a6d59291253ceb18152f35b3461023757600036600319011261023757600080600854905b81811061044b57602083604051908152f35b61045481611c89565b90549060031b1c600052600760205260ff6003604060002001541661047c575b600101610439565b91600019811461048f5760010191610474565b634e487b7160e01b600052601160045260246000fd5b34610237576000366003190112610237576104be612314565b3360005260066020526104eb60ff600560406000206104e2600282015415156120d1565b01541615612128565b33600052600660205260006005604082208260028201558260038201558260048201550155600160008051602061292083398151915255600080f35b346102375760003660031901126102375760206040516127108152f35b34610237576000366003190112610237576020604051683635c9adc5dea000008152f35b34610237576060366003190112610237576105fa610584611c35565b60443590610590612174565b610598612314565b6105ac6001600160a01b0382161515612085565b6105b7821515611f2e565b60043560005260076020526105d660ff60036040600020015416611cf7565b6105e96105e1611e9f565b831115611ff9565b6000546001600160a01b0316612778565b600160008051602061292083398151915255005b346102375760403660031901126102375761064460043561062d611c35565b9061063f61063a82611cd6565b6122ca565b6126ae565b005b34610237576000366003190112610237576000546040516001600160a01b039091168152602090f35b346102375760203660031901126102375760043560005260076020526080604060002080549060018101549060ff6003600283015492015416916040519384526020840152604083015215156060820152f35b34610237576060366003190112610237576106db611c1f565b6106e3611c35565b6044356001600160a01b03811680820361023757600080516020612940833981519152549360ff8560401c16159467ffffffffffffffff81168015908161097c575b6001149081610972575b159081610969575b506109585767ffffffffffffffff198116600117600080516020612940833981519152558561092b575b506001600160a01b03169081156108e6576001600160a01b038416156108a1571561085c576107fc926107f691610796612810565b61079e612810565b6107a6612810565b6107ae612810565b6001600080516020612920833981519152556107c8612810565b6bffffffffffffffffffffffff60a01b600054161760005562093a806005556107f08161240c565b506124a6565b50612562565b5061080357005b68ff0000000000000000196000805160206129408339815191525416600080516020612940833981519152557fc7f505b2f371ae2175ee4913f4499e1f2633a7b5936321eed1cdaeb6115181d2602060405160018152a1005b60405162461bcd60e51b815260206004820152601c60248201527f4361706974616c506f6f6c3a205a65726f20676f7665726e616e6365000000006044820152606490fd5b60405162461bcd60e51b815260206004820152601760248201527f4361706974616c506f6f6c3a205a65726f2061646d696e0000000000000000006044820152606490fd5b60405162461bcd60e51b815260206004820152601f60248201527f4361706974616c506f6f6c3a205a65726f206465706f73697420746f6b656e006044820152606490fd5b68ffffffffffffffffff191668010000000000000001176000805160206129408339815191525585610761565b63f92ee8a960e01b60005260046000fd5b90501587610737565b303b15915061072f565b879150610725565b34610237576020366003190112610237576004356109a0612314565b6109a861274e565b683635c9adc5dea000008110610b42576001549081610ad35760209150805b6109d2821515611fad565b336000526006835260406000206109ea838254611d50565b905533600052600683526001604060002001610a07828254611d50565b9055336000526006835242600660406000200155610a2782600154611d50565b600155610a3681600254611d50565b6002556000546040516323b872dd60e01b8582015233602482015230604482015260648082018490528152610a7e916001600160a01b0316610a79608483611c67565b6127b5565b6040805191825260208201839052429082015233907f91ede45f04a37a7c170f5c1207df3b6bc748dc1e04ad5e917a241d0f52feada390606090a2600160008051602061292083398151915255604051908152f35b610adb611d79565b918215610afd57602092610af2610af79284611f7a565b611f8d565b906109c7565b60405162461bcd60e51b815260206004820152601e60248201527f4361706974616c506f6f6c3a205a65726f20746f74616c2061737365747300006044820152606490fd5b60405162461bcd60e51b815260206004820152602260248201527f4361706974616c506f6f6c3a2042656c6f77206d696e696d756d206465706f736044820152611a5d60f21b6064820152608490fd5b34610237576000366003190112610237576040805190610bb28183611c67565b60058252640352e302e360dc1b6020830152805180926020825280519081602084015260005b828110610bf75750506000828201840152601f01601f19168101030190f35b602082820181015187830187015286945001610bd8565b3461023757602036600319011261023757610c27611c1f565b610c2f612258565b610c37612314565b6001600160a01b03811690610c4d821515612085565b600454908115610cb55781610c957f72015ace03712f361249380657b3d40777dd8f8a686664cab48afd9dbbe4499f93604093600060045560018060a01b0360005416612778565b8151908152426020820152a2600160008051602061292083398151915255005b60405162461bcd60e51b815260206004820152601f60248201527f4361706974616c506f6f6c3a204e6f206665657320746f20636f6c6c656374006044820152606490fd5b34610237576020366003190112610237576020610d1d610d18611c1f565b612051565b604051908152f35b3461023757600036600319011261023757602060405160008152f35b3461023757602036600319011261023757600435610d5d612314565b610d6561274e565b610d70811515611fad565b3360005260066020528060406000205410610ed95733600052600660205260ff60056040600020015416610e88577f38e3d972947cfef94205163d483d6287ef27eb312e20cb8e0b13a49989db232e610ddc610dd3610dcd611d79565b84611f7a565b60015490611f8d565b91610de8831515611f2e565b610dfb610df3611e9f565b841115611ff9565b610e5d604051610e0a81611c4b565b8481526005602082018481526040830142815260608401916000835233600052600660205260406000209451600286015551600385015551600484015551151591019060ff801983541691151516179055565b610e6960055442611d50565b604080519485526020850192909252908301523391806060810161033f565b60405162461bcd60e51b815260206004820152602360248201527f4361706974616c506f6f6c3a2050656e64696e6720726571756573742065786960448201526273747360e81b6064820152608490fd5b606460405162461bcd60e51b815260206004820152602060248201527f4361706974616c506f6f6c3a20496e73756666696369656e74207368617265736044820152fd5b3461023757604036600319011261023757600435602435610f3c612174565b610f44612314565b610f4c61274e565b811561114557610f5d811515611f2e565b610f65611d79565b61251c81029080820461251c149015171561048f576127109004610f8b82600354611d50565b116110f25781600052600760205260ff60036040600020015416156000146110ac5760085468010000000000000000811015611096577f566f9102d0fc9250da8c3969b1614e063411a109fe0454041a5a3e160e48a38f91610ff582600160409401600855611c89565b81549060031b9086821b91600019901b1916179055611067825161101881611c4b565b85815260036020820184815285830160008152606084019160018352896000526007602052876000209451855551600185015551600284015551151591019060ff801983541691151516179055565b61107381600354611d50565b6003558151908152426020820152a2600160008051602061292083398151915255005b634e487b7160e01b600052604160045260246000fd5b60407f566f9102d0fc9250da8c3969b1614e063411a109fe0454041a5a3e160e48a38f91836000526007602052600182600020016110eb828254611d50565b9055611067565b60405162461bcd60e51b815260206004820152602560248201527f4361706974616c506f6f6c3a204578636565647320616c6c6f636174696f6e206044820152641b1a5b5a5d60da1b6064820152608490fd5b60405162461bcd60e51b815260206004820152601e60248201527f4361706974616c506f6f6c3a20496e76616c69642074726164657220494400006044820152606490fd5b34610237576000366003190112610237576020610d1d611e9f565b34610237576040366003190112610237576111be611c35565b6004356000526000805160206128e083398151915260205260406000209060018060a01b0316600052602052602060ff604060002054166040519015158152f35b34610237576000366003190112610237576020610d1d611e24565b34610237576000366003190112610237576112336121e6565b61123b61274e565b600160ff19600080516020612900833981519152541617600080516020612900833981519152557f62e78cea01bee320cd4e420270b5ea74000d11b0c9f74754ebdbfc544b05a2586020604051338152a1005b346102375760003660031901126102375760206040517fa49807205ce4d355092ef5a8a18f56e8913cf4a201fbe287825b095693c217758152f35b34610237576000366003190112610237576020600554604051908152f35b3461023757602036600319011261023757611300611c1f565b6113086121e6565b6001600160a01b038116156113205761064490612350565b60405162461bcd60e51b815260206004820152601960248201527f4361706974616c506f6f6c3a205a65726f2061646472657373000000000000006044820152606490fd5b34610237576000366003190112610237576020610d1d611d79565b3461023757600036600319011261023757602060ff60008051602061290083398151915254166040519015158152f35b34610237576000366003190112610237577f00000000000000000000000000000000000000000000000000000000000000006001600160a01b031630036114095760206040516000805160206128c08339815191528152f35b63703e46dd60e11b60005260046000fd5b3461023757600036600319011261023757602060405161251c8152f35b60403660031901126102375761144b611c1f565b6024359067ffffffffffffffff821161023757366023830112156102375781600401359061147882611cba565b916114866040519384611c67565b8083526020830193366024838301011161023757816000926024602093018737840101526001600160a01b037f00000000000000000000000000000000000000000000000000000000000000001630811490811561169e575b50611409576114ec612258565b6001600160a01b03811692831561165a576040516352d1902d60e01b8152602081600481885afa60009181611626575b506115365784634c9c8ce360e01b60005260045260246000fd5b806000805160206128c08339815191528692036116125750823b156115fe576000805160206128c083398151915280546001600160a01b031916821790557fbc7cd75a20ee27fd9adebab32041f755214dbc6bffa90cc0225b39da2e5c2d3b600080a28251156115e35760008091610644945190845af43d156115db573d916115be83611cba565b926115cc6040519485611c67565b83523d6000602085013e61283e565b60609161283e565b505050346115ed57005b63b398979f60e01b60005260046000fd5b634c9c8ce360e01b60005260045260246000fd5b632a87526960e21b60005260045260246000fd5b9091506020813d602011611652575b8161164260209383611c67565b810103126102375751908661151c565b3d9150611635565b606460405162461bcd60e51b815260206004820152602060248201527f4361706974616c506f6f6c3a205a65726f20696d706c656d656e746174696f6e6044820152fd5b6000805160206128c0833981519152546001600160a01b031614159050846114df565b34610237576040366003190112610237576004357f40930fb1c2774574eac4684dc55f0fd873c5d11ef95c26f1da8b93c842fe01706060602435611703612174565b83600052600760205261172060ff60036040600020015416611cf7565b6000848152600760209081526040918290206002018054908490558251908152908101929092524290820152a2005b34610237576000366003190112610237576020600354604051908152f35b3461023757602036600319011261023757600435611789612258565b62278d0081116117cc5760407f2543ef20d7e1e2939d7ba6a2d4f2bc50e3098ccfd274aafcb3f263dc3585f2d791600554908060055582519182526020820152a1005b60405162461bcd60e51b815260206004820152601d60248201527f4361706974616c506f6f6c3a2056657374696e6720746f6f206c6f6e670000006044820152606490fd5b346102375760003660031901126102375761182a6121e6565b6000805160206129008339815191525460ff8116156118835760ff1916600080516020612900833981519152557f5db9ee0a495bf2e6ff9c91a7834c1ba4fdd244a5e8aa4e537bd38aeae4b073aa6020604051338152a1005b638dfc202b60e01b60005260046000fd5b34610237576000366003190112610237576020600154604051908152f35b34610237576040366003190112610237576118cb611c35565b336001600160a01b038216036118e757610644906004356126ae565b63334bd91960e11b60005260046000fd5b346102375760203660031901126102375760043560085481101561023757611921602091611c89565b90549060031b1c604051908152f35b346102375760403660031901126102375761064460043561194f611c35565b9061195c61063a82611cd6565b61261e565b3461023757606036600319011261023757600435602435604435611983612174565b61198b612314565b8260005260076020526119a860ff60036040600020015416611cf7565b8260005260076020526001604060002001548211611a7557816060916119f17f2cf05bec4911961df4e87d9fb244210422f93f167d1ed588c055f3d57dba6f6794600354611d43565b6003558460005260076020526001604060002001611a10838254611d43565b90556000858152600760205260409020600281018290556001015415611a57575b6040519182526020820152426040820152a2600160008051602061292083398151915255005b846000526007602052600360406000200160ff198154169055611a31565b60405162461bcd60e51b815260206004820152602660248201527f4361706974616c506f6f6c3a20416d6f756e74206578636565647320616c6c6f60448201526531b0ba34b7b760d11b6064820152608490fd5b34610237576020366003190112610237576020610d1d600435611cd6565b34610237576000366003190112610237576020600454604051908152f35b34610237576020366003190112610237576001600160a01b03611b26611c1f565b16600052600660205260e06040600020805490600181015490604051611b4b81611c4b565b6002820154815260038201546020820190815260048301549160408101928352600660ff60058601541694606083019515158652015494604051968752602087015251604086015251606085015251608084015251151560a083015260c0820152f35b3461023757600036600319011261023757602060405162093a808152f35b34610237576020366003190112610237576004359063ffffffff60e01b821680920361023757602091637965db0b60e01b8114908115611c0e575b5015158152f35b6301ffc9a760e01b14905083611c07565b600435906001600160a01b038216820361023757565b602435906001600160a01b038216820361023757565b6080810190811067ffffffffffffffff82111761109657604052565b90601f8019910116810190811067ffffffffffffffff82111761109657604052565b600854811015611ca457600860005260206000200190600090565b634e487b7160e01b600052603260045260246000fd5b67ffffffffffffffff811161109657601f01601f191660200190565b6000526000805160206128e083398151915260205260016040600020015490565b15611cfe57565b60405162461bcd60e51b815260206004820152601e60248201527f4361706974616c506f6f6c3a20547261646572206e6f742061637469766500006044820152606490fd5b9190820391821161048f57565b9190820180921161048f57565b9190916000838201938412911290801582169115161761048f57565b6000546040516370a0823160e01b815230600482015290602090829060249082906001600160a01b03165afa8015611e1857600090611de4575b611dd29150611dcd611dc3611e24565b9160035490611d50565b611d5d565b6000811315611dde5790565b50600090565b506020813d602011611e10575b81611dfe60209383611c67565b8101031261023757611dd29051611db3565b3d9150611df1565b6040513d6000823e3d90fd5b600080600854905b818110611e3857505090565b611e4181611c89565b90549060031b1c600052600760205260ff60036040600020015416611e69575b600101611e2c565b91611e97600191611e7985611c89565b90549060031b1c600052600760205260026040600020015490611d5d565b929050611e61565b6000546040516370a0823160e01b815230600482015290602090829060249082906001600160a01b03165afa908115611e1857600091611ef9575b5060045480821115611ef257611eef91611d43565b90565b5050600090565b906020823d602011611f26575b81611f1360209383611c67565b81010312611f2357505138611eda565b80fd5b3d9150611f06565b15611f3557565b60405162461bcd60e51b815260206004820152601860248201527f4361706974616c506f6f6c3a205a65726f20616d6f756e7400000000000000006044820152606490fd5b8181029291811591840414171561048f57565b8115611f97570490565b634e487b7160e01b600052601260045260246000fd5b15611fb457565b60405162461bcd60e51b815260206004820152601860248201527f4361706974616c506f6f6c3a205a65726f2073686172657300000000000000006044820152606490fd5b1561200057565b60405162461bcd60e51b815260206004820152602360248201527f4361706974616c506f6f6c3a20496e73756666696369656e74206c697175696460448201526269747960e81b6064820152608490fd5b6001548015611ef257611eef9160018060a01b03166000526006602052610af260406000205461207f611d79565b90611f7a565b1561208c57565b60405162461bcd60e51b815260206004820152601b60248201527f4361706974616c506f6f6c3a205a65726f20726563697069656e7400000000006044820152606490fd5b156120d857565b60405162461bcd60e51b815260206004820152602260248201527f4361706974616c506f6f6c3a204e6f207769746864726177616c2072657175656044820152611cdd60f21b6064820152608490fd5b1561212f57565b60405162461bcd60e51b815260206004820152601d60248201527f4361706974616c506f6f6c3a20416c72656164792065786563757465640000006044820152606490fd5b3360009081527fa4280a8c27faa5fdc809c5286a3fc84add5e042b76219ff84ccedeeea33b1e84602052604090205460ff16156121ad57565b63e2517d3f60e01b600052336004527f2a8c1a51b640c7a7eb9d0cfee544da936bdc7aa3f3b6e21420c5748f3bc8bfb060245260446000fd5b3360009081527fb16e88c42fd4e48df2dd6a2eabd6bc9aec654ec170056b470819f8892cc6431c602052604090205460ff161561221f57565b63e2517d3f60e01b600052336004527fa49807205ce4d355092ef5a8a18f56e8913cf4a201fbe287825b095693c2177560245260446000fd5b3360009081527f25f7f44d2cbb35948a0ec4a3daca6d9fef225ba74483a7793ae48fcb0272bb0c602052604090205460ff161561229157565b63e2517d3f60e01b600052336004527f71840dc4906352362b0cdaf79870196c8e42acafade72d5d5a6d59291253ceb160245260446000fd5b60008181526000805160206128e08339815191526020908152604080832033845290915290205460ff16156122fc5750565b63e2517d3f60e01b6000523360045260245260446000fd5b6002600080516020612920833981519152541461233f57600260008051602061292083398151915255565b633ee5aeb560e01b60005260046000fd5b6001600160a01b03811660009081527fa4280a8c27faa5fdc809c5286a3fc84add5e042b76219ff84ccedeeea33b1e84602052604090205460ff16611dde576001600160a01b031660008181527fa4280a8c27faa5fdc809c5286a3fc84add5e042b76219ff84ccedeeea33b1e8460205260408120805460ff191660011790553391907f2a8c1a51b640c7a7eb9d0cfee544da936bdc7aa3f3b6e21420c5748f3bc8bfb0906000805160206128a08339815191529080a4600190565b6001600160a01b03811660009081527fb7db2dd08fcb62d0c9e08c51941cae53c267786a0b75803fb7960902fc8ef97d602052604090205460ff16611dde576001600160a01b031660008181527fb7db2dd08fcb62d0c9e08c51941cae53c267786a0b75803fb7960902fc8ef97d60205260408120805460ff191660011790553391906000805160206128a08339815191528180a4600190565b6001600160a01b03811660009081527fb16e88c42fd4e48df2dd6a2eabd6bc9aec654ec170056b470819f8892cc6431c602052604090205460ff16611dde576001600160a01b031660008181527fb16e88c42fd4e48df2dd6a2eabd6bc9aec654ec170056b470819f8892cc6431c60205260408120805460ff191660011790553391907fa49807205ce4d355092ef5a8a18f56e8913cf4a201fbe287825b095693c21775906000805160206128a08339815191529080a4600190565b6001600160a01b03811660009081527f25f7f44d2cbb35948a0ec4a3daca6d9fef225ba74483a7793ae48fcb0272bb0c602052604090205460ff16611dde576001600160a01b031660008181527f25f7f44d2cbb35948a0ec4a3daca6d9fef225ba74483a7793ae48fcb0272bb0c60205260408120805460ff191660011790553391907f71840dc4906352362b0cdaf79870196c8e42acafade72d5d5a6d59291253ceb1906000805160206128a08339815191529080a4600190565b60008181526000805160206128e0833981519152602090815260408083206001600160a01b038616845290915290205460ff16611ef25760008181526000805160206128e0833981519152602090815260408083206001600160a01b0395909516808452949091528120805460ff19166001179055339291906000805160206128a08339815191529080a4600190565b60008181526000805160206128e0833981519152602090815260408083206001600160a01b038616845290915290205460ff1615611ef25760008181526000805160206128e0833981519152602090815260408083206001600160a01b0395909516808452949091528120805460ff19169055339291907ff6391f5c32d9c69d2a47ea670b442974b53935d1edc7fd64eb21e047a839171b9080a4600190565b60ff600080516020612900833981519152541661276757565b63d93c066560e01b60005260046000fd5b60405163a9059cbb60e01b60208201526001600160a01b0390921660248301526044808301939093529181526127b391610a79606483611c67565b565b906000602091828151910182855af115611e18576000513d61280757506001600160a01b0381163b155b6127e65750565b635274afe760e01b60009081526001600160a01b0391909116600452602490fd5b600114156127df565b60ff6000805160206129408339815191525460401c161561282d57565b631afcd79f60e31b60005260046000fd5b90612864575080511561285357602081519101fd5b63d6bda27560e01b60005260046000fd5b81511580612896575b612875575090565b639996b31560e01b60009081526001600160a01b0391909116600452602490fd5b50803b1561286d56fe2f8788117e7eff1d82e926ec794901d17c78024a50270940304540a733656f0d360894a13ba1a3210667c828492db98dca3e2076cc3735a920a3ca505d382bbc02dd7bc7dec4dceedda775e58dd541e08a116c6c53815c0bd028192f7b626800cd5ed15c6e187e77e9aee88184c21f4f2182ab5827cb3b7e07fbedcd63f033009b779b17422d0df92223018b32b4d1fa46e071723d6817e2486d003becc55f00f0c57e16840df040f15088dc2f81fe391c3923bec73e23a9662efc9c229c6a00a2646970667358221220e23bc6b823942612f19445d3693f5fe387ea6303701990b492d2405f1d5bb2f964736f6c634300081b0033",
  "linkReferences": {},
  "deployedLinkReferences": {}
}